{
  "contractName": "Airdrop",
  "abi": [
    {
      "inputs": [],
      "stateMutability": "nonpayable",
      "type": "constructor"
    },
    {
      "anonymous": false,
      "inputs": [
        {
          "indexed": true,
          "internalType": "address",
          "name": "previousOwner",
          "type": "address"
        },
        {
          "indexed": true,
          "internalType": "address",
          "name": "newOwner",
          "type": "address"
        }
      ],
      "name": "OwnershipTransferred",
      "type": "event"
    },
    {
      "inputs": [],
      "name": "acceptOwnership",
      "outputs": [],
      "stateMutability": "nonpayable",
      "type": "function"
    },
    {
      "inputs": [],
      "name": "cancelOwnershipTransfer",
      "outputs": [],
      "stateMutability": "nonpayable",
      "type": "function"
    },
    {
      "inputs": [],
      "name": "isNextOwner",
      "outputs": [
        {
          "internalType": "bool",
          "name": "",
          "type": "bool"
        }
      ],
      "stateMutability": "view",
      "type": "function"
    },
    {
      "inputs": [],
      "name": "isOwner",
      "outputs": [
        {
          "internalType": "bool",
          "name": "",
          "type": "bool"
        }
      ],
      "stateMutability": "view",
      "type": "function"
    },
    {
      "inputs": [],
      "name": "owner",
      "outputs": [
        {
          "internalType": "address",
          "name": "",
          "type": "address"
        }
      ],
      "stateMutability": "view",
      "type": "function"
    },
    {
      "inputs": [],
      "name": "renounceOwnership",
      "outputs": [],
      "stateMutability": "nonpayable",
      "type": "function"
    },
    {
      "inputs": [
        {
          "internalType": "address",
          "name": "nextOwner_",
          "type": "address"
        }
      ],
      "name": "transferOwnership",
      "outputs": [],
      "stateMutability": "nonpayable",
      "type": "function"
    },
    {
      "inputs": [
        {
          "internalType": "address",
          "name": "token",
          "type": "address"
        },
        {
          "internalType": "address[]",
          "name": "_recipients",
          "type": "address[]"
        },
        {
          "internalType": "uint256[]",
          "name": "amount",
          "type": "uint256[]"
        }
      ],
      "name": "airdropTokens",
      "outputs": [],
      "stateMutability": "nonpayable",
      "type": "function"
    }
  ],
  "bytecode": "0x608060405234801561000f575f80fd5b5033805f806101000a81548173ffffffffffffffffffffffffffffffffffffffff021916908373ffffffffffffffffffffffffffffffffffffffff1602179055505f8054906101000a900473ffffffffffffffffffffffffffffffffffffffff1673ffffffffffffffffffffffffffffffffffffffff165f73ffffffffffffffffffffffffffffffffffffffff167f8be0079c531659141344cd1fd0a4f28419497f9722a3daafe3b4186f6b6457e060405160405180910390a350610f86806100d75f395ff3fe608060405234801561000f575f80fd5b5060043610610086575f3560e01c80638da5cb5b116100595780638da5cb5b146100c45780638f32d59b146100e2578063ed459df214610100578063f2fde38b1461011e57610086565b806323452b9c1461008a5780634022b75e14610094578063715018a6146100b057806379ba5097146100ba575b5f80fd5b61009261013a565b005b6100ae60048036038101906100a99190610a3f565b6101a7565b005b6100b861039b565b005b6100c26103ec565b005b6100cc610511565b6040516100d99190610ad6565b60405180910390f35b6100ea610534565b6040516100f79190610b09565b60405180910390f35b610108610589565b6040516101159190610b09565b60405180910390f35b61013860048036038101906101339190610b22565b6105df565b005b610142610534565b610181576040517f08c379a000000000000000000000000000000000000000000000000000000000815260040161017890610ba7565b60405180910390fd5b60015f6101000a81549073ffffffffffffffffffffffffffffffffffffffff0219169055565b80518251146101eb576040517f08c379a00000000000000000000000000000000000000000000000000000000081526004016101e290610c35565b60405180910390fd5b3373ffffffffffffffffffffffffffffffffffffffff168373ffffffffffffffffffffffffffffffffffffffff16638da5cb5b6040518163ffffffff1660e01b8152600401602060405180830381865afa15801561024b573d5f803e3d5ffd5b505050506040513d601f19601f8201168201806040525081019061026f9190610c67565b73ffffffffffffffffffffffffffffffffffffffff16146102c5576040517f08c379a00000000000000000000000000000000000000000000000000000000081526004016102bc90610d02565b60405180910390fd5b5f5b8251811015610395578373ffffffffffffffffffffffffffffffffffffffff166323b872dd33858481518110610300576102ff610d20565b5b602002602001015185858151811061031b5761031a610d20565b5b60200260200101516040518463ffffffff1660e01b815260040161034193929190610d5c565b6020604051808303815f875af115801561035d573d5f803e3d5ffd5b505050506040513d601f19601f820116820180604052508101906103819190610dbb565b50808061038d90610e13565b9150506102c7565b50505050565b6103a3610534565b6103e2576040517f08c379a00000000000000000000000000000000000000000000000000000000081526004016103d990610ba7565b60405180910390fd5b6103ea6106d7565b565b6103f4610589565b610433576040517f08c379a000000000000000000000000000000000000000000000000000000000815260040161042a90610eca565b60405180910390fd5b60015f6101000a81549073ffffffffffffffffffffffffffffffffffffffff0219169055335f806101000a81548173ffffffffffffffffffffffffffffffffffffffff021916908373ffffffffffffffffffffffffffffffffffffffff1602179055503373ffffffffffffffffffffffffffffffffffffffff165f8054906101000a900473ffffffffffffffffffffffffffffffffffffffff1673ffffffffffffffffffffffffffffffffffffffff167f8be0079c531659141344cd1fd0a4f28419497f9722a3daafe3b4186f6b6457e060405160405180910390a3565b5f8054906101000a900473ffffffffffffffffffffffffffffffffffffffff1681565b5f805f9054906101000a900473ffffffffffffffffffffffffffffffffffffffff1673ffffffffffffffffffffffffffffffffffffffff163373ffffffffffffffffffffffffffffffffffffffff1614905090565b5f60015f9054906101000a900473ffffffffffffffffffffffffffffffffffffffff1673ffffffffffffffffffffffffffffffffffffffff163373ffffffffffffffffffffffffffffffffffffffff1614905090565b6105e7610534565b610626576040517f08c379a000000000000000000000000000000000000000000000000000000000815260040161061d90610ba7565b60405180910390fd5b5f73ffffffffffffffffffffffffffffffffffffffff168173ffffffffffffffffffffffffffffffffffffffff1603610694576040517f08c379a000000000000000000000000000000000000000000000000000000000815260040161068b90610f32565b60405180910390fd5b8060015f6101000a81548173ffffffffffffffffffffffffffffffffffffffff021916908373ffffffffffffffffffffffffffffffffffffffff16021790555050565b5f73ffffffffffffffffffffffffffffffffffffffff165f8054906101000a900473ffffffffffffffffffffffffffffffffffffffff1673ffffffffffffffffffffffffffffffffffffffff167f8be0079c531659141344cd1fd0a4f28419497f9722a3daafe3b4186f6b6457e060405160405180910390a35f805f6101000a81548173ffffffffffffffffffffffffffffffffffffffff021916908373ffffffffffffffffffffffffffffffffffffffff160217905550565b5f604051905090565b5f80fd5b5f80fd5b5f73ffffffffffffffffffffffffffffffffffffffff82169050919050565b5f6107cb826107a2565b9050919050565b6107db816107c1565b81146107e5575f80fd5b50565b5f813590506107f6816107d2565b92915050565b5f80fd5b5f601f19601f8301169050919050565b7f4e487b71000000000000000000000000000000000000000000000000000000005f52604160045260245ffd5b61084682610800565b810181811067ffffffffffffffff8211171561086557610864610810565b5b80604052505050565b5f610877610791565b9050610883828261083d565b919050565b5f67ffffffffffffffff8211156108a2576108a1610810565b5b602082029050602081019050919050565b5f80fd5b5f6108c96108c484610888565b61086e565b905080838252602082019050602084028301858111156108ec576108eb6108b3565b5b835b81811015610915578061090188826107e8565b8452602084019350506020810190506108ee565b5050509392505050565b5f82601f830112610933576109326107fc565b5b81356109438482602086016108b7565b91505092915050565b5f67ffffffffffffffff82111561096657610965610810565b5b602082029050602081019050919050565b5f819050919050565b61098981610977565b8114610993575f80fd5b50565b5f813590506109a481610980565b92915050565b5f6109bc6109b78461094c565b61086e565b905080838252602082019050602084028301858111156109df576109de6108b3565b5b835b81811015610a0857806109f48882610996565b8452602084019350506020810190506109e1565b5050509392505050565b5f82601f830112610a2657610a256107fc565b5b8135610a368482602086016109aa565b91505092915050565b5f805f60608486031215610a5657610a5561079a565b5b5f610a63868287016107e8565b935050602084013567ffffffffffffffff811115610a8457610a8361079e565b5b610a908682870161091f565b925050604084013567ffffffffffffffff811115610ab157610ab061079e565b5b610abd86828701610a12565b9150509250925092565b610ad0816107c1565b82525050565b5f602082019050610ae95f830184610ac7565b92915050565b5f8115159050919050565b610b0381610aef565b82525050565b5f602082019050610b1c5f830184610afa565b92915050565b5f60208284031215610b3757610b3661079a565b5b5f610b44848285016107e8565b91505092915050565b5f82825260208201905092915050565b7f63616c6c6572206973206e6f7420746865206f776e65722e00000000000000005f82015250565b5f610b91601883610b4d565b9150610b9c82610b5d565b602082019050919050565b5f6020820190508181035f830152610bbe81610b85565b9050919050565b7f41697264726f703a20526563697069656e747320616e6420616d6f756e74206c5f8201527f656e677468206d69736d61746368000000000000000000000000000000000000602082015250565b5f610c1f602e83610b4d565b9150610c2a82610bc5565b604082019050919050565b5f6020820190508181035f830152610c4c81610c13565b9050919050565b5f81519050610c61816107d2565b92915050565b5f60208284031215610c7c57610c7b61079a565b5b5f610c8984828501610c53565b91505092915050565b7f41697264726f703a204f6e6c7920746f6b656e206f776e65722063616e2061695f8201527f7264726f7020746f6b656e730000000000000000000000000000000000000000602082015250565b5f610cec602c83610b4d565b9150610cf782610c92565b604082019050919050565b5f6020820190508181035f830152610d1981610ce0565b9050919050565b7f4e487b71000000000000000000000000000000000000000000000000000000005f52603260045260245ffd5b610d5681610977565b82525050565b5f606082019050610d6f5f830186610ac7565b610d7c6020830185610ac7565b610d896040830184610d4d565b949350505050565b610d9a81610aef565b8114610da4575f80fd5b50565b5f81519050610db581610d91565b92915050565b5f60208284031215610dd057610dcf61079a565b5b5f610ddd84828501610da7565b91505092915050565b7f4e487b71000000000000000000000000000000000000000000000000000000005f52601160045260245ffd5b5f610e1d82610977565b91507fffffffffffffffffffffffffffffffffffffffffffffffffffffffffffffffff8203610e4f57610e4e610de6565b5b600182019050919050565b7f63757272656e74206f776e6572206d757374207365742063616c6c65722061735f8201527f206e657874206f776e65722e0000000000000000000000000000000000000000602082015250565b5f610eb4602c83610b4d565b9150610ebf82610e5a565b604082019050919050565b5f6020820190508181035f830152610ee181610ea8565b9050919050565b7f4e657874206f776e657220697320746865207a65726f20616464726573732e005f82015250565b5f610f1c601f83610b4d565b9150610f2782610ee8565b602082019050919050565b5f6020820190508181035f830152610f4981610f10565b905091905056fea264697066735822122039db81c136e3c3359841b3e4de1da579568ab2ac2f47faf921a634becd224a4364736f6c63430008150033",
  "immutableReferences": {},
  "source": "// SPDX-License-Identifier: MIT\n// pragma solidity =0.8.17;\npragma solidity ^0.8.0;\n\nimport \"./interface/IERC20.sol\";\nimport \"./lib/Ownable.sol\";\n\n/// @notice Used to check if the airdrop administrator owns the token contract\ninterface IOwnable {\n    function isOwner() external view returns (bool);\n    function owner() external view returns (address);\n}\n\ncontract Airdrop is Ownable {\n    constructor() Ownable(msg.sender) {}\n\n    /// @notice Airdrop `token` to a list of `_recipients`\n    /// @param token Token you want to airdrop\n    /// @param _recipients List of recipients to airdrop\n    /// @param amount List of amounts per user\n    function airdropTokens(\n        address token,\n        address[] memory _recipients,\n        uint256[] memory amount\n    ) external {\n        require(\n            _recipients.length == amount.length,\n            \"Airdrop: Recipients and amount length mismatch\"\n        );\n        require(\n            IOwnable(token).owner() == msg.sender,\n            \"Airdrop: Only token owner can airdrop tokens\"\n        );\n        for (uint256 i = 0; i < _recipients.length; i++) {\n            IERC20(token).transferFrom(msg.sender, _recipients[i], amount[i]);\n        }\n    }\n}\n",
  "sourcePath": "/Users/lbd/Downloads/MXC LLC/work/token-airdrop-x2e/token-airdrop-x2e-2/contracts/contracts/Airdrop.sol",
  "compiler": {
    "name": "solc",
    "version": "0.8.21+commit.d9974bed.Emscripten.clang"
  },
  "schemaVersion": "3.4.16",
  "updatedAt": "2024-04-05T20:38:50.589Z",
  "devdoc": {
    "kind": "dev",
    "methods": {
      "acceptOwnership()": {
        "details": "Accepts ownership transfer by setting owner."
      },
      "airdropTokens(address,address[],uint256[])": {
        "params": {
          "_recipients": "List of recipients to airdrop",
          "amount": "List of amounts per user",
          "token": "Token you want to airdrop"
        }
      },
      "cancelOwnershipTransfer()": {
        "details": "Cancel ownership transfer by deleting nextOwner."
      },
      "isNextOwner()": {
        "details": "Returns true if the caller is the next owner."
      },
      "isOwner()": {
        "details": "Returns true if the caller is the current owner."
      },
      "renounceOwnership()": {
        "details": "Renounce ownership by setting owner to zero address."
      },
      "transferOwnership(address)": {
        "details": "Initiate ownership transfer by setting nextOwner."
      }
    },
    "version": 1
  },
  "userdoc": {
    "kind": "user",
    "methods": {
      "airdropTokens(address,address[],uint256[])": {
        "notice": "Airdrop `token` to a list of `_recipients`"
      }
    },
    "version": 1
  }
}