{
  "contractName": "ERC20Impl",
  "abi": [
    {
      "inputs": [
        {
          "internalType": "address",
          "name": "factory_",
          "type": "address"
        }
      ],
      "stateMutability": "nonpayable",
      "type": "constructor"
    },
    {
      "anonymous": false,
      "inputs": [
        {
          "indexed": true,
          "internalType": "address",
          "name": "_owner",
          "type": "address"
        },
        {
          "indexed": true,
          "internalType": "address",
          "name": "_spender",
          "type": "address"
        },
        {
          "indexed": false,
          "internalType": "uint256",
          "name": "_value",
          "type": "uint256"
        }
      ],
      "name": "Approval",
      "type": "event"
    },
    {
      "anonymous": false,
      "inputs": [
        {
          "indexed": true,
          "internalType": "address",
          "name": "previousOwner",
          "type": "address"
        },
        {
          "indexed": true,
          "internalType": "address",
          "name": "newOwner",
          "type": "address"
        }
      ],
      "name": "OwnershipTransferred",
      "type": "event"
    },
    {
      "anonymous": false,
      "inputs": [
        {
          "indexed": true,
          "internalType": "address",
          "name": "_from",
          "type": "address"
        },
        {
          "indexed": true,
          "internalType": "address",
          "name": "_to",
          "type": "address"
        },
        {
          "indexed": false,
          "internalType": "uint256",
          "name": "_value",
          "type": "uint256"
        }
      ],
      "name": "Transfer",
      "type": "event"
    },
    {
      "inputs": [],
      "name": "acceptOwnership",
      "outputs": [],
      "stateMutability": "nonpayable",
      "type": "function"
    },
    {
      "inputs": [
        {
          "internalType": "address",
          "name": "",
          "type": "address"
        },
        {
          "internalType": "address",
          "name": "",
          "type": "address"
        }
      ],
      "name": "allowance",
      "outputs": [
        {
          "internalType": "uint256",
          "name": "",
          "type": "uint256"
        }
      ],
      "stateMutability": "view",
      "type": "function"
    },
    {
      "inputs": [
        {
          "internalType": "address",
          "name": "",
          "type": "address"
        }
      ],
      "name": "balanceOf",
      "outputs": [
        {
          "internalType": "uint256",
          "name": "",
          "type": "uint256"
        }
      ],
      "stateMutability": "view",
      "type": "function"
    },
    {
      "inputs": [],
      "name": "cancelOwnershipTransfer",
      "outputs": [],
      "stateMutability": "nonpayable",
      "type": "function"
    },
    {
      "inputs": [],
      "name": "decimals",
      "outputs": [
        {
          "internalType": "uint8",
          "name": "",
          "type": "uint8"
        }
      ],
      "stateMutability": "view",
      "type": "function"
    },
    {
      "inputs": [],
      "name": "factory",
      "outputs": [
        {
          "internalType": "address",
          "name": "",
          "type": "address"
        }
      ],
      "stateMutability": "view",
      "type": "function"
    },
    {
      "inputs": [],
      "name": "isNextOwner",
      "outputs": [
        {
          "internalType": "bool",
          "name": "",
          "type": "bool"
        }
      ],
      "stateMutability": "view",
      "type": "function"
    },
    {
      "inputs": [],
      "name": "isOwner",
      "outputs": [
        {
          "internalType": "bool",
          "name": "",
          "type": "bool"
        }
      ],
      "stateMutability": "view",
      "type": "function"
    },
    {
      "inputs": [],
      "name": "name",
      "outputs": [
        {
          "internalType": "string",
          "name": "",
          "type": "string"
        }
      ],
      "stateMutability": "view",
      "type": "function"
    },
    {
      "inputs": [],
      "name": "owner",
      "outputs": [
        {
          "internalType": "address",
          "name": "",
          "type": "address"
        }
      ],
      "stateMutability": "view",
      "type": "function"
    },
    {
      "inputs": [],
      "name": "renounceOwnership",
      "outputs": [],
      "stateMutability": "nonpayable",
      "type": "function"
    },
    {
      "inputs": [],
      "name": "symbol",
      "outputs": [
        {
          "internalType": "string",
          "name": "",
          "type": "string"
        }
      ],
      "stateMutability": "view",
      "type": "function"
    },
    {
      "inputs": [],
      "name": "totalSupply",
      "outputs": [
        {
          "internalType": "uint256",
          "name": "",
          "type": "uint256"
        }
      ],
      "stateMutability": "view",
      "type": "function"
    },
    {
      "inputs": [
        {
          "internalType": "address",
          "name": "nextOwner_",
          "type": "address"
        }
      ],
      "name": "transferOwnership",
      "outputs": [],
      "stateMutability": "nonpayable",
      "type": "function"
    },
    {
      "inputs": [
        {
          "internalType": "address",
          "name": "owner_",
          "type": "address"
        },
        {
          "internalType": "string",
          "name": "name_",
          "type": "string"
        },
        {
          "internalType": "string",
          "name": "symbol_",
          "type": "string"
        },
        {
          "internalType": "uint256",
          "name": "totalSupply_",
          "type": "uint256"
        },
        {
          "internalType": "uint8",
          "name": "decimals_",
          "type": "uint8"
        }
      ],
      "name": "initialize",
      "outputs": [
        {
          "internalType": "address",
          "name": "",
          "type": "address"
        }
      ],
      "stateMutability": "nonpayable",
      "type": "function"
    },
    {
      "inputs": [
        {
          "internalType": "address",
          "name": "spender",
          "type": "address"
        },
        {
          "internalType": "uint256",
          "name": "value",
          "type": "uint256"
        }
      ],
      "name": "approve",
      "outputs": [
        {
          "internalType": "bool",
          "name": "",
          "type": "bool"
        }
      ],
      "stateMutability": "nonpayable",
      "type": "function"
    },
    {
      "inputs": [
        {
          "internalType": "address",
          "name": "to",
          "type": "address"
        },
        {
          "internalType": "uint256",
          "name": "value",
          "type": "uint256"
        }
      ],
      "name": "transfer",
      "outputs": [
        {
          "internalType": "bool",
          "name": "",
          "type": "bool"
        }
      ],
      "stateMutability": "nonpayable",
      "type": "function"
    },
    {
      "inputs": [
        {
          "internalType": "address",
          "name": "from",
          "type": "address"
        },
        {
          "internalType": "address",
          "name": "to",
          "type": "address"
        },
        {
          "internalType": "uint256",
          "name": "value",
          "type": "uint256"
        }
      ],
      "name": "transferFrom",
      "outputs": [
        {
          "internalType": "bool",
          "name": "",
          "type": "bool"
        }
      ],
      "stateMutability": "nonpayable",
      "type": "function"
    },
    {
      "inputs": [
        {
          "internalType": "address",
          "name": "to",
          "type": "address"
        },
        {
          "internalType": "uint256",
          "name": "value",
          "type": "uint256"
        }
      ],
      "name": "mint",
      "outputs": [],
      "stateMutability": "nonpayable",
      "type": "function"
    }
  ],
  "bytecode": "0x60a060405234801562000010575f80fd5b5060405162001d9e38038062001d9e833981810160405281019062000036919062000190565b5f805f806101000a81548173ffffffffffffffffffffffffffffffffffffffff021916908373ffffffffffffffffffffffffffffffffffffffff1602179055505f8054906101000a900473ffffffffffffffffffffffffffffffffffffffff1673ffffffffffffffffffffffffffffffffffffffff165f73ffffffffffffffffffffffffffffffffffffffff167f8be0079c531659141344cd1fd0a4f28419497f9722a3daafe3b4186f6b6457e060405160405180910390a3508073ffffffffffffffffffffffffffffffffffffffff1660808173ffffffffffffffffffffffffffffffffffffffff168152505050620001c0565b5f80fd5b5f73ffffffffffffffffffffffffffffffffffffffff82169050919050565b5f6200015a826200012f565b9050919050565b6200016c816200014e565b811462000177575f80fd5b50565b5f815190506200018a8162000161565b92915050565b5f60208284031215620001a857620001a76200012b565b5b5f620001b7848285016200017a565b91505092915050565b608051611bbe620001e05f395f818161064d01526109da0152611bbe5ff3fe608060405234801561000f575f80fd5b506004361061011f575f3560e01c8063715018a6116100ab578063a9059cbb1161006f578063a9059cbb146102d1578063c45a015514610301578063dd62ed3e1461031f578063ed459df21461034f578063f2fde38b1461036d5761011f565b8063715018a61461026357806379ba50971461026d5780638da5cb5b146102775780638f32d59b1461029557806395d89b41146102b35761011f565b806323b872dd116100f257806323b872dd14610199578063313ce567146101c957806340c10f19146101e75780634fd35acb1461020357806370a08231146102335761011f565b806306fdde0314610123578063095ea7b31461014157806318160ddd1461017157806323452b9c1461018f575b5f80fd5b61012b610389565b60405161013891906110ff565b60405180910390f35b61015b600480360381019061015691906111bd565b610415565b6040516101689190611215565b60405180910390f35b61017961042b565b604051610186919061123d565b60405180910390f35b610197610431565b005b6101b360048036038101906101ae9190611256565b61049e565b6040516101c09190611215565b60405180910390f35b6101d16105e3565b6040516101de91906112c1565b60405180910390f35b61020160048036038101906101fc91906111bd565b6105f5565b005b61021d60048036038101906102189190611430565b61064a565b60405161022a91906114ee565b60405180910390f35b61024d60048036038101906102489190611507565b610733565b60405161025a919061123d565b60405180910390f35b61026b610748565b005b610275610799565b005b61027f6108be565b60405161028c91906114ee565b60405180910390f35b61029d6108e1565b6040516102aa9190611215565b60405180910390f35b6102bb610936565b6040516102c891906110ff565b60405180910390f35b6102eb60048036038101906102e691906111bd565b6109c2565b6040516102f89190611215565b60405180910390f35b6103096109d8565b60405161031691906114ee565b60405180910390f35b61033960048036038101906103349190611532565b6109fc565b604051610346919061123d565b60405180910390f35b610357610a1c565b6040516103649190611215565b60405180910390f35b61038760048036038101906103829190611507565b610a72565b005b600380546103969061159d565b80601f01602080910402602001604051908101604052809291908181526020018280546103c29061159d565b801561040d5780601f106103e45761010080835404028352916020019161040d565b820191905f5260205f20905b8154815290600101906020018083116103f057829003601f168201915b505050505081565b5f610421338484610b6a565b6001905092915050565b60025481565b6104396108e1565b610478576040517f08c379a000000000000000000000000000000000000000000000000000000000815260040161046f90611617565b60405180910390fd5b60015f6101000a81549073ffffffffffffffffffffffffffffffffffffffff0219169055565b5f7fffffffffffffffffffffffffffffffffffffffffffffffffffffffffffffffff60075f8673ffffffffffffffffffffffffffffffffffffffff1673ffffffffffffffffffffffffffffffffffffffff1681526020019081526020015f205f3373ffffffffffffffffffffffffffffffffffffffff1673ffffffffffffffffffffffffffffffffffffffff1681526020019081526020015f2054146105cd578160075f8673ffffffffffffffffffffffffffffffffffffffff1673ffffffffffffffffffffffffffffffffffffffff1681526020019081526020015f205f3373ffffffffffffffffffffffffffffffffffffffff1673ffffffffffffffffffffffffffffffffffffffff1681526020019081526020015f205f8282546105c59190611662565b925050819055505b6105d8848484610c51565b600190509392505050565b60055f9054906101000a900460ff1681565b6105fd6108e1565b61063c576040517f08c379a000000000000000000000000000000000000000000000000000000000815260040161063390611617565b60405180910390fd5b6106468282610dc6565b5050565b5f7f000000000000000000000000000000000000000000000000000000000000000073ffffffffffffffffffffffffffffffffffffffff163373ffffffffffffffffffffffffffffffffffffffff16146106d9576040517f08c379a00000000000000000000000000000000000000000000000000000000081526004016106d0906116df565b60405180910390fd5b6106e35f87610eff565b84600390816106f2919061189a565b508360049081610702919061189a565b508160055f6101000a81548160ff021916908360ff1602179055506107278684610dc6565b30905095945050505050565b6006602052805f5260405f205f915090505481565b6107506108e1565b61078f576040517f08c379a000000000000000000000000000000000000000000000000000000000815260040161078690611617565b60405180910390fd5b610797610fbb565b565b6107a1610a1c565b6107e0576040517f08c379a00000000000000000000000000000000000000000000000000000000081526004016107d7906119d9565b60405180910390fd5b60015f6101000a81549073ffffffffffffffffffffffffffffffffffffffff0219169055335f806101000a81548173ffffffffffffffffffffffffffffffffffffffff021916908373ffffffffffffffffffffffffffffffffffffffff1602179055503373ffffffffffffffffffffffffffffffffffffffff165f8054906101000a900473ffffffffffffffffffffffffffffffffffffffff1673ffffffffffffffffffffffffffffffffffffffff167f8be0079c531659141344cd1fd0a4f28419497f9722a3daafe3b4186f6b6457e060405160405180910390a3565b5f8054906101000a900473ffffffffffffffffffffffffffffffffffffffff1681565b5f805f9054906101000a900473ffffffffffffffffffffffffffffffffffffffff1673ffffffffffffffffffffffffffffffffffffffff163373ffffffffffffffffffffffffffffffffffffffff1614905090565b600480546109439061159d565b80601f016020809104026020016040519081016040528092919081815260200182805461096f9061159d565b80156109ba5780601f10610991576101008083540402835291602001916109ba565b820191905f5260205f20905b81548152906001019060200180831161099d57829003601f168201915b505050505081565b5f6109ce338484610c51565b6001905092915050565b7f000000000000000000000000000000000000000000000000000000000000000081565b6007602052815f5260405f20602052805f5260405f205f91509150505481565b5f60015f9054906101000a900473ffffffffffffffffffffffffffffffffffffffff1673ffffffffffffffffffffffffffffffffffffffff163373ffffffffffffffffffffffffffffffffffffffff1614905090565b610a7a6108e1565b610ab9576040517f08c379a0000000000000000000000000000000000000000000000000000000008152600401610ab090611617565b60405180910390fd5b5f73ffffffffffffffffffffffffffffffffffffffff168173ffffffffffffffffffffffffffffffffffffffff1603610b27576040517f08c379a0000000000000000000000000000000000000000000000000000000008152600401610b1e90611a41565b60405180910390fd5b8060015f6101000a81548173ffffffffffffffffffffffffffffffffffffffff021916908373ffffffffffffffffffffffffffffffffffffffff16021790555050565b8060075f8573ffffffffffffffffffffffffffffffffffffffff1673ffffffffffffffffffffffffffffffffffffffff1681526020019081526020015f205f8473ffffffffffffffffffffffffffffffffffffffff1673ffffffffffffffffffffffffffffffffffffffff1681526020019081526020015f20819055508173ffffffffffffffffffffffffffffffffffffffff168373ffffffffffffffffffffffffffffffffffffffff167f8c5be1e5ebec7d5bd14f71427d1e84f3dd0314c0f7b2291e5b200ac8c7c3b92583604051610c44919061123d565b60405180910390a3505050565b5f73ffffffffffffffffffffffffffffffffffffffff168273ffffffffffffffffffffffffffffffffffffffff1603610cbf576040517f08c379a0000000000000000000000000000000000000000000000000000000008152600401610cb690611acf565b60405180910390fd5b8060065f8573ffffffffffffffffffffffffffffffffffffffff1673ffffffffffffffffffffffffffffffffffffffff1681526020019081526020015f205f828254610d0b9190611662565b925050819055508060065f8473ffffffffffffffffffffffffffffffffffffffff1673ffffffffffffffffffffffffffffffffffffffff1681526020019081526020015f205f82825401925050819055508173ffffffffffffffffffffffffffffffffffffffff168373ffffffffffffffffffffffffffffffffffffffff167fddf252ad1be2c89b69c2b068fc378daa952ba7f163c4a11628f55a4df523b3ef83604051610db9919061123d565b60405180910390a3505050565b5f73ffffffffffffffffffffffffffffffffffffffff168273ffffffffffffffffffffffffffffffffffffffff1603610e34576040517f08c379a0000000000000000000000000000000000000000000000000000000008152600401610e2b90611b37565b60405180910390fd5b8060025f828254610e459190611b55565b925050819055508060065f8473ffffffffffffffffffffffffffffffffffffffff1673ffffffffffffffffffffffffffffffffffffffff1681526020019081526020015f205f82825401925050819055508173ffffffffffffffffffffffffffffffffffffffff165f73ffffffffffffffffffffffffffffffffffffffff167fddf252ad1be2c89b69c2b068fc378daa952ba7f163c4a11628f55a4df523b3ef83604051610ef3919061123d565b60405180910390a35050565b805f806101000a81548173ffffffffffffffffffffffffffffffffffffffff021916908373ffffffffffffffffffffffffffffffffffffffff1602179055505f8054906101000a900473ffffffffffffffffffffffffffffffffffffffff1673ffffffffffffffffffffffffffffffffffffffff168273ffffffffffffffffffffffffffffffffffffffff167f8be0079c531659141344cd1fd0a4f28419497f9722a3daafe3b4186f6b6457e060405160405180910390a35050565b5f73ffffffffffffffffffffffffffffffffffffffff165f8054906101000a900473ffffffffffffffffffffffffffffffffffffffff1673ffffffffffffffffffffffffffffffffffffffff167f8be0079c531659141344cd1fd0a4f28419497f9722a3daafe3b4186f6b6457e060405160405180910390a35f805f6101000a81548173ffffffffffffffffffffffffffffffffffffffff021916908373ffffffffffffffffffffffffffffffffffffffff160217905550565b5f81519050919050565b5f82825260208201905092915050565b5f5b838110156110ac578082015181840152602081019050611091565b5f8484015250505050565b5f601f19601f8301169050919050565b5f6110d182611075565b6110db818561107f565b93506110eb81856020860161108f565b6110f4816110b7565b840191505092915050565b5f6020820190508181035f83015261111781846110c7565b905092915050565b5f604051905090565b5f80fd5b5f80fd5b5f73ffffffffffffffffffffffffffffffffffffffff82169050919050565b5f61115982611130565b9050919050565b6111698161114f565b8114611173575f80fd5b50565b5f8135905061118481611160565b92915050565b5f819050919050565b61119c8161118a565b81146111a6575f80fd5b50565b5f813590506111b781611193565b92915050565b5f80604083850312156111d3576111d2611128565b5b5f6111e085828601611176565b92505060206111f1858286016111a9565b9150509250929050565b5f8115159050919050565b61120f816111fb565b82525050565b5f6020820190506112285f830184611206565b92915050565b6112378161118a565b82525050565b5f6020820190506112505f83018461122e565b92915050565b5f805f6060848603121561126d5761126c611128565b5b5f61127a86828701611176565b935050602061128b86828701611176565b925050604061129c868287016111a9565b9150509250925092565b5f60ff82169050919050565b6112bb816112a6565b82525050565b5f6020820190506112d45f8301846112b2565b92915050565b5f80fd5b5f80fd5b7f4e487b71000000000000000000000000000000000000000000000000000000005f52604160045260245ffd5b611318826110b7565b810181811067ffffffffffffffff82111715611337576113366112e2565b5b80604052505050565b5f61134961111f565b9050611355828261130f565b919050565b5f67ffffffffffffffff821115611374576113736112e2565b5b61137d826110b7565b9050602081019050919050565b828183375f83830152505050565b5f6113aa6113a58461135a565b611340565b9050828152602081018484840111156113c6576113c56112de565b5b6113d184828561138a565b509392505050565b5f82601f8301126113ed576113ec6112da565b5b81356113fd848260208601611398565b91505092915050565b61140f816112a6565b8114611419575f80fd5b50565b5f8135905061142a81611406565b92915050565b5f805f805f60a0868803121561144957611448611128565b5b5f61145688828901611176565b955050602086013567ffffffffffffffff8111156114775761147661112c565b5b611483888289016113d9565b945050604086013567ffffffffffffffff8111156114a4576114a361112c565b5b6114b0888289016113d9565b93505060606114c1888289016111a9565b92505060806114d28882890161141c565b9150509295509295909350565b6114e88161114f565b82525050565b5f6020820190506115015f8301846114df565b92915050565b5f6020828403121561151c5761151b611128565b5b5f61152984828501611176565b91505092915050565b5f806040838503121561154857611547611128565b5b5f61155585828601611176565b925050602061156685828601611176565b9150509250929050565b7f4e487b71000000000000000000000000000000000000000000000000000000005f52602260045260245ffd5b5f60028204905060018216806115b457607f821691505b6020821081036115c7576115c6611570565b5b50919050565b7f63616c6c6572206973206e6f7420746865206f776e65722e00000000000000005f82015250565b5f61160160188361107f565b915061160c826115cd565b602082019050919050565b5f6020820190508181035f83015261162e816115f5565b9050919050565b7f4e487b71000000000000000000000000000000000000000000000000000000005f52601160045260245ffd5b5f61166c8261118a565b91506116778361118a565b925082820390508181111561168f5761168e611635565b5b92915050565b7f756e617574686f72697a65642063616c6c6572000000000000000000000000005f82015250565b5f6116c960138361107f565b91506116d482611695565b602082019050919050565b5f6020820190508181035f8301526116f6816116bd565b9050919050565b5f819050815f5260205f209050919050565b5f6020601f8301049050919050565b5f82821b905092915050565b5f600883026117597fffffffffffffffffffffffffffffffffffffffffffffffffffffffffffffffff8261171e565b611763868361171e565b95508019841693508086168417925050509392505050565b5f819050919050565b5f61179e6117996117948461118a565b61177b565b61118a565b9050919050565b5f819050919050565b6117b783611784565b6117cb6117c3826117a5565b84845461172a565b825550505050565b5f90565b6117df6117d3565b6117ea8184846117ae565b505050565b5b8181101561180d576118025f826117d7565b6001810190506117f0565b5050565b601f82111561185257611823816116fd565b61182c8461170f565b8101602085101561183b578190505b61184f6118478561170f565b8301826117ef565b50505b505050565b5f82821c905092915050565b5f6118725f1984600802611857565b1980831691505092915050565b5f61188a8383611863565b9150826002028217905092915050565b6118a382611075565b67ffffffffffffffff8111156118bc576118bb6112e2565b5b6118c6825461159d565b6118d1828285611811565b5f60209050601f831160018114611902575f84156118f0578287015190505b6118fa858261187f565b865550611961565b601f198416611910866116fd565b5f5b8281101561193757848901518255600182019150602085019450602081019050611912565b868310156119545784890151611950601f891682611863565b8355505b6001600288020188555050505b505050505050565b7f63757272656e74206f776e6572206d757374207365742063616c6c65722061735f8201527f206e657874206f776e65722e0000000000000000000000000000000000000000602082015250565b5f6119c3602c8361107f565b91506119ce82611969565b604082019050919050565b5f6020820190508181035f8301526119f0816119b7565b9050919050565b7f4e657874206f776e657220697320746865207a65726f20616464726573732e005f82015250565b5f611a2b601f8361107f565b9150611a36826119f7565b602082019050919050565b5f6020820190508181035f830152611a5881611a1f565b9050919050565b7f45524332303a207472616e7366657220746f20746865207a65726f20616464725f8201527f6573730000000000000000000000000000000000000000000000000000000000602082015250565b5f611ab960238361107f565b9150611ac482611a5f565b604082019050919050565b5f6020820190508181035f830152611ae681611aad565b9050919050565b7f45524332303a206d696e7420746f20746865207a65726f2061646472657373005f82015250565b5f611b21601f8361107f565b9150611b2c82611aed565b602082019050919050565b5f6020820190508181035f830152611b4e81611b15565b9050919050565b5f611b5f8261118a565b9150611b6a8361118a565b9250828201905080821115611b8257611b81611635565b5b9291505056fea2646970667358221220d84e3a08e7adae669201c850bc31e17d983bab2c2ec790292e6a1d0bb7eab02564736f6c63430008150033",
  "immutableReferences": {
    "3145": [
      {
        "length": 32,
        "start": 1613
      },
      {
        "length": 32,
        "start": 2522
      }
    ]
  },
  "source": "// SPDX-License-Identifier: MIT\n// pragma solidity =0.8.17;\npragma solidity ^0.8.0;\n\nimport {Ownable} from \"./lib/Ownable.sol\";\nimport {IERC20Events, IERC20} from \"./interface/IERC20.sol\";\n\n/**\n * @title ERC20\n * @dev ERC20 Implementation\n */\ncontract ERC20Impl is Ownable, IERC20, IERC20Events {\n    /// @notice Token total supply\n    uint256 public override totalSupply;\n\n    /// @notice Token name\n    string public override name;\n\n    /// @notice Token symbol\n    string public override symbol;\n\n    /// @notice Token decimals\n    uint8 public override decimals;\n\n    /// @notice Token balance\n    mapping(address => uint256) public override balanceOf;\n\n    /// @notice Token allowance\n    mapping(address => mapping(address => uint256)) public override allowance;\n\n    /// @notice Factory that deploys clones (we use one erc20 implementation for all clones)\n    address public immutable factory;\n\n    /// @dev Ownable parameter is irrelevant since this is a logic contract and deployed once.\n    constructor(address factory_) Ownable(address(0)) {\n        factory = factory_;\n    }\n\n    /// @notice Set initial parameters, mint initial supply to owner and set the owner.\n    /// @dev Only callable by the factory\n    /// @param owner_ The owner of the token contract\n    /// @param name_ The name of the token\n    /// @param symbol_ The symbol of the token\n    /// @param totalSupply_ The totalSupply of the token\n    /// @param decimals_ The decimals of the token\n    function initialize(\n        address owner_,\n        string memory name_,\n        string memory symbol_,\n        uint256 totalSupply_,\n        uint8 decimals_\n    ) external override returns (address) {\n        // ensure that this function is only callable by the factory\n        require(msg.sender == factory, \"unauthorized caller\");\n\n        // set owner\n        _setOwner(address(0), owner_);\n\n        // set metadata\n        name = name_;\n        symbol = symbol_;\n        decimals = decimals_;\n\n        // mint initial supply\n        _mint(owner_, totalSupply_);\n\n        return address(this);\n    }\n\n    // ============ ERC-20 Methods ============\n\n    /// @notice Approve `spender` to transfer up to `value` from `msg.sender`\n    /// @dev This will overwrite the approval value for `spender`\n    ///  and is subject to issues noted [here](https://eips.ethereum.org/EIPS/eip-20#approve)\n    /// @param spender The address of the account which may transfer tokens\n    /// @param value The number of tokens that are approved\n    /// @return Whether or not the approval succeeded\n    function approve(\n        address spender,\n        uint256 value\n    ) external override returns (bool) {\n        _approve(msg.sender, spender, value);\n\n        return true;\n    }\n\n    /// @notice Transfer `value` tokens from `msg.sender` to `to`\n    /// @param to The address of the destination account\n    /// @param value The number of tokens to transfer\n    /// @return Whether or not the transfer succeeded\n    function transfer(\n        address to,\n        uint256 value\n    ) external override returns (bool) {\n        _transfer(msg.sender, to, value);\n\n        return true;\n    }\n\n    /// @notice Transfer `value` tokens from `from` to `to`\n    /// @param from The address of the source account\n    /// @param to The address of the destination account\n    /// @param value The number of tokens to transfer\n    /// @return Whether or not the transfer succeeded\n    function transferFrom(\n        address from,\n        address to,\n        uint256 value\n    ) external override returns (bool) {\n        if (allowance[from][msg.sender] != type(uint256).max) {\n            allowance[from][msg.sender] -= value;\n        }\n\n        _transfer(from, to, value);\n\n        return true;\n    }\n\n    /// @notice Mint `value` tokens to `to`\n    /// @dev Only callable by the owner, throws otherwise\n    /// @param to The account to mint tokens to\n    /// @param value The number of tokens to mint\n    function mint(address to, uint256 value) external override onlyOwner {\n        _mint(to, value);\n    }\n\n    // ============ Internal Methods ============\n\n    function _transfer(address from, address to, uint256 value) internal {\n        require(to != address(0), \"ERC20: transfer to the zero address\");\n\n        balanceOf[from] -= value;\n\n        // Cannot overflow because the sum of all user\n        // balances can't exceed the max uint256 value.\n        unchecked {\n            balanceOf[to] += value;\n        }\n\n        emit Transfer(from, to, value);\n    }\n\n    function _mint(address to, uint256 value) internal {\n        require(to != address(0), \"ERC20: mint to the zero address\");\n\n        totalSupply += value;\n\n        // Cannot overflow because the sum of all user\n        // balances can't exceed the max uint256 value.\n        unchecked {\n            balanceOf[to] += value;\n        }\n\n        emit Transfer(address(0), to, value);\n    }\n\n    function _approve(address _owner, address spender, uint256 value) internal {\n        allowance[_owner][spender] = value;\n\n        emit Approval(_owner, spender, value);\n    }\n}\n",
  "sourcePath": "/Users/lbd/Downloads/MXC LLC/work/token-airdrop-x2e/token-airdrop-x2e-2/contracts/contracts/ERC20Impl.sol",
  "compiler": {
    "name": "solc",
    "version": "0.8.21+commit.d9974bed.Emscripten.clang"
  },
  "schemaVersion": "3.4.16",
  "updatedAt": "2024-04-05T20:38:50.604Z",
  "devdoc": {
    "details": "ERC20 Implementation",
    "kind": "dev",
    "methods": {
      "acceptOwnership()": {
        "details": "Accepts ownership transfer by setting owner."
      },
      "approve(address,uint256)": {
        "details": "This will overwrite the approval value for `spender`  and is subject to issues noted [here](https://eips.ethereum.org/EIPS/eip-20#approve)",
        "params": {
          "spender": "The address of the account which may transfer tokens",
          "value": "The number of tokens that are approved"
        },
        "returns": {
          "_0": "Whether or not the approval succeeded"
        }
      },
      "cancelOwnershipTransfer()": {
        "details": "Cancel ownership transfer by deleting nextOwner."
      },
      "constructor": {
        "details": "Ownable parameter is irrelevant since this is a logic contract and deployed once."
      },
      "initialize(address,string,string,uint256,uint8)": {
        "details": "Only callable by the factory",
        "params": {
          "decimals_": "The decimals of the token",
          "name_": "The name of the token",
          "owner_": "The owner of the token contract",
          "symbol_": "The symbol of the token",
          "totalSupply_": "The totalSupply of the token"
        }
      },
      "isNextOwner()": {
        "details": "Returns true if the caller is the next owner."
      },
      "isOwner()": {
        "details": "Returns true if the caller is the current owner."
      },
      "mint(address,uint256)": {
        "details": "Only callable by the owner, throws otherwise",
        "params": {
          "to": "The account to mint tokens to",
          "value": "The number of tokens to mint"
        }
      },
      "renounceOwnership()": {
        "details": "Renounce ownership by setting owner to zero address."
      },
      "transfer(address,uint256)": {
        "params": {
          "to": "The address of the destination account",
          "value": "The number of tokens to transfer"
        },
        "returns": {
          "_0": "Whether or not the transfer succeeded"
        }
      },
      "transferFrom(address,address,uint256)": {
        "params": {
          "from": "The address of the source account",
          "to": "The address of the destination account",
          "value": "The number of tokens to transfer"
        },
        "returns": {
          "_0": "Whether or not the transfer succeeded"
        }
      },
      "transferOwnership(address)": {
        "details": "Initiate ownership transfer by setting nextOwner."
      }
    },
    "title": "ERC20",
    "version": 1
  },
  "userdoc": {
    "events": {
      "Approval(address,address,uint256)": {
        "notice": "approval event"
      },
      "Transfer(address,address,uint256)": {
        "notice": "transfer event"
      }
    },
    "kind": "user",
    "methods": {
      "allowance(address,address)": {
        "notice": "Token allowance"
      },
      "approve(address,uint256)": {
        "notice": "Approve `spender` to transfer up to `value` from `msg.sender`"
      },
      "balanceOf(address)": {
        "notice": "Token balance"
      },
      "decimals()": {
        "notice": "Token decimals"
      },
      "factory()": {
        "notice": "Factory that deploys clones (we use one erc20 implementation for all clones)"
      },
      "initialize(address,string,string,uint256,uint8)": {
        "notice": "Set initial parameters, mint initial supply to owner and set the owner."
      },
      "mint(address,uint256)": {
        "notice": "Mint `value` tokens to `to`"
      },
      "name()": {
        "notice": "Token name"
      },
      "symbol()": {
        "notice": "Token symbol"
      },
      "totalSupply()": {
        "notice": "Token total supply"
      },
      "transfer(address,uint256)": {
        "notice": "Transfer `value` tokens from `msg.sender` to `to`"
      },
      "transferFrom(address,address,uint256)": {
        "notice": "Transfer `value` tokens from `from` to `to`"
      }
    },
    "version": 1
  }
}