{
  "contractName": "ERC20Factory",
  "abi": [
    {
      "inputs": [],
      "stateMutability": "nonpayable",
      "type": "constructor"
    },
    {
      "anonymous": false,
      "inputs": [
        {
          "indexed": true,
          "internalType": "address",
          "name": "_owner",
          "type": "address"
        },
        {
          "indexed": true,
          "internalType": "address",
          "name": "_spender",
          "type": "address"
        },
        {
          "indexed": false,
          "internalType": "uint256",
          "name": "_value",
          "type": "uint256"
        }
      ],
      "name": "Approval",
      "type": "event"
    },
    {
      "anonymous": false,
      "inputs": [
        {
          "indexed": false,
          "internalType": "address",
          "name": "clone",
          "type": "address"
        },
        {
          "indexed": false,
          "internalType": "string",
          "name": "name",
          "type": "string"
        },
        {
          "indexed": false,
          "internalType": "string",
          "name": "symbol",
          "type": "string"
        },
        {
          "indexed": false,
          "internalType": "address",
          "name": "operator",
          "type": "address"
        }
      ],
      "name": "ERC20Deployed",
      "type": "event"
    },
    {
      "anonymous": false,
      "inputs": [
        {
          "indexed": true,
          "internalType": "address",
          "name": "previousOwner",
          "type": "address"
        },
        {
          "indexed": true,
          "internalType": "address",
          "name": "newOwner",
          "type": "address"
        }
      ],
      "name": "OwnershipTransferred",
      "type": "event"
    },
    {
      "anonymous": false,
      "inputs": [
        {
          "indexed": true,
          "internalType": "address",
          "name": "_from",
          "type": "address"
        },
        {
          "indexed": true,
          "internalType": "address",
          "name": "_to",
          "type": "address"
        },
        {
          "indexed": false,
          "internalType": "uint256",
          "name": "_value",
          "type": "uint256"
        }
      ],
      "name": "Transfer",
      "type": "event"
    },
    {
      "inputs": [
        {
          "internalType": "address",
          "name": "",
          "type": "address"
        },
        {
          "internalType": "uint256",
          "name": "",
          "type": "uint256"
        }
      ],
      "name": "erc20s",
      "outputs": [
        {
          "internalType": "address",
          "name": "",
          "type": "address"
        }
      ],
      "stateMutability": "view",
      "type": "function"
    },
    {
      "inputs": [],
      "name": "implementation",
      "outputs": [
        {
          "internalType": "address",
          "name": "",
          "type": "address"
        }
      ],
      "stateMutability": "view",
      "type": "function"
    },
    {
      "inputs": [
        {
          "internalType": "address",
          "name": "owner",
          "type": "address"
        },
        {
          "internalType": "string",
          "name": "name_",
          "type": "string"
        },
        {
          "internalType": "string",
          "name": "symbol_",
          "type": "string"
        },
        {
          "internalType": "uint256",
          "name": "totalSupply_",
          "type": "uint256"
        },
        {
          "internalType": "uint8",
          "name": "decimals_",
          "type": "uint8"
        }
      ],
      "name": "create",
      "outputs": [
        {
          "internalType": "address",
          "name": "erc20Clone",
          "type": "address"
        }
      ],
      "stateMutability": "nonpayable",
      "type": "function"
    },
    {
      "inputs": [
        {
          "internalType": "address",
          "name": "owner",
          "type": "address"
        }
      ],
      "name": "getERC20s",
      "outputs": [
        {
          "internalType": "address[]",
          "name": "",
          "type": "address[]"
        }
      ],
      "stateMutability": "view",
      "type": "function"
    },
    {
      "inputs": [
        {
          "internalType": "address",
          "name": "implementation_",
          "type": "address"
        },
        {
          "internalType": "bytes32",
          "name": "salt",
          "type": "bytes32"
        }
      ],
      "name": "predictDeterministicAddress",
      "outputs": [
        {
          "internalType": "address",
          "name": "",
          "type": "address"
        }
      ],
      "stateMutability": "view",
      "type": "function"
    }
  ],
  "bytecode": "0x60a060405234801561000f575f80fd5b503060405161001d90610079565b61002791906100c5565b604051809103905ff080158015610040573d5f803e3d5ffd5b5073ffffffffffffffffffffffffffffffffffffffff1660808173ffffffffffffffffffffffffffffffffffffffff16815250506100de565b611d9e80610d0d83390190565b5f73ffffffffffffffffffffffffffffffffffffffff82169050919050565b5f6100af82610086565b9050919050565b6100bf816100a5565b82525050565b5f6020820190506100d85f8301846100b6565b92915050565b608051610c106100fd5f395f818161021901526102880152610c105ff3fe608060405234801561000f575f80fd5b5060043610610055575f3560e01c806315c40a3614610059578063360d0fad146100895780635c60da1b146100b95780636366aa6d146100d7578063696f33e114610107575b5f80fd5b610073600480360381019061006e91906105ac565b610137565b604051610080919061068e565b60405180910390f35b6100a3600480360381019061009e91906106e1565b610203565b6040516100b0919061072e565b60405180910390f35b6100c1610217565b6040516100ce919061072e565b60405180910390f35b6100f160048036038101906100ec919061077a565b61023b565b6040516100fe919061072e565b60405180910390f35b610121600480360381019061011c919061092a565b610282565b60405161012e919061072e565b60405180910390f35b60605f805f8473ffffffffffffffffffffffffffffffffffffffff1673ffffffffffffffffffffffffffffffffffffffff1681526020019081526020015f208054806020026020016040519081016040528092919081815260200182805480156101f357602002820191905f5260205f20905b815f9054906101000a900473ffffffffffffffffffffffffffffffffffffffff1673ffffffffffffffffffffffffffffffffffffffff16815260200190600101908083116101aa575b5050505050905080915050919050565b5f61020f838330610429565b905092915050565b7f000000000000000000000000000000000000000000000000000000000000000081565b5f602052815f5260405f208181548110610253575f80fd5b905f5260205f20015f915091509054906101000a900473ffffffffffffffffffffffffffffffffffffffff1681565b5f6102d97f0000000000000000000000000000000000000000000000000000000000000000878787876040516020016102be9493929190610a62565b60405160208183030381529060405280519060200120610489565b90508073ffffffffffffffffffffffffffffffffffffffff16634fd35acb87878787876040518663ffffffff1660e01b815260040161031c959493929190610ac2565b5f604051808303815f87803b158015610333575f80fd5b505af1158015610345573d5f803e3d5ffd5b505050505f808773ffffffffffffffffffffffffffffffffffffffff1673ffffffffffffffffffffffffffffffffffffffff1681526020019081526020015f2081908060018154018082558091505060019003905f5260205f20015f9091909190916101000a81548173ffffffffffffffffffffffffffffffffffffffff021916908373ffffffffffffffffffffffffffffffffffffffff1602179055507f7513f51c4585e1b3b02ac38c4ad53c34e2fc86e1727e8c83fad1bbae772911a4818686896040516104189493929190610b21565b60405180910390a195945050505050565b5f6040518260388201526f5af43d82803e903d91602b57fd5bf3ff6024820152846014820152733d602d80600a3d3981f3363d3d373d3d3d363d7381528360588201526037600c8201206078820152605560438201209150509392505050565b5f763d602d80600a3d3981f3363d3d373d3d3d363d730000008360601b60e81c175f526e5af43d82803e903d91602b57fd5bf38360781b1760205281603760095ff590505f73ffffffffffffffffffffffffffffffffffffffff168173ffffffffffffffffffffffffffffffffffffffff160361053b576040517f08c379a000000000000000000000000000000000000000000000000000000000815260040161053290610bbc565b60405180910390fd5b92915050565b5f604051905090565b5f80fd5b5f80fd5b5f73ffffffffffffffffffffffffffffffffffffffff82169050919050565b5f61057b82610552565b9050919050565b61058b81610571565b8114610595575f80fd5b50565b5f813590506105a681610582565b92915050565b5f602082840312156105c1576105c061054a565b5b5f6105ce84828501610598565b91505092915050565b5f81519050919050565b5f82825260208201905092915050565b5f819050602082019050919050565b61060981610571565b82525050565b5f61061a8383610600565b60208301905092915050565b5f602082019050919050565b5f61063c826105d7565b61064681856105e1565b9350610651836105f1565b805f5b83811015610681578151610668888261060f565b975061067383610626565b925050600181019050610654565b5085935050505092915050565b5f6020820190508181035f8301526106a68184610632565b905092915050565b5f819050919050565b6106c0816106ae565b81146106ca575f80fd5b50565b5f813590506106db816106b7565b92915050565b5f80604083850312156106f7576106f661054a565b5b5f61070485828601610598565b9250506020610715858286016106cd565b9150509250929050565b61072881610571565b82525050565b5f6020820190506107415f83018461071f565b92915050565b5f819050919050565b61075981610747565b8114610763575f80fd5b50565b5f8135905061077481610750565b92915050565b5f80604083850312156107905761078f61054a565b5b5f61079d85828601610598565b92505060206107ae85828601610766565b9150509250929050565b5f80fd5b5f80fd5b5f601f19601f8301169050919050565b7f4e487b71000000000000000000000000000000000000000000000000000000005f52604160045260245ffd5b610806826107c0565b810181811067ffffffffffffffff82111715610825576108246107d0565b5b80604052505050565b5f610837610541565b905061084382826107fd565b919050565b5f67ffffffffffffffff821115610862576108616107d0565b5b61086b826107c0565b9050602081019050919050565b828183375f83830152505050565b5f61089861089384610848565b61082e565b9050828152602081018484840111156108b4576108b36107bc565b5b6108bf848285610878565b509392505050565b5f82601f8301126108db576108da6107b8565b5b81356108eb848260208601610886565b91505092915050565b5f60ff82169050919050565b610909816108f4565b8114610913575f80fd5b50565b5f8135905061092481610900565b92915050565b5f805f805f60a086880312156109435761094261054a565b5b5f61095088828901610598565b955050602086013567ffffffffffffffff8111156109715761097061054e565b5b61097d888289016108c7565b945050604086013567ffffffffffffffff81111561099e5761099d61054e565b5b6109aa888289016108c7565b93505060606109bb88828901610766565b92505060806109cc88828901610916565b9150509295509295909350565b5f81519050919050565b5f82825260208201905092915050565b5f5b83811015610a105780820151818401526020810190506109f5565b5f8484015250505050565b5f610a25826109d9565b610a2f81856109e3565b9350610a3f8185602086016109f3565b610a48816107c0565b840191505092915050565b610a5c81610747565b82525050565b5f608082019050610a755f83018761071f565b8181036020830152610a878186610a1b565b90508181036040830152610a9b8185610a1b565b9050610aaa6060830184610a53565b95945050505050565b610abc816108f4565b82525050565b5f60a082019050610ad55f83018861071f565b8181036020830152610ae78187610a1b565b90508181036040830152610afb8186610a1b565b9050610b0a6060830185610a53565b610b176080830184610ab3565b9695505050505050565b5f608082019050610b345f83018761071f565b8181036020830152610b468186610a1b565b90508181036040830152610b5a8185610a1b565b9050610b69606083018461071f565b95945050505050565b7f455243313136373a2063726561746532206661696c65640000000000000000005f82015250565b5f610ba66017836109e3565b9150610bb182610b72565b602082019050919050565b5f6020820190508181035f830152610bd381610b9a565b905091905056fea26469706673582212205832ffae511489d66a4f80880996d6b4fc1e11f7aa2fe22bc95adf324a3ef64a64736f6c6343000815003360a060405234801562000010575f80fd5b5060405162001d9e38038062001d9e833981810160405281019062000036919062000190565b5f805f806101000a81548173ffffffffffffffffffffffffffffffffffffffff021916908373ffffffffffffffffffffffffffffffffffffffff1602179055505f8054906101000a900473ffffffffffffffffffffffffffffffffffffffff1673ffffffffffffffffffffffffffffffffffffffff165f73ffffffffffffffffffffffffffffffffffffffff167f8be0079c531659141344cd1fd0a4f28419497f9722a3daafe3b4186f6b6457e060405160405180910390a3508073ffffffffffffffffffffffffffffffffffffffff1660808173ffffffffffffffffffffffffffffffffffffffff168152505050620001c0565b5f80fd5b5f73ffffffffffffffffffffffffffffffffffffffff82169050919050565b5f6200015a826200012f565b9050919050565b6200016c816200014e565b811462000177575f80fd5b50565b5f815190506200018a8162000161565b92915050565b5f60208284031215620001a857620001a76200012b565b5b5f620001b7848285016200017a565b91505092915050565b608051611bbe620001e05f395f818161064d01526109da0152611bbe5ff3fe608060405234801561000f575f80fd5b506004361061011f575f3560e01c8063715018a6116100ab578063a9059cbb1161006f578063a9059cbb146102d1578063c45a015514610301578063dd62ed3e1461031f578063ed459df21461034f578063f2fde38b1461036d5761011f565b8063715018a61461026357806379ba50971461026d5780638da5cb5b146102775780638f32d59b1461029557806395d89b41146102b35761011f565b806323b872dd116100f257806323b872dd14610199578063313ce567146101c957806340c10f19146101e75780634fd35acb1461020357806370a08231146102335761011f565b806306fdde0314610123578063095ea7b31461014157806318160ddd1461017157806323452b9c1461018f575b5f80fd5b61012b610389565b60405161013891906110ff565b60405180910390f35b61015b600480360381019061015691906111bd565b610415565b6040516101689190611215565b60405180910390f35b61017961042b565b604051610186919061123d565b60405180910390f35b610197610431565b005b6101b360048036038101906101ae9190611256565b61049e565b6040516101c09190611215565b60405180910390f35b6101d16105e3565b6040516101de91906112c1565b60405180910390f35b61020160048036038101906101fc91906111bd565b6105f5565b005b61021d60048036038101906102189190611430565b61064a565b60405161022a91906114ee565b60405180910390f35b61024d60048036038101906102489190611507565b610733565b60405161025a919061123d565b60405180910390f35b61026b610748565b005b610275610799565b005b61027f6108be565b60405161028c91906114ee565b60405180910390f35b61029d6108e1565b6040516102aa9190611215565b60405180910390f35b6102bb610936565b6040516102c891906110ff565b60405180910390f35b6102eb60048036038101906102e691906111bd565b6109c2565b6040516102f89190611215565b60405180910390f35b6103096109d8565b60405161031691906114ee565b60405180910390f35b61033960048036038101906103349190611532565b6109fc565b604051610346919061123d565b60405180910390f35b610357610a1c565b6040516103649190611215565b60405180910390f35b61038760048036038101906103829190611507565b610a72565b005b600380546103969061159d565b80601f01602080910402602001604051908101604052809291908181526020018280546103c29061159d565b801561040d5780601f106103e45761010080835404028352916020019161040d565b820191905f5260205f20905b8154815290600101906020018083116103f057829003601f168201915b505050505081565b5f610421338484610b6a565b6001905092915050565b60025481565b6104396108e1565b610478576040517f08c379a000000000000000000000000000000000000000000000000000000000815260040161046f90611617565b60405180910390fd5b60015f6101000a81549073ffffffffffffffffffffffffffffffffffffffff0219169055565b5f7fffffffffffffffffffffffffffffffffffffffffffffffffffffffffffffffff60075f8673ffffffffffffffffffffffffffffffffffffffff1673ffffffffffffffffffffffffffffffffffffffff1681526020019081526020015f205f3373ffffffffffffffffffffffffffffffffffffffff1673ffffffffffffffffffffffffffffffffffffffff1681526020019081526020015f2054146105cd578160075f8673ffffffffffffffffffffffffffffffffffffffff1673ffffffffffffffffffffffffffffffffffffffff1681526020019081526020015f205f3373ffffffffffffffffffffffffffffffffffffffff1673ffffffffffffffffffffffffffffffffffffffff1681526020019081526020015f205f8282546105c59190611662565b925050819055505b6105d8848484610c51565b600190509392505050565b60055f9054906101000a900460ff1681565b6105fd6108e1565b61063c576040517f08c379a000000000000000000000000000000000000000000000000000000000815260040161063390611617565b60405180910390fd5b6106468282610dc6565b5050565b5f7f000000000000000000000000000000000000000000000000000000000000000073ffffffffffffffffffffffffffffffffffffffff163373ffffffffffffffffffffffffffffffffffffffff16146106d9576040517f08c379a00000000000000000000000000000000000000000000000000000000081526004016106d0906116df565b60405180910390fd5b6106e35f87610eff565b84600390816106f2919061189a565b508360049081610702919061189a565b508160055f6101000a81548160ff021916908360ff1602179055506107278684610dc6565b30905095945050505050565b6006602052805f5260405f205f915090505481565b6107506108e1565b61078f576040517f08c379a000000000000000000000000000000000000000000000000000000000815260040161078690611617565b60405180910390fd5b610797610fbb565b565b6107a1610a1c565b6107e0576040517f08c379a00000000000000000000000000000000000000000000000000000000081526004016107d7906119d9565b60405180910390fd5b60015f6101000a81549073ffffffffffffffffffffffffffffffffffffffff0219169055335f806101000a81548173ffffffffffffffffffffffffffffffffffffffff021916908373ffffffffffffffffffffffffffffffffffffffff1602179055503373ffffffffffffffffffffffffffffffffffffffff165f8054906101000a900473ffffffffffffffffffffffffffffffffffffffff1673ffffffffffffffffffffffffffffffffffffffff167f8be0079c531659141344cd1fd0a4f28419497f9722a3daafe3b4186f6b6457e060405160405180910390a3565b5f8054906101000a900473ffffffffffffffffffffffffffffffffffffffff1681565b5f805f9054906101000a900473ffffffffffffffffffffffffffffffffffffffff1673ffffffffffffffffffffffffffffffffffffffff163373ffffffffffffffffffffffffffffffffffffffff1614905090565b600480546109439061159d565b80601f016020809104026020016040519081016040528092919081815260200182805461096f9061159d565b80156109ba5780601f10610991576101008083540402835291602001916109ba565b820191905f5260205f20905b81548152906001019060200180831161099d57829003601f168201915b505050505081565b5f6109ce338484610c51565b6001905092915050565b7f000000000000000000000000000000000000000000000000000000000000000081565b6007602052815f5260405f20602052805f5260405f205f91509150505481565b5f60015f9054906101000a900473ffffffffffffffffffffffffffffffffffffffff1673ffffffffffffffffffffffffffffffffffffffff163373ffffffffffffffffffffffffffffffffffffffff1614905090565b610a7a6108e1565b610ab9576040517f08c379a0000000000000000000000000000000000000000000000000000000008152600401610ab090611617565b60405180910390fd5b5f73ffffffffffffffffffffffffffffffffffffffff168173ffffffffffffffffffffffffffffffffffffffff1603610b27576040517f08c379a0000000000000000000000000000000000000000000000000000000008152600401610b1e90611a41565b60405180910390fd5b8060015f6101000a81548173ffffffffffffffffffffffffffffffffffffffff021916908373ffffffffffffffffffffffffffffffffffffffff16021790555050565b8060075f8573ffffffffffffffffffffffffffffffffffffffff1673ffffffffffffffffffffffffffffffffffffffff1681526020019081526020015f205f8473ffffffffffffffffffffffffffffffffffffffff1673ffffffffffffffffffffffffffffffffffffffff1681526020019081526020015f20819055508173ffffffffffffffffffffffffffffffffffffffff168373ffffffffffffffffffffffffffffffffffffffff167f8c5be1e5ebec7d5bd14f71427d1e84f3dd0314c0f7b2291e5b200ac8c7c3b92583604051610c44919061123d565b60405180910390a3505050565b5f73ffffffffffffffffffffffffffffffffffffffff168273ffffffffffffffffffffffffffffffffffffffff1603610cbf576040517f08c379a0000000000000000000000000000000000000000000000000000000008152600401610cb690611acf565b60405180910390fd5b8060065f8573ffffffffffffffffffffffffffffffffffffffff1673ffffffffffffffffffffffffffffffffffffffff1681526020019081526020015f205f828254610d0b9190611662565b925050819055508060065f8473ffffffffffffffffffffffffffffffffffffffff1673ffffffffffffffffffffffffffffffffffffffff1681526020019081526020015f205f82825401925050819055508173ffffffffffffffffffffffffffffffffffffffff168373ffffffffffffffffffffffffffffffffffffffff167fddf252ad1be2c89b69c2b068fc378daa952ba7f163c4a11628f55a4df523b3ef83604051610db9919061123d565b60405180910390a3505050565b5f73ffffffffffffffffffffffffffffffffffffffff168273ffffffffffffffffffffffffffffffffffffffff1603610e34576040517f08c379a0000000000000000000000000000000000000000000000000000000008152600401610e2b90611b37565b60405180910390fd5b8060025f828254610e459190611b55565b925050819055508060065f8473ffffffffffffffffffffffffffffffffffffffff1673ffffffffffffffffffffffffffffffffffffffff1681526020019081526020015f205f82825401925050819055508173ffffffffffffffffffffffffffffffffffffffff165f73ffffffffffffffffffffffffffffffffffffffff167fddf252ad1be2c89b69c2b068fc378daa952ba7f163c4a11628f55a4df523b3ef83604051610ef3919061123d565b60405180910390a35050565b805f806101000a81548173ffffffffffffffffffffffffffffffffffffffff021916908373ffffffffffffffffffffffffffffffffffffffff1602179055505f8054906101000a900473ffffffffffffffffffffffffffffffffffffffff1673ffffffffffffffffffffffffffffffffffffffff168273ffffffffffffffffffffffffffffffffffffffff167f8be0079c531659141344cd1fd0a4f28419497f9722a3daafe3b4186f6b6457e060405160405180910390a35050565b5f73ffffffffffffffffffffffffffffffffffffffff165f8054906101000a900473ffffffffffffffffffffffffffffffffffffffff1673ffffffffffffffffffffffffffffffffffffffff167f8be0079c531659141344cd1fd0a4f28419497f9722a3daafe3b4186f6b6457e060405160405180910390a35f805f6101000a81548173ffffffffffffffffffffffffffffffffffffffff021916908373ffffffffffffffffffffffffffffffffffffffff160217905550565b5f81519050919050565b5f82825260208201905092915050565b5f5b838110156110ac578082015181840152602081019050611091565b5f8484015250505050565b5f601f19601f8301169050919050565b5f6110d182611075565b6110db818561107f565b93506110eb81856020860161108f565b6110f4816110b7565b840191505092915050565b5f6020820190508181035f83015261111781846110c7565b905092915050565b5f604051905090565b5f80fd5b5f80fd5b5f73ffffffffffffffffffffffffffffffffffffffff82169050919050565b5f61115982611130565b9050919050565b6111698161114f565b8114611173575f80fd5b50565b5f8135905061118481611160565b92915050565b5f819050919050565b61119c8161118a565b81146111a6575f80fd5b50565b5f813590506111b781611193565b92915050565b5f80604083850312156111d3576111d2611128565b5b5f6111e085828601611176565b92505060206111f1858286016111a9565b9150509250929050565b5f8115159050919050565b61120f816111fb565b82525050565b5f6020820190506112285f830184611206565b92915050565b6112378161118a565b82525050565b5f6020820190506112505f83018461122e565b92915050565b5f805f6060848603121561126d5761126c611128565b5b5f61127a86828701611176565b935050602061128b86828701611176565b925050604061129c868287016111a9565b9150509250925092565b5f60ff82169050919050565b6112bb816112a6565b82525050565b5f6020820190506112d45f8301846112b2565b92915050565b5f80fd5b5f80fd5b7f4e487b71000000000000000000000000000000000000000000000000000000005f52604160045260245ffd5b611318826110b7565b810181811067ffffffffffffffff82111715611337576113366112e2565b5b80604052505050565b5f61134961111f565b9050611355828261130f565b919050565b5f67ffffffffffffffff821115611374576113736112e2565b5b61137d826110b7565b9050602081019050919050565b828183375f83830152505050565b5f6113aa6113a58461135a565b611340565b9050828152602081018484840111156113c6576113c56112de565b5b6113d184828561138a565b509392505050565b5f82601f8301126113ed576113ec6112da565b5b81356113fd848260208601611398565b91505092915050565b61140f816112a6565b8114611419575f80fd5b50565b5f8135905061142a81611406565b92915050565b5f805f805f60a0868803121561144957611448611128565b5b5f61145688828901611176565b955050602086013567ffffffffffffffff8111156114775761147661112c565b5b611483888289016113d9565b945050604086013567ffffffffffffffff8111156114a4576114a361112c565b5b6114b0888289016113d9565b93505060606114c1888289016111a9565b92505060806114d28882890161141c565b9150509295509295909350565b6114e88161114f565b82525050565b5f6020820190506115015f8301846114df565b92915050565b5f6020828403121561151c5761151b611128565b5b5f61152984828501611176565b91505092915050565b5f806040838503121561154857611547611128565b5b5f61155585828601611176565b925050602061156685828601611176565b9150509250929050565b7f4e487b71000000000000000000000000000000000000000000000000000000005f52602260045260245ffd5b5f60028204905060018216806115b457607f821691505b6020821081036115c7576115c6611570565b5b50919050565b7f63616c6c6572206973206e6f7420746865206f776e65722e00000000000000005f82015250565b5f61160160188361107f565b915061160c826115cd565b602082019050919050565b5f6020820190508181035f83015261162e816115f5565b9050919050565b7f4e487b71000000000000000000000000000000000000000000000000000000005f52601160045260245ffd5b5f61166c8261118a565b91506116778361118a565b925082820390508181111561168f5761168e611635565b5b92915050565b7f756e617574686f72697a65642063616c6c6572000000000000000000000000005f82015250565b5f6116c960138361107f565b91506116d482611695565b602082019050919050565b5f6020820190508181035f8301526116f6816116bd565b9050919050565b5f819050815f5260205f209050919050565b5f6020601f8301049050919050565b5f82821b905092915050565b5f600883026117597fffffffffffffffffffffffffffffffffffffffffffffffffffffffffffffffff8261171e565b611763868361171e565b95508019841693508086168417925050509392505050565b5f819050919050565b5f61179e6117996117948461118a565b61177b565b61118a565b9050919050565b5f819050919050565b6117b783611784565b6117cb6117c3826117a5565b84845461172a565b825550505050565b5f90565b6117df6117d3565b6117ea8184846117ae565b505050565b5b8181101561180d576118025f826117d7565b6001810190506117f0565b5050565b601f82111561185257611823816116fd565b61182c8461170f565b8101602085101561183b578190505b61184f6118478561170f565b8301826117ef565b50505b505050565b5f82821c905092915050565b5f6118725f1984600802611857565b1980831691505092915050565b5f61188a8383611863565b9150826002028217905092915050565b6118a382611075565b67ffffffffffffffff8111156118bc576118bb6112e2565b5b6118c6825461159d565b6118d1828285611811565b5f60209050601f831160018114611902575f84156118f0578287015190505b6118fa858261187f565b865550611961565b601f198416611910866116fd565b5f5b8281101561193757848901518255600182019150602085019450602081019050611912565b868310156119545784890151611950601f891682611863565b8355505b6001600288020188555050505b505050505050565b7f63757272656e74206f776e6572206d757374207365742063616c6c65722061735f8201527f206e657874206f776e65722e0000000000000000000000000000000000000000602082015250565b5f6119c3602c8361107f565b91506119ce82611969565b604082019050919050565b5f6020820190508181035f8301526119f0816119b7565b9050919050565b7f4e657874206f776e657220697320746865207a65726f20616464726573732e005f82015250565b5f611a2b601f8361107f565b9150611a36826119f7565b602082019050919050565b5f6020820190508181035f830152611a5881611a1f565b9050919050565b7f45524332303a207472616e7366657220746f20746865207a65726f20616464725f8201527f6573730000000000000000000000000000000000000000000000000000000000602082015250565b5f611ab960238361107f565b9150611ac482611a5f565b604082019050919050565b5f6020820190508181035f830152611ae681611aad565b9050919050565b7f45524332303a206d696e7420746f20746865207a65726f2061646472657373005f82015250565b5f611b21601f8361107f565b9150611b2c82611aed565b602082019050919050565b5f6020820190508181035f830152611b4e81611b15565b9050919050565b5f611b5f8261118a565b9150611b6a8361118a565b9250828201905080821115611b8257611b81611635565b5b9291505056fea2646970667358221220d84e3a08e7adae669201c850bc31e17d983bab2c2ec790292e6a1d0bb7eab02564736f6c63430008150033",
  "immutableReferences": {
    "2972": [
      {
        "length": 32,
        "start": 537
      },
      {
        "length": 32,
        "start": 648
      }
    ]
  },
  "source": "// SPDX-License-Identifier: MIT\n// pragma solidity 0.8.17;\npragma solidity ^0.8.0;\n\nimport {ERC20Impl} from \"./ERC20Impl.sol\";\nimport {IERC20Factory, IERC20FactoryEvents} from \"./interface/IERC20Factory.sol\";\nimport {IOwnableEvents} from \"./lib/Ownable.sol\";\nimport {IERC20Events} from \"./interface/IERC20.sol\";\nimport {Clones} from \"./lib/Clones.sol\";\n\ninterface IERC20 {\n    function initialize(\n        address owner_,\n        string memory name_,\n        string memory symbol_,\n        uint256 totalSupply_,\n        uint8 decimals_\n    ) external;\n}\n\n/**\n * @title ERC20Factory\n * @notice The `ERC20Factory` contract deploys ERC20 clones. After deployment, the\n * factory calls `initialize` to set up the ERC20 metadata and mint the initial total\n * supply to the owner's wallet.\n */\ncontract ERC20Factory is\n    IERC20Factory,\n    IERC20FactoryEvents,\n    IERC20Events,\n    IOwnableEvents\n{\n    /// @notice Address that holds the clone implementation\n    address public immutable implementation;\n\n    /// @notice Registry of user -> deployed erc20 contracts\n    /// @dev Used on the frontend to retrieve a list of deployed ERC20's\n    mapping(address => address[]) public erc20s;\n\n    constructor() {\n        implementation = address(new ERC20Impl(address(this)));\n    }\n\n    //======== Deploy function =========\n\n    /// @notice Deploy an ERC20 clone.\n    /// @param owner the owner of the ERC20 token\n    /// @param name_ the ERC20 metadata name parameter\n    /// @param symbol_ the ERC20 metadata symbol parameter\n    /// @param totalSupply_ the ERC20 token initial supply, minted to `owner`\n    /// @param decimals_ the ERC20 token decimals\n    function create(\n        address owner,\n        string memory name_,\n        string memory symbol_,\n        uint256 totalSupply_,\n        uint8 decimals_\n    ) external override returns (address erc20Clone) {\n        erc20Clone = Clones.cloneDeterministic(\n            implementation,\n            keccak256(abi.encode(owner, name_, symbol_, totalSupply_))\n        );\n\n        IERC20(erc20Clone).initialize(\n            owner,\n            name_,\n            symbol_,\n            totalSupply_,\n            decimals_\n        );\n\n        /// @dev Add the clone to the list of clones for the owner\n        erc20s[owner].push(erc20Clone);\n\n        /// @dev Emit ERC20Deployed event\n        emit ERC20Deployed(erc20Clone, name_, symbol_, owner);\n    }\n\n    function getERC20s(address owner) external view returns (address[] memory) {\n        address[] memory tokens = erc20s[owner];\n        return tokens;\n    }\n\n    /// @notice predict the deterministic address of the ERC20 clone\n    /// @param implementation_ the address of the erc20 implementation\n    /// @param salt the salt used to generate the deterministic address\n    function predictDeterministicAddress(\n        address implementation_,\n        bytes32 salt\n    ) external view override returns (address) {\n        return\n            Clones.predictDeterministicAddress(\n                implementation_,\n                salt,\n                address(this)\n            );\n    }\n}\n",
  "sourcePath": "/Users/lbd/Downloads/MXC LLC/work/token-airdrop-x2e/token-airdrop-x2e-2/contracts/contracts/ERC20Factory.sol",
  "compiler": {
    "name": "solc",
    "version": "0.8.21+commit.d9974bed.Emscripten.clang"
  },
  "schemaVersion": "3.4.16",
  "updatedAt": "2024-04-05T20:38:50.596Z",
  "devdoc": {
    "kind": "dev",
    "methods": {
      "create(address,string,string,uint256,uint8)": {
        "params": {
          "decimals_": "the ERC20 token decimals",
          "name_": "the ERC20 metadata name parameter",
          "owner": "the owner of the ERC20 token",
          "symbol_": "the ERC20 metadata symbol parameter",
          "totalSupply_": "the ERC20 token initial supply, minted to `owner`"
        }
      },
      "predictDeterministicAddress(address,bytes32)": {
        "params": {
          "implementation_": "the address of the erc20 implementation",
          "salt": "the salt used to generate the deterministic address"
        }
      }
    },
    "stateVariables": {
      "erc20s": {
        "details": "Used on the frontend to retrieve a list of deployed ERC20's"
      }
    },
    "title": "ERC20Factory",
    "version": 1
  },
  "userdoc": {
    "events": {
      "Approval(address,address,uint256)": {
        "notice": "approval event"
      },
      "ERC20Deployed(address,string,string,address)": {
        "notice": "New ERC20 clone deployed"
      },
      "Transfer(address,address,uint256)": {
        "notice": "transfer event"
      }
    },
    "kind": "user",
    "methods": {
      "create(address,string,string,uint256,uint8)": {
        "notice": "Deploy an ERC20 clone."
      },
      "erc20s(address,uint256)": {
        "notice": "Registry of user -> deployed erc20 contracts"
      },
      "implementation()": {
        "notice": "Address that holds the clone implementation"
      },
      "predictDeterministicAddress(address,bytes32)": {
        "notice": "predict the deterministic address of the ERC20 clone"
      }
    },
    "notice": "The `ERC20Factory` contract deploys ERC20 clones. After deployment, the factory calls `initialize` to set up the ERC20 metadata and mint the initial total supply to the owner's wallet.",
    "version": 1
  }
}