{
  "contractName": "NftMarket",
  "abi": [
    {
      "inputs": [],
      "stateMutability": "nonpayable",
      "type": "constructor"
    },
    {
      "anonymous": false,
      "inputs": [
        {
          "indexed": true,
          "internalType": "address",
          "name": "owner",
          "type": "address"
        },
        {
          "indexed": true,
          "internalType": "address",
          "name": "approved",
          "type": "address"
        },
        {
          "indexed": true,
          "internalType": "uint256",
          "name": "tokenId",
          "type": "uint256"
        }
      ],
      "name": "Approval",
      "type": "event"
    },
    {
      "anonymous": false,
      "inputs": [
        {
          "indexed": true,
          "internalType": "address",
          "name": "owner",
          "type": "address"
        },
        {
          "indexed": true,
          "internalType": "address",
          "name": "operator",
          "type": "address"
        },
        {
          "indexed": false,
          "internalType": "bool",
          "name": "approved",
          "type": "bool"
        }
      ],
      "name": "ApprovalForAll",
      "type": "event"
    },
    {
      "anonymous": false,
      "inputs": [
        {
          "indexed": false,
          "internalType": "uint256",
          "name": "tokenId",
          "type": "uint256"
        },
        {
          "indexed": false,
          "internalType": "uint256",
          "name": "price",
          "type": "uint256"
        },
        {
          "indexed": false,
          "internalType": "address",
          "name": "creator",
          "type": "address"
        },
        {
          "indexed": false,
          "internalType": "bool",
          "name": "isListed",
          "type": "bool"
        }
      ],
      "name": "NftItemCreated",
      "type": "event"
    },
    {
      "anonymous": false,
      "inputs": [
        {
          "indexed": true,
          "internalType": "address",
          "name": "previousOwner",
          "type": "address"
        },
        {
          "indexed": true,
          "internalType": "address",
          "name": "newOwner",
          "type": "address"
        }
      ],
      "name": "OwnershipTransferred",
      "type": "event"
    },
    {
      "anonymous": false,
      "inputs": [
        {
          "indexed": true,
          "internalType": "address",
          "name": "from",
          "type": "address"
        },
        {
          "indexed": true,
          "internalType": "address",
          "name": "to",
          "type": "address"
        },
        {
          "indexed": true,
          "internalType": "uint256",
          "name": "tokenId",
          "type": "uint256"
        }
      ],
      "name": "Transfer",
      "type": "event"
    },
    {
      "inputs": [
        {
          "internalType": "address",
          "name": "to",
          "type": "address"
        },
        {
          "internalType": "uint256",
          "name": "tokenId",
          "type": "uint256"
        }
      ],
      "name": "approve",
      "outputs": [],
      "stateMutability": "nonpayable",
      "type": "function"
    },
    {
      "inputs": [
        {
          "internalType": "address",
          "name": "owner",
          "type": "address"
        }
      ],
      "name": "balanceOf",
      "outputs": [
        {
          "internalType": "uint256",
          "name": "",
          "type": "uint256"
        }
      ],
      "stateMutability": "view",
      "type": "function"
    },
    {
      "inputs": [
        {
          "internalType": "uint256",
          "name": "tokenId",
          "type": "uint256"
        }
      ],
      "name": "getApproved",
      "outputs": [
        {
          "internalType": "address",
          "name": "",
          "type": "address"
        }
      ],
      "stateMutability": "view",
      "type": "function"
    },
    {
      "inputs": [
        {
          "internalType": "address",
          "name": "owner",
          "type": "address"
        },
        {
          "internalType": "address",
          "name": "operator",
          "type": "address"
        }
      ],
      "name": "isApprovedForAll",
      "outputs": [
        {
          "internalType": "bool",
          "name": "",
          "type": "bool"
        }
      ],
      "stateMutability": "view",
      "type": "function"
    },
    {
      "inputs": [],
      "name": "listingPrice",
      "outputs": [
        {
          "internalType": "uint256",
          "name": "",
          "type": "uint256"
        }
      ],
      "stateMutability": "view",
      "type": "function"
    },
    {
      "inputs": [],
      "name": "name",
      "outputs": [
        {
          "internalType": "string",
          "name": "",
          "type": "string"
        }
      ],
      "stateMutability": "view",
      "type": "function"
    },
    {
      "inputs": [],
      "name": "owner",
      "outputs": [
        {
          "internalType": "address",
          "name": "",
          "type": "address"
        }
      ],
      "stateMutability": "view",
      "type": "function"
    },
    {
      "inputs": [
        {
          "internalType": "uint256",
          "name": "tokenId",
          "type": "uint256"
        }
      ],
      "name": "ownerOf",
      "outputs": [
        {
          "internalType": "address",
          "name": "",
          "type": "address"
        }
      ],
      "stateMutability": "view",
      "type": "function"
    },
    {
      "inputs": [],
      "name": "renounceOwnership",
      "outputs": [],
      "stateMutability": "nonpayable",
      "type": "function"
    },
    {
      "inputs": [
        {
          "internalType": "address",
          "name": "from",
          "type": "address"
        },
        {
          "internalType": "address",
          "name": "to",
          "type": "address"
        },
        {
          "internalType": "uint256",
          "name": "tokenId",
          "type": "uint256"
        }
      ],
      "name": "safeTransferFrom",
      "outputs": [],
      "stateMutability": "nonpayable",
      "type": "function"
    },
    {
      "inputs": [
        {
          "internalType": "address",
          "name": "from",
          "type": "address"
        },
        {
          "internalType": "address",
          "name": "to",
          "type": "address"
        },
        {
          "internalType": "uint256",
          "name": "tokenId",
          "type": "uint256"
        },
        {
          "internalType": "bytes",
          "name": "data",
          "type": "bytes"
        }
      ],
      "name": "safeTransferFrom",
      "outputs": [],
      "stateMutability": "nonpayable",
      "type": "function"
    },
    {
      "inputs": [
        {
          "internalType": "address",
          "name": "operator",
          "type": "address"
        },
        {
          "internalType": "bool",
          "name": "approved",
          "type": "bool"
        }
      ],
      "name": "setApprovalForAll",
      "outputs": [],
      "stateMutability": "nonpayable",
      "type": "function"
    },
    {
      "inputs": [
        {
          "internalType": "bytes4",
          "name": "interfaceId",
          "type": "bytes4"
        }
      ],
      "name": "supportsInterface",
      "outputs": [
        {
          "internalType": "bool",
          "name": "",
          "type": "bool"
        }
      ],
      "stateMutability": "view",
      "type": "function"
    },
    {
      "inputs": [],
      "name": "symbol",
      "outputs": [
        {
          "internalType": "string",
          "name": "",
          "type": "string"
        }
      ],
      "stateMutability": "view",
      "type": "function"
    },
    {
      "inputs": [
        {
          "internalType": "uint256",
          "name": "tokenId",
          "type": "uint256"
        }
      ],
      "name": "tokenURI",
      "outputs": [
        {
          "internalType": "string",
          "name": "",
          "type": "string"
        }
      ],
      "stateMutability": "view",
      "type": "function"
    },
    {
      "inputs": [
        {
          "internalType": "address",
          "name": "from",
          "type": "address"
        },
        {
          "internalType": "address",
          "name": "to",
          "type": "address"
        },
        {
          "internalType": "uint256",
          "name": "tokenId",
          "type": "uint256"
        }
      ],
      "name": "transferFrom",
      "outputs": [],
      "stateMutability": "nonpayable",
      "type": "function"
    },
    {
      "inputs": [
        {
          "internalType": "address",
          "name": "newOwner",
          "type": "address"
        }
      ],
      "name": "transferOwnership",
      "outputs": [],
      "stateMutability": "nonpayable",
      "type": "function"
    },
    {
      "inputs": [
        {
          "internalType": "uint256",
          "name": "newPrice",
          "type": "uint256"
        }
      ],
      "name": "setListingPrice",
      "outputs": [],
      "stateMutability": "nonpayable",
      "type": "function"
    },
    {
      "inputs": [
        {
          "internalType": "uint256",
          "name": "tokenId",
          "type": "uint256"
        }
      ],
      "name": "getNftItem",
      "outputs": [
        {
          "components": [
            {
              "internalType": "uint256",
              "name": "tokenId",
              "type": "uint256"
            },
            {
              "internalType": "uint256",
              "name": "price",
              "type": "uint256"
            },
            {
              "internalType": "address",
              "name": "creator",
              "type": "address"
            },
            {
              "internalType": "bool",
              "name": "isListed",
              "type": "bool"
            }
          ],
          "internalType": "struct NftMarket.NftItem",
          "name": "",
          "type": "tuple"
        }
      ],
      "stateMutability": "view",
      "type": "function"
    },
    {
      "inputs": [],
      "name": "listedItemsCount",
      "outputs": [
        {
          "internalType": "uint256",
          "name": "",
          "type": "uint256"
        }
      ],
      "stateMutability": "view",
      "type": "function"
    },
    {
      "inputs": [
        {
          "internalType": "string",
          "name": "tokenURI",
          "type": "string"
        }
      ],
      "name": "tokenURIExists",
      "outputs": [
        {
          "internalType": "bool",
          "name": "",
          "type": "bool"
        }
      ],
      "stateMutability": "view",
      "type": "function"
    },
    {
      "inputs": [],
      "name": "totalSupply",
      "outputs": [
        {
          "internalType": "uint256",
          "name": "",
          "type": "uint256"
        }
      ],
      "stateMutability": "view",
      "type": "function"
    },
    {
      "inputs": [
        {
          "internalType": "uint256",
          "name": "index",
          "type": "uint256"
        }
      ],
      "name": "tokenByIndex",
      "outputs": [
        {
          "internalType": "uint256",
          "name": "",
          "type": "uint256"
        }
      ],
      "stateMutability": "view",
      "type": "function"
    },
    {
      "inputs": [
        {
          "internalType": "address",
          "name": "owner",
          "type": "address"
        },
        {
          "internalType": "uint256",
          "name": "index",
          "type": "uint256"
        }
      ],
      "name": "tokenOfOwnerByIndex",
      "outputs": [
        {
          "internalType": "uint256",
          "name": "",
          "type": "uint256"
        }
      ],
      "stateMutability": "view",
      "type": "function"
    },
    {
      "inputs": [],
      "name": "getAllNftsOnSale",
      "outputs": [
        {
          "components": [
            {
              "internalType": "uint256",
              "name": "tokenId",
              "type": "uint256"
            },
            {
              "internalType": "uint256",
              "name": "price",
              "type": "uint256"
            },
            {
              "internalType": "address",
              "name": "creator",
              "type": "address"
            },
            {
              "internalType": "bool",
              "name": "isListed",
              "type": "bool"
            }
          ],
          "internalType": "struct NftMarket.NftItem[]",
          "name": "",
          "type": "tuple[]"
        }
      ],
      "stateMutability": "view",
      "type": "function"
    },
    {
      "inputs": [],
      "name": "getOwnedNfts",
      "outputs": [
        {
          "components": [
            {
              "internalType": "uint256",
              "name": "tokenId",
              "type": "uint256"
            },
            {
              "internalType": "uint256",
              "name": "price",
              "type": "uint256"
            },
            {
              "internalType": "address",
              "name": "creator",
              "type": "address"
            },
            {
              "internalType": "bool",
              "name": "isListed",
              "type": "bool"
            }
          ],
          "internalType": "struct NftMarket.NftItem[]",
          "name": "",
          "type": "tuple[]"
        }
      ],
      "stateMutability": "view",
      "type": "function"
    },
    {
      "inputs": [
        {
          "internalType": "string",
          "name": "tokenURI",
          "type": "string"
        },
        {
          "internalType": "uint256",
          "name": "price",
          "type": "uint256"
        }
      ],
      "name": "mintToken",
      "outputs": [
        {
          "internalType": "uint256",
          "name": "",
          "type": "uint256"
        }
      ],
      "stateMutability": "payable",
      "type": "function"
    },
    {
      "inputs": [
        {
          "internalType": "uint256",
          "name": "tokenId",
          "type": "uint256"
        }
      ],
      "name": "buyNft",
      "outputs": [],
      "stateMutability": "payable",
      "type": "function"
    },
    {
      "inputs": [
        {
          "internalType": "uint256",
          "name": "tokenId",
          "type": "uint256"
        },
        {
          "internalType": "uint256",
          "name": "newPrice",
          "type": "uint256"
        }
      ],
      "name": "placeNftOnSale",
      "outputs": [],
      "stateMutability": "payable",
      "type": "function"
    }
  ],
  "bytecode": "0x60806040526658d15e176280006008553480156200001b575f80fd5b506040518060400160405280600c81526020017f4372656174757265734e465400000000000000000000000000000000000000008152506040518060400160405280600481526020017f434e465400000000000000000000000000000000000000000000000000000000815250815f908162000098919062000401565b508060019081620000aa919062000401565b505050620000cd620000c1620000d360201b60201c565b620000da60201b60201c565b620004e5565b5f33905090565b5f60075f9054906101000a900473ffffffffffffffffffffffffffffffffffffffff1690508160075f6101000a81548173ffffffffffffffffffffffffffffffffffffffff021916908373ffffffffffffffffffffffffffffffffffffffff1602179055508173ffffffffffffffffffffffffffffffffffffffff168173ffffffffffffffffffffffffffffffffffffffff167f8be0079c531659141344cd1fd0a4f28419497f9722a3daafe3b4186f6b6457e060405160405180910390a35050565b5f81519050919050565b7f4e487b71000000000000000000000000000000000000000000000000000000005f52604160045260245ffd5b7f4e487b71000000000000000000000000000000000000000000000000000000005f52602260045260245ffd5b5f60028204905060018216806200021957607f821691505b6020821081036200022f576200022e620001d4565b5b50919050565b5f819050815f5260205f209050919050565b5f6020601f8301049050919050565b5f82821b905092915050565b5f60088302620002937fffffffffffffffffffffffffffffffffffffffffffffffffffffffffffffffff8262000256565b6200029f868362000256565b95508019841693508086168417925050509392505050565b5f819050919050565b5f819050919050565b5f620002e9620002e3620002dd84620002b7565b620002c0565b620002b7565b9050919050565b5f819050919050565b6200030483620002c9565b6200031c6200031382620002f0565b84845462000262565b825550505050565b5f90565b6200033262000324565b6200033f818484620002f9565b505050565b5b8181101562000366576200035a5f8262000328565b60018101905062000345565b5050565b601f821115620003b5576200037f8162000235565b6200038a8462000247565b810160208510156200039a578190505b620003b2620003a98562000247565b83018262000344565b50505b505050565b5f82821c905092915050565b5f620003d75f1984600802620003ba565b1980831691505092915050565b5f620003f18383620003c6565b9150826002028217905092915050565b6200040c826200019d565b67ffffffffffffffff811115620004285762000427620001a7565b5b62000434825462000201565b620004418282856200036a565b5f60209050601f83116001811462000477575f841562000462578287015190505b6200046e8582620003e4565b865550620004dd565b601f198416620004878662000235565b5f5b82811015620004b05784890151825560018201915060208501945060208101905062000489565b86831015620004d05784890151620004cc601f891682620003c6565b8355505b6001600288020188555050505b505050505050565b61483180620004f35f395ff3fe6080604052600436106101c1575f3560e01c80636f1a0af5116100f6578063a22cb46511610094578063c87b56dd11610063578063c87b56dd14610639578063ccb4918d14610675578063e985e9c51461069f578063f2fde38b146106db576101c1565b8063a22cb4651461058f578063b88d4fde146105b7578063c046372c146105df578063c78f19f91461060f576101c1565b8063715018a6116100d0578063715018a6146104fd5780637c726b69146105135780638da5cb5b1461053b57806395d89b4114610565576101c1565b80636f1a0af51461045b57806370a082311461049757806370cbcb43146104d3576101c1565b8063243adbdd1161016357806342842e0e1161013d57806342842e0e1461037f57806343d32ae7146103a75780634f6ccce7146103e35780636352211e1461041f576101c1565b8063243adbdd146102fd5780632f745c591461031957806336b536be14610355576101c1565b8063095ea7b31161019f578063095ea7b31461026757806318160ddd1461028f57806321f422e5146102b957806323b872dd146102d5576101c1565b806301ffc9a7146101c557806306fdde0314610201578063081812fc1461022b575b5f80fd5b3480156101d0575f80fd5b506101eb60048036038101906101e69190612f20565b610703565b6040516101f89190612f65565b60405180910390f35b34801561020c575f80fd5b506102156107e4565b6040516102229190613008565b60405180910390f35b348015610236575f80fd5b50610251600480360381019061024c919061305b565b610873565b60405161025e91906130c5565b60405180910390f35b348015610272575f80fd5b5061028d60048036038101906102889190613108565b6108b5565b005b34801561029a575f80fd5b506102a36109cb565b6040516102b09190613155565b60405180910390f35b6102d360048036038101906102ce919061316e565b6109d7565b005b3480156102e0575f80fd5b506102fb60048036038101906102f691906131ac565b610b4c565b005b6103176004803603810190610312919061305b565b610bac565b005b348015610324575f80fd5b5061033f600480360381019061033a9190613108565b610d0a565b60405161034c9190613155565b60405180910390f35b348015610360575f80fd5b50610369610daa565b6040516103769190613324565b60405180910390f35b34801561038a575f80fd5b506103a560048036038101906103a091906131ac565b610f3b565b005b3480156103b2575f80fd5b506103cd60048036038101906103c89190613470565b610f5a565b6040516103da9190612f65565b60405180910390f35b3480156103ee575f80fd5b506104096004803603810190610404919061305b565b610f94565b6040516104169190613155565b60405180910390f35b34801561042a575f80fd5b506104456004803603810190610440919061305b565b611002565b60405161045291906130c5565b60405180910390f35b348015610466575f80fd5b50610481600480360381019061047c919061305b565b611086565b60405161048e919061350a565b60405180910390f35b3480156104a2575f80fd5b506104bd60048036038101906104b89190613523565b611134565b6040516104ca9190613155565b60405180910390f35b3480156104de575f80fd5b506104e76111e8565b6040516104f49190613324565b60405180910390f35b348015610508575f80fd5b50610511611343565b005b34801561051e575f80fd5b506105396004803603810190610534919061305b565b611356565b005b348015610546575f80fd5b5061054f6113aa565b60405161055c91906130c5565b60405180910390f35b348015610570575f80fd5b506105796113d2565b6040516105869190613008565b60405180910390f35b34801561059a575f80fd5b506105b560048036038101906105b09190613578565b611462565b005b3480156105c2575f80fd5b506105dd60048036038101906105d89190613654565b611478565b005b6105f960048036038101906105f491906136d4565b6114da565b6040516106069190613155565b60405180910390f35b34801561061a575f80fd5b506106236115e7565b6040516106309190613155565b60405180910390f35b348015610644575f80fd5b5061065f600480360381019061065a919061305b565b6115ed565b60405161066c9190613008565b60405180910390f35b348015610680575f80fd5b506106896116f7565b6040516106969190613155565b60405180910390f35b3480156106aa575f80fd5b506106c560048036038101906106c0919061372e565b611707565b6040516106d29190612f65565b60405180910390f35b3480156106e6575f80fd5b5061070160048036038101906106fc9190613523565b611795565b005b5f7f80ac58cd000000000000000000000000000000000000000000000000000000007bffffffffffffffffffffffffffffffffffffffffffffffffffffffff1916827bffffffffffffffffffffffffffffffffffffffffffffffffffffffff191614806107cd57507f5b5e139f000000000000000000000000000000000000000000000000000000007bffffffffffffffffffffffffffffffffffffffffffffffffffffffff1916827bffffffffffffffffffffffffffffffffffffffffffffffffffffffff1916145b806107dd57506107dc82611817565b5b9050919050565b60605f80546107f290613799565b80601f016020809104026020016040519081016040528092919081815260200182805461081e90613799565b80156108695780601f1061084057610100808354040283529160200191610869565b820191905f5260205f20905b81548152906001019060200180831161084c57829003601f168201915b5050505050905090565b5f61087d82611880565b60045f8381526020019081526020015f205f9054906101000a900473ffffffffffffffffffffffffffffffffffffffff169050919050565b5f6108bf82611002565b90508073ffffffffffffffffffffffffffffffffffffffff168373ffffffffffffffffffffffffffffffffffffffff160361092f576040517f08c379a000000000000000000000000000000000000000000000000000000000815260040161092690613839565b60405180910390fd5b8073ffffffffffffffffffffffffffffffffffffffff1661094e6118cb565b73ffffffffffffffffffffffffffffffffffffffff16148061097d575061097c816109776118cb565b611707565b5b6109bc576040517f08c379a00000000000000000000000000000000000000000000000000000000081526004016109b3906138c7565b60405180910390fd5b6109c683836118d2565b505050565b5f600f80549050905090565b3373ffffffffffffffffffffffffffffffffffffffff166109f783611002565b73ffffffffffffffffffffffffffffffffffffffff1614610a4d576040517f08c379a0000000000000000000000000000000000000000000000000000000008152600401610a449061392f565b60405180910390fd5b5f1515600c5f8481526020019081526020015f2060020160149054906101000a900460ff16151514610ab4576040517f08c379a0000000000000000000000000000000000000000000000000000000008152600401610aab90613997565b60405180910390fd5b6008543414610af8576040517f08c379a0000000000000000000000000000000000000000000000000000000008152600401610aef90613a25565b60405180910390fd5b6001600c5f8481526020019081526020015f2060020160146101000a81548160ff02191690831515021790555080600c5f8481526020019081526020015f2060010181905550610b486009611988565b5050565b610b5d610b576118cb565b8261199c565b610b9c576040517f08c379a0000000000000000000000000000000000000000000000000000000008152600401610b9390613ab3565b60405180910390fd5b610ba7838383611a30565b505050565b5f600c5f8381526020019081526020015f206001015490505f610bce83611002565b90508073ffffffffffffffffffffffffffffffffffffffff163373ffffffffffffffffffffffffffffffffffffffff1603610c3e576040517f08c379a0000000000000000000000000000000000000000000000000000000008152600401610c3590613b1b565b60405180910390fd5b813414610c80576040517f08c379a0000000000000000000000000000000000000000000000000000000008152600401610c7790613b83565b60405180910390fd5b5f600c5f8581526020019081526020015f2060020160146101000a81548160ff021916908315150217905550610cb66009611d1c565b610cc1813385611a30565b8073ffffffffffffffffffffffffffffffffffffffff166108fc3490811502906040515f60405180830381858888f19350505050158015610d04573d5f803e3d5ffd5b50505050565b5f610d1483611134565b8210610d55576040517f08c379a0000000000000000000000000000000000000000000000000000000008152600401610d4c90613beb565b60405180910390fd5b600d5f8473ffffffffffffffffffffffffffffffffffffffff1673ffffffffffffffffffffffffffffffffffffffff1681526020019081526020015f205f8381526020019081526020015f2054905092915050565b60605f610db56109cb565b90505f80610dc36009611d74565b67ffffffffffffffff811115610ddc57610ddb61334c565b5b604051908082528060200260200182016040528015610e1557816020015b610e02612e7e565b815260200190600190039081610dfa5790505b5090505f5b83811015610f31575f610e2c82610f94565b90505f600c5f8381526020019081526020015f209050600115158160020160149054906101000a900460ff16151503610f1c57806040518060800160405290815f820154815260200160018201548152602001600282015f9054906101000a900473ffffffffffffffffffffffffffffffffffffffff1673ffffffffffffffffffffffffffffffffffffffff1673ffffffffffffffffffffffffffffffffffffffff1681526020016002820160149054906101000a900460ff161515151581525050848681518110610f0157610f00613c09565b5b6020026020010181905250600185610f199190613c63565b94505b50508080610f2990613c96565b915050610e1a565b5080935050505090565b610f5583838360405180602001604052805f815250611478565b505050565b5f60011515600b83604051610f6f9190613d17565b90815260200160405180910390205f9054906101000a900460ff161515149050919050565b5f610f9d6109cb565b8210610fde576040517f08c379a0000000000000000000000000000000000000000000000000000000008152600401610fd590613beb565b60405180910390fd5b600f8281548110610ff257610ff1613c09565b5b905f5260205f2001549050919050565b5f8061100d83611d80565b90505f73ffffffffffffffffffffffffffffffffffffffff168173ffffffffffffffffffffffffffffffffffffffff160361107d576040517f08c379a000000000000000000000000000000000000000000000000000000000815260040161107490613d77565b60405180910390fd5b80915050919050565b61108e612e7e565b600c5f8381526020019081526020015f206040518060800160405290815f820154815260200160018201548152602001600282015f9054906101000a900473ffffffffffffffffffffffffffffffffffffffff1673ffffffffffffffffffffffffffffffffffffffff1673ffffffffffffffffffffffffffffffffffffffff1681526020016002820160149054906101000a900460ff1615151515815250509050919050565b5f8073ffffffffffffffffffffffffffffffffffffffff168273ffffffffffffffffffffffffffffffffffffffff16036111a3576040517f08c379a000000000000000000000000000000000000000000000000000000000815260040161119a90613e05565b60405180910390fd5b60035f8373ffffffffffffffffffffffffffffffffffffffff1673ffffffffffffffffffffffffffffffffffffffff1681526020019081526020015f20549050919050565b60605f6111f433611134565b90505f8167ffffffffffffffff8111156112115761121061334c565b5b60405190808252806020026020018201604052801561124a57816020015b611237612e7e565b81526020019060019003908161122f5790505b5090505f5b8281101561133a575f6112623383610d0a565b90505f600c5f8381526020019081526020015f209050806040518060800160405290815f820154815260200160018201548152602001600282015f9054906101000a900473ffffffffffffffffffffffffffffffffffffffff1673ffffffffffffffffffffffffffffffffffffffff1673ffffffffffffffffffffffffffffffffffffffff1681526020016002820160149054906101000a900460ff16151515158152505084848151811061131a57611319613c09565b5b60200260200101819052505050808061133290613c96565b91505061124f565b50809250505090565b61134b611db9565b6113545f611e37565b565b61135e611db9565b5f81116113a0576040517f08c379a000000000000000000000000000000000000000000000000000000000815260040161139790613e6d565b60405180910390fd5b8060088190555050565b5f60075f9054906101000a900473ffffffffffffffffffffffffffffffffffffffff16905090565b6060600180546113e190613799565b80601f016020809104026020016040519081016040528092919081815260200182805461140d90613799565b80156114585780601f1061142f57610100808354040283529160200191611458565b820191905f5260205f20905b81548152906001019060200180831161143b57829003601f168201915b5050505050905090565b61147461146d6118cb565b8383611efa565b5050565b6114896114836118cb565b8361199c565b6114c8576040517f08c379a00000000000000000000000000000000000000000000000000000000081526004016114bf90613ab3565b60405180910390fd5b6114d484848484612061565b50505050565b5f6114e483610f5a565b15611524576040517f08c379a000000000000000000000000000000000000000000000000000000000815260040161151b90613ed5565b60405180910390fd5b6008543414611568576040517f08c379a000000000000000000000000000000000000000000000000000000000815260040161155f90613a25565b60405180910390fd5b611572600a611988565b61157c6009611988565b5f611587600a611d74565b905061159333826120bd565b61159d81856120da565b6115a78184612145565b6001600b856040516115b99190613d17565b90815260200160405180910390205f6101000a81548160ff0219169083151502179055508091505092915050565b60085481565b60606115f882611880565b5f60065f8481526020019081526020015f20805461161590613799565b80601f016020809104026020016040519081016040528092919081815260200182805461164190613799565b801561168c5780601f106116635761010080835404028352916020019161168c565b820191905f5260205f20905b81548152906001019060200180831161166f57829003601f168201915b505050505090505f61169c61228f565b90505f8151036116b05781925050506116f2565b5f825111156116e45780826040516020016116cc929190613ef3565b604051602081830303815290604052925050506116f2565b6116ed846122a5565b925050505b919050565b5f6117026009611d74565b905090565b5f60055f8473ffffffffffffffffffffffffffffffffffffffff1673ffffffffffffffffffffffffffffffffffffffff1681526020019081526020015f205f8373ffffffffffffffffffffffffffffffffffffffff1673ffffffffffffffffffffffffffffffffffffffff1681526020019081526020015f205f9054906101000a900460ff16905092915050565b61179d611db9565b5f73ffffffffffffffffffffffffffffffffffffffff168173ffffffffffffffffffffffffffffffffffffffff160361180b576040517f08c379a000000000000000000000000000000000000000000000000000000000815260040161180290613f86565b60405180910390fd5b61181481611e37565b50565b5f7f01ffc9a7000000000000000000000000000000000000000000000000000000007bffffffffffffffffffffffffffffffffffffffffffffffffffffffff1916827bffffffffffffffffffffffffffffffffffffffffffffffffffffffff1916149050919050565b6118898161230a565b6118c8576040517f08c379a00000000000000000000000000000000000000000000000000000000081526004016118bf90613d77565b60405180910390fd5b50565b5f33905090565b8160045f8381526020019081526020015f205f6101000a81548173ffffffffffffffffffffffffffffffffffffffff021916908373ffffffffffffffffffffffffffffffffffffffff160217905550808273ffffffffffffffffffffffffffffffffffffffff1661194283611002565b73ffffffffffffffffffffffffffffffffffffffff167f8c5be1e5ebec7d5bd14f71427d1e84f3dd0314c0f7b2291e5b200ac8c7c3b92560405160405180910390a45050565b6001815f015f828254019250508190555050565b5f806119a783611002565b90508073ffffffffffffffffffffffffffffffffffffffff168473ffffffffffffffffffffffffffffffffffffffff1614806119e957506119e88185611707565b5b80611a2757508373ffffffffffffffffffffffffffffffffffffffff16611a0f84610873565b73ffffffffffffffffffffffffffffffffffffffff16145b91505092915050565b8273ffffffffffffffffffffffffffffffffffffffff16611a5082611002565b73ffffffffffffffffffffffffffffffffffffffff1614611aa6576040517f08c379a0000000000000000000000000000000000000000000000000000000008152600401611a9d90614014565b60405180910390fd5b5f73ffffffffffffffffffffffffffffffffffffffff168273ffffffffffffffffffffffffffffffffffffffff1603611b14576040517f08c379a0000000000000000000000000000000000000000000000000000000008152600401611b0b906140a2565b60405180910390fd5b611b21838383600161234a565b8273ffffffffffffffffffffffffffffffffffffffff16611b4182611002565b73ffffffffffffffffffffffffffffffffffffffff1614611b97576040517f08c379a0000000000000000000000000000000000000000000000000000000008152600401611b8e90614014565b60405180910390fd5b60045f8281526020019081526020015f205f6101000a81549073ffffffffffffffffffffffffffffffffffffffff0219169055600160035f8573ffffffffffffffffffffffffffffffffffffffff1673ffffffffffffffffffffffffffffffffffffffff1681526020019081526020015f205f8282540392505081905550600160035f8473ffffffffffffffffffffffffffffffffffffffff1673ffffffffffffffffffffffffffffffffffffffff1681526020019081526020015f205f82825401925050819055508160025f8381526020019081526020015f205f6101000a81548173ffffffffffffffffffffffffffffffffffffffff021916908373ffffffffffffffffffffffffffffffffffffffff160217905550808273ffffffffffffffffffffffffffffffffffffffff168473ffffffffffffffffffffffffffffffffffffffff167fddf252ad1be2c89b69c2b068fc378daa952ba7f163c4a11628f55a4df523b3ef60405160405180910390a4611d17838383600161245c565b505050565b5f815f015490505f8111611d65576040517f08c379a0000000000000000000000000000000000000000000000000000000008152600401611d5c9061410a565b60405180910390fd5b60018103825f01819055505050565b5f815f01549050919050565b5f60025f8381526020019081526020015f205f9054906101000a900473ffffffffffffffffffffffffffffffffffffffff169050919050565b611dc16118cb565b73ffffffffffffffffffffffffffffffffffffffff16611ddf6113aa565b73ffffffffffffffffffffffffffffffffffffffff1614611e35576040517f08c379a0000000000000000000000000000000000000000000000000000000008152600401611e2c90614172565b60405180910390fd5b565b5f60075f9054906101000a900473ffffffffffffffffffffffffffffffffffffffff1690508160075f6101000a81548173ffffffffffffffffffffffffffffffffffffffff021916908373ffffffffffffffffffffffffffffffffffffffff1602179055508173ffffffffffffffffffffffffffffffffffffffff168173ffffffffffffffffffffffffffffffffffffffff167f8be0079c531659141344cd1fd0a4f28419497f9722a3daafe3b4186f6b6457e060405160405180910390a35050565b8173ffffffffffffffffffffffffffffffffffffffff168373ffffffffffffffffffffffffffffffffffffffff1603611f68576040517f08c379a0000000000000000000000000000000000000000000000000000000008152600401611f5f906141da565b60405180910390fd5b8060055f8573ffffffffffffffffffffffffffffffffffffffff1673ffffffffffffffffffffffffffffffffffffffff1681526020019081526020015f205f8473ffffffffffffffffffffffffffffffffffffffff1673ffffffffffffffffffffffffffffffffffffffff1681526020019081526020015f205f6101000a81548160ff0219169083151502179055508173ffffffffffffffffffffffffffffffffffffffff168373ffffffffffffffffffffffffffffffffffffffff167f17307eab39ab6107e8899845ad3d59bd9653f200f220920489ca2b5937696c31836040516120549190612f65565b60405180910390a3505050565b61206c848484611a30565b61207884848484612462565b6120b7576040517f08c379a00000000000000000000000000000000000000000000000000000000081526004016120ae90614268565b60405180910390fd5b50505050565b6120d6828260405180602001604052805f8152506125e4565b5050565b6120e38261230a565b612122576040517f08c379a0000000000000000000000000000000000000000000000000000000008152600401612119906142f6565b60405180910390fd5b8060065f8481526020019081526020015f20908161214091906144b1565b505050565b5f8111612187576040517f08c379a000000000000000000000000000000000000000000000000000000000815260040161217e90613e6d565b60405180910390fd5b60405180608001604052808381526020018281526020013373ffffffffffffffffffffffffffffffffffffffff16815260200160011515815250600c5f8481526020019081526020015f205f820151815f0155602082015181600101556040820151816002015f6101000a81548173ffffffffffffffffffffffffffffffffffffffff021916908373ffffffffffffffffffffffffffffffffffffffff16021790555060608201518160020160146101000a81548160ff0219169083151502179055509050507f470031062672bc0246e132c723a729c4676710ec663a29e86c88678032daddea82823360016040516122839493929190614580565b60405180910390a15050565b606060405180602001604052805f815250905090565b60606122b082611880565b5f6122b961228f565b90505f8151116122d75760405180602001604052805f815250612302565b806122e18461263e565b6040516020016122f2929190613ef3565b6040516020818303038152906040525b915050919050565b5f8073ffffffffffffffffffffffffffffffffffffffff1661232b83611d80565b73ffffffffffffffffffffffffffffffffffffffff1614159050919050565b61235684848484612708565b5f73ffffffffffffffffffffffffffffffffffffffff168473ffffffffffffffffffffffffffffffffffffffff16036123975761239282612826565b6123d6565b8273ffffffffffffffffffffffffffffffffffffffff168473ffffffffffffffffffffffffffffffffffffffff16146123d5576123d4848361286a565b5b5b5f73ffffffffffffffffffffffffffffffffffffffff168373ffffffffffffffffffffffffffffffffffffffff160361241757612412826129c0565b612456565b8373ffffffffffffffffffffffffffffffffffffffff168373ffffffffffffffffffffffffffffffffffffffff1614612455576124548383612a80565b5b5b50505050565b50505050565b5f6124828473ffffffffffffffffffffffffffffffffffffffff16612af8565b156125d7578373ffffffffffffffffffffffffffffffffffffffff1663150b7a026124ab6118cb565b8786866040518563ffffffff1660e01b81526004016124cd9493929190614615565b6020604051808303815f875af192505050801561250857506040513d601f19601f820116820180604052508101906125059190614673565b60015b612587573d805f8114612536576040519150601f19603f3d011682016040523d82523d5f602084013e61253b565b606091505b505f81510361257f576040517f08c379a000000000000000000000000000000000000000000000000000000000815260040161257690614268565b60405180910390fd5b805181602001fd5b63150b7a0260e01b7bffffffffffffffffffffffffffffffffffffffffffffffffffffffff1916817bffffffffffffffffffffffffffffffffffffffffffffffffffffffff1916149150506125dc565b600190505b949350505050565b6125ee8383612b1a565b6125fa5f848484612462565b612639576040517f08c379a000000000000000000000000000000000000000000000000000000000815260040161263090614268565b60405180910390fd5b505050565b60605f600161264c84612d2d565b0190505f8167ffffffffffffffff81111561266a5761266961334c565b5b6040519080825280601f01601f19166020018201604052801561269c5781602001600182028036833780820191505090505b5090505f82602001820190505b6001156126fd578080600190039150507f3031323334353637383961626364656600000000000000000000000000000000600a86061a8153600a85816126f2576126f161469e565b5b0494505f85036126a9575b819350505050919050565b6001811115612820575f73ffffffffffffffffffffffffffffffffffffffff168473ffffffffffffffffffffffffffffffffffffffff1614612798578060035f8673ffffffffffffffffffffffffffffffffffffffff1673ffffffffffffffffffffffffffffffffffffffff1681526020019081526020015f205f82825461279091906146cb565b925050819055505b5f73ffffffffffffffffffffffffffffffffffffffff168373ffffffffffffffffffffffffffffffffffffffff161461281f578060035f8573ffffffffffffffffffffffffffffffffffffffff1673ffffffffffffffffffffffffffffffffffffffff1681526020019081526020015f205f8282546128179190613c63565b925050819055505b5b50505050565b600f8054905060105f8381526020019081526020015f2081905550600f81908060018154018082558091505060019003905f5260205f20015f909190919091505550565b5f600161287684611134565b61288091906146cb565b90505f600e5f8481526020019081526020015f20549050818114612957575f600d5f8673ffffffffffffffffffffffffffffffffffffffff1673ffffffffffffffffffffffffffffffffffffffff1681526020019081526020015f205f8481526020019081526020015f2054905080600d5f8773ffffffffffffffffffffffffffffffffffffffff1673ffffffffffffffffffffffffffffffffffffffff1681526020019081526020015f205f8481526020019081526020015f208190555081600e5f8381526020019081526020015f2081905550505b600e5f8481526020019081526020015f205f9055600d5f8573ffffffffffffffffffffffffffffffffffffffff1673ffffffffffffffffffffffffffffffffffffffff1681526020019081526020015f205f8381526020019081526020015f205f905550505050565b5f6001600f805490506129d391906146cb565b90505f60105f8481526020019081526020015f205490505f600f83815481106129ff576129fe613c09565b5b905f5260205f200154905080600f8381548110612a1f57612a1e613c09565b5b905f5260205f2001819055508160105f8381526020019081526020015f208190555060105f8581526020019081526020015f205f9055600f805480612a6757612a666146fe565b5b600190038181905f5260205f20015f9055905550505050565b5f612a8a83611134565b905081600d5f8573ffffffffffffffffffffffffffffffffffffffff1673ffffffffffffffffffffffffffffffffffffffff1681526020019081526020015f205f8381526020019081526020015f208190555080600e5f8481526020019081526020015f2081905550505050565b5f808273ffffffffffffffffffffffffffffffffffffffff163b119050919050565b5f73ffffffffffffffffffffffffffffffffffffffff168273ffffffffffffffffffffffffffffffffffffffff1603612b88576040517f08c379a0000000000000000000000000000000000000000000000000000000008152600401612b7f90614775565b60405180910390fd5b612b918161230a565b15612bd1576040517f08c379a0000000000000000000000000000000000000000000000000000000008152600401612bc8906147dd565b60405180910390fd5b612bde5f8383600161234a565b612be78161230a565b15612c27576040517f08c379a0000000000000000000000000000000000000000000000000000000008152600401612c1e906147dd565b60405180910390fd5b600160035f8473ffffffffffffffffffffffffffffffffffffffff1673ffffffffffffffffffffffffffffffffffffffff1681526020019081526020015f205f82825401925050819055508160025f8381526020019081526020015f205f6101000a81548173ffffffffffffffffffffffffffffffffffffffff021916908373ffffffffffffffffffffffffffffffffffffffff160217905550808273ffffffffffffffffffffffffffffffffffffffff165f73ffffffffffffffffffffffffffffffffffffffff167fddf252ad1be2c89b69c2b068fc378daa952ba7f163c4a11628f55a4df523b3ef60405160405180910390a4612d295f8383600161245c565b5050565b5f805f90507a184f03e93ff9f4daa797ed6e38ed64bf6a1f0100000000000000008310612d89577a184f03e93ff9f4daa797ed6e38ed64bf6a1f0100000000000000008381612d7f57612d7e61469e565b5b0492506040810190505b6d04ee2d6d415b85acef81000000008310612dc6576d04ee2d6d415b85acef81000000008381612dbc57612dbb61469e565b5b0492506020810190505b662386f26fc100008310612df557662386f26fc100008381612deb57612dea61469e565b5b0492506010810190505b6305f5e1008310612e1e576305f5e1008381612e1457612e1361469e565b5b0492506008810190505b6127108310612e43576127108381612e3957612e3861469e565b5b0492506004810190505b60648310612e665760648381612e5c57612e5b61469e565b5b0492506002810190505b600a8310612e75576001810190505b80915050919050565b60405180608001604052805f81526020015f81526020015f73ffffffffffffffffffffffffffffffffffffffff1681526020015f151581525090565b5f604051905090565b5f80fd5b5f80fd5b5f7fffffffff0000000000000000000000000000000000000000000000000000000082169050919050565b612eff81612ecb565b8114612f09575f80fd5b50565b5f81359050612f1a81612ef6565b92915050565b5f60208284031215612f3557612f34612ec3565b5b5f612f4284828501612f0c565b91505092915050565b5f8115159050919050565b612f5f81612f4b565b82525050565b5f602082019050612f785f830184612f56565b92915050565b5f81519050919050565b5f82825260208201905092915050565b5f5b83811015612fb5578082015181840152602081019050612f9a565b5f8484015250505050565b5f601f19601f8301169050919050565b5f612fda82612f7e565b612fe48185612f88565b9350612ff4818560208601612f98565b612ffd81612fc0565b840191505092915050565b5f6020820190508181035f8301526130208184612fd0565b905092915050565b5f819050919050565b61303a81613028565b8114613044575f80fd5b50565b5f8135905061305581613031565b92915050565b5f602082840312156130705761306f612ec3565b5b5f61307d84828501613047565b91505092915050565b5f73ffffffffffffffffffffffffffffffffffffffff82169050919050565b5f6130af82613086565b9050919050565b6130bf816130a5565b82525050565b5f6020820190506130d85f8301846130b6565b92915050565b6130e7816130a5565b81146130f1575f80fd5b50565b5f81359050613102816130de565b92915050565b5f806040838503121561311e5761311d612ec3565b5b5f61312b858286016130f4565b925050602061313c85828601613047565b9150509250929050565b61314f81613028565b82525050565b5f6020820190506131685f830184613146565b92915050565b5f806040838503121561318457613183612ec3565b5b5f61319185828601613047565b92505060206131a285828601613047565b9150509250929050565b5f805f606084860312156131c3576131c2612ec3565b5b5f6131d0868287016130f4565b93505060206131e1868287016130f4565b92505060406131f286828701613047565b9150509250925092565b5f81519050919050565b5f82825260208201905092915050565b5f819050602082019050919050565b61322e81613028565b82525050565b61323d816130a5565b82525050565b61324c81612f4b565b82525050565b608082015f8201516132665f850182613225565b5060208201516132796020850182613225565b50604082015161328c6040850182613234565b50606082015161329f6060850182613243565b50505050565b5f6132b08383613252565b60808301905092915050565b5f602082019050919050565b5f6132d2826131fc565b6132dc8185613206565b93506132e783613216565b805f5b838110156133175781516132fe88826132a5565b9750613309836132bc565b9250506001810190506132ea565b5085935050505092915050565b5f6020820190508181035f83015261333c81846132c8565b905092915050565b5f80fd5b5f80fd5b7f4e487b71000000000000000000000000000000000000000000000000000000005f52604160045260245ffd5b61338282612fc0565b810181811067ffffffffffffffff821117156133a1576133a061334c565b5b80604052505050565b5f6133b3612eba565b90506133bf8282613379565b919050565b5f67ffffffffffffffff8211156133de576133dd61334c565b5b6133e782612fc0565b9050602081019050919050565b828183375f83830152505050565b5f61341461340f846133c4565b6133aa565b9050828152602081018484840111156134305761342f613348565b5b61343b8482856133f4565b509392505050565b5f82601f83011261345757613456613344565b5b8135613467848260208601613402565b91505092915050565b5f6020828403121561348557613484612ec3565b5b5f82013567ffffffffffffffff8111156134a2576134a1612ec7565b5b6134ae84828501613443565b91505092915050565b608082015f8201516134cb5f850182613225565b5060208201516134de6020850182613225565b5060408201516134f16040850182613234565b5060608201516135046060850182613243565b50505050565b5f60808201905061351d5f8301846134b7565b92915050565b5f6020828403121561353857613537612ec3565b5b5f613545848285016130f4565b91505092915050565b61355781612f4b565b8114613561575f80fd5b50565b5f813590506135728161354e565b92915050565b5f806040838503121561358e5761358d612ec3565b5b5f61359b858286016130f4565b92505060206135ac85828601613564565b9150509250929050565b5f67ffffffffffffffff8211156135d0576135cf61334c565b5b6135d982612fc0565b9050602081019050919050565b5f6135f86135f3846135b6565b6133aa565b90508281526020810184848401111561361457613613613348565b5b61361f8482856133f4565b509392505050565b5f82601f83011261363b5761363a613344565b5b813561364b8482602086016135e6565b91505092915050565b5f805f806080858703121561366c5761366b612ec3565b5b5f613679878288016130f4565b945050602061368a878288016130f4565b935050604061369b87828801613047565b925050606085013567ffffffffffffffff8111156136bc576136bb612ec7565b5b6136c887828801613627565b91505092959194509250565b5f80604083850312156136ea576136e9612ec3565b5b5f83013567ffffffffffffffff81111561370757613706612ec7565b5b61371385828601613443565b925050602061372485828601613047565b9150509250929050565b5f806040838503121561374457613743612ec3565b5b5f613751858286016130f4565b9250506020613762858286016130f4565b9150509250929050565b7f4e487b71000000000000000000000000000000000000000000000000000000005f52602260045260245ffd5b5f60028204905060018216806137b057607f821691505b6020821081036137c3576137c261376c565b5b50919050565b7f4552433732313a20617070726f76616c20746f2063757272656e74206f776e655f8201527f7200000000000000000000000000000000000000000000000000000000000000602082015250565b5f613823602183612f88565b915061382e826137c9565b604082019050919050565b5f6020820190508181035f83015261385081613817565b9050919050565b7f4552433732313a20617070726f76652063616c6c6572206973206e6f7420746f5f8201527f6b656e206f776e6572206f7220617070726f76656420666f7220616c6c000000602082015250565b5f6138b1603d83612f88565b91506138bc82613857565b604082019050919050565b5f6020820190508181035f8301526138de816138a5565b9050919050565b7f596f7520617265206e6f74206f776e6572206f662074686973206e66740000005f82015250565b5f613919601d83612f88565b9150613924826138e5565b602082019050919050565b5f6020820190508181035f8301526139468161390d565b9050919050565b7f4974656d20697320616c7265616479206f6e2073616c650000000000000000005f82015250565b5f613981601783612f88565b915061398c8261394d565b602082019050919050565b5f6020820190508181035f8301526139ae81613975565b9050919050565b7f5072696365206d75737420626520657175616c20746f206c697374696e6720705f8201527f7269636500000000000000000000000000000000000000000000000000000000602082015250565b5f613a0f602483612f88565b9150613a1a826139b5565b604082019050919050565b5f6020820190508181035f830152613a3c81613a03565b9050919050565b7f4552433732313a2063616c6c6572206973206e6f7420746f6b656e206f776e655f8201527f72206f7220617070726f76656400000000000000000000000000000000000000602082015250565b5f613a9d602d83612f88565b9150613aa882613a43565b604082019050919050565b5f6020820190508181035f830152613aca81613a91565b9050919050565b7f596f7520616c7265616479206f776e2074686973204e465400000000000000005f82015250565b5f613b05601883612f88565b9150613b1082613ad1565b602082019050919050565b5f6020820190508181035f830152613b3281613af9565b9050919050565b7f506c65617365207375626d6974207468652061736b696e6720707269636500005f82015250565b5f613b6d601e83612f88565b9150613b7882613b39565b602082019050919050565b5f6020820190508181035f830152613b9a81613b61565b9050919050565b7f496e646578206f7574206f6620626f756e6473000000000000000000000000005f82015250565b5f613bd5601383612f88565b9150613be082613ba1565b602082019050919050565b5f6020820190508181035f830152613c0281613bc9565b9050919050565b7f4e487b71000000000000000000000000000000000000000000000000000000005f52603260045260245ffd5b7f4e487b71000000000000000000000000000000000000000000000000000000005f52601160045260245ffd5b5f613c6d82613028565b9150613c7883613028565b9250828201905080821115613c9057613c8f613c36565b5b92915050565b5f613ca082613028565b91507fffffffffffffffffffffffffffffffffffffffffffffffffffffffffffffffff8203613cd257613cd1613c36565b5b600182019050919050565b5f81905092915050565b5f613cf182612f7e565b613cfb8185613cdd565b9350613d0b818560208601612f98565b80840191505092915050565b5f613d228284613ce7565b915081905092915050565b7f4552433732313a20696e76616c696420746f6b656e20494400000000000000005f82015250565b5f613d61601883612f88565b9150613d6c82613d2d565b602082019050919050565b5f6020820190508181035f830152613d8e81613d55565b9050919050565b7f4552433732313a2061646472657373207a65726f206973206e6f7420612076615f8201527f6c6964206f776e65720000000000000000000000000000000000000000000000602082015250565b5f613def602983612f88565b9150613dfa82613d95565b604082019050919050565b5f6020820190508181035f830152613e1c81613de3565b9050919050565b7f5072696365206d757374206265206174206c65617374203120776569000000005f82015250565b5f613e57601c83612f88565b9150613e6282613e23565b602082019050919050565b5f6020820190508181035f830152613e8481613e4b565b9050919050565b7f546f6b656e2055524920616c72656164792065786973747300000000000000005f82015250565b5f613ebf601883612f88565b9150613eca82613e8b565b602082019050919050565b5f6020820190508181035f830152613eec81613eb3565b9050919050565b5f613efe8285613ce7565b9150613f0a8284613ce7565b91508190509392505050565b7f4f776e61626c653a206e6577206f776e657220697320746865207a65726f20615f8201527f6464726573730000000000000000000000000000000000000000000000000000602082015250565b5f613f70602683612f88565b9150613f7b82613f16565b604082019050919050565b5f6020820190508181035f830152613f9d81613f64565b9050919050565b7f4552433732313a207472616e736665722066726f6d20696e636f7272656374205f8201527f6f776e6572000000000000000000000000000000000000000000000000000000602082015250565b5f613ffe602583612f88565b915061400982613fa4565b604082019050919050565b5f6020820190508181035f83015261402b81613ff2565b9050919050565b7f4552433732313a207472616e7366657220746f20746865207a65726f206164645f8201527f7265737300000000000000000000000000000000000000000000000000000000602082015250565b5f61408c602483612f88565b915061409782614032565b604082019050919050565b5f6020820190508181035f8301526140b981614080565b9050919050565b7f436f756e7465723a2064656372656d656e74206f766572666c6f7700000000005f82015250565b5f6140f4601b83612f88565b91506140ff826140c0565b602082019050919050565b5f6020820190508181035f830152614121816140e8565b9050919050565b7f4f776e61626c653a2063616c6c6572206973206e6f7420746865206f776e65725f82015250565b5f61415c602083612f88565b915061416782614128565b602082019050919050565b5f6020820190508181035f83015261418981614150565b9050919050565b7f4552433732313a20617070726f766520746f2063616c6c6572000000000000005f82015250565b5f6141c4601983612f88565b91506141cf82614190565b602082019050919050565b5f6020820190508181035f8301526141f1816141b8565b9050919050565b7f4552433732313a207472616e7366657220746f206e6f6e2045524337323152655f8201527f63656976657220696d706c656d656e7465720000000000000000000000000000602082015250565b5f614252603283612f88565b915061425d826141f8565b604082019050919050565b5f6020820190508181035f83015261427f81614246565b9050919050565b7f45524337323155524953746f726167653a2055524920736574206f66206e6f6e5f8201527f6578697374656e7420746f6b656e000000000000000000000000000000000000602082015250565b5f6142e0602e83612f88565b91506142eb82614286565b604082019050919050565b5f6020820190508181035f83015261430d816142d4565b9050919050565b5f819050815f5260205f209050919050565b5f6020601f8301049050919050565b5f82821b905092915050565b5f600883026143707fffffffffffffffffffffffffffffffffffffffffffffffffffffffffffffffff82614335565b61437a8683614335565b95508019841693508086168417925050509392505050565b5f819050919050565b5f6143b56143b06143ab84613028565b614392565b613028565b9050919050565b5f819050919050565b6143ce8361439b565b6143e26143da826143bc565b848454614341565b825550505050565b5f90565b6143f66143ea565b6144018184846143c5565b505050565b5b81811015614424576144195f826143ee565b600181019050614407565b5050565b601f8211156144695761443a81614314565b61444384614326565b81016020851015614452578190505b61446661445e85614326565b830182614406565b50505b505050565b5f82821c905092915050565b5f6144895f198460080261446e565b1980831691505092915050565b5f6144a1838361447a565b9150826002028217905092915050565b6144ba82612f7e565b67ffffffffffffffff8111156144d3576144d261334c565b5b6144dd8254613799565b6144e8828285614428565b5f60209050601f831160018114614519575f8415614507578287015190505b6145118582614496565b865550614578565b601f19841661452786614314565b5f5b8281101561454e57848901518255600182019150602085019450602081019050614529565b8683101561456b5784890151614567601f89168261447a565b8355505b6001600288020188555050505b505050505050565b5f6080820190506145935f830187613146565b6145a06020830186613146565b6145ad60408301856130b6565b6145ba6060830184612f56565b95945050505050565b5f81519050919050565b5f82825260208201905092915050565b5f6145e7826145c3565b6145f181856145cd565b9350614601818560208601612f98565b61460a81612fc0565b840191505092915050565b5f6080820190506146285f8301876130b6565b61463560208301866130b6565b6146426040830185613146565b818103606083015261465481846145dd565b905095945050505050565b5f8151905061466d81612ef6565b92915050565b5f6020828403121561468857614687612ec3565b5b5f6146958482850161465f565b91505092915050565b7f4e487b71000000000000000000000000000000000000000000000000000000005f52601260045260245ffd5b5f6146d582613028565b91506146e083613028565b92508282039050818111156146f8576146f7613c36565b5b92915050565b7f4e487b71000000000000000000000000000000000000000000000000000000005f52603160045260245ffd5b7f4552433732313a206d696e7420746f20746865207a65726f20616464726573735f82015250565b5f61475f602083612f88565b915061476a8261472b565b602082019050919050565b5f6020820190508181035f83015261478c81614753565b9050919050565b7f4552433732313a20746f6b656e20616c7265616479206d696e746564000000005f82015250565b5f6147c7601c83612f88565b91506147d282614793565b602082019050919050565b5f6020820190508181035f8301526147f4816147bb565b905091905056fea26469706673582212202f77042c9d732c168cc8cc80454a72eb033795261836a773088635a1eba1983c64736f6c63430008150033",
  "immutableReferences": {},
  "source": "// SPDX-License-Identifier: MIT\npragma solidity >=0.4.22 <0.9.0;\n\nimport \"@openzeppelin/contracts/token/ERC721/extensions/ERC721URIStorage.sol\";\nimport \"@openzeppelin/contracts/utils/Counters.sol\";\nimport \"@openzeppelin/contracts/access/Ownable.sol\";\n\ncontract NftMarket is ERC721URIStorage, Ownable {\n    using Counters for Counters.Counter;\n\n    struct NftItem {\n        uint tokenId;\n        uint price;\n        address creator;\n        bool isListed;\n    }\n\n    uint public listingPrice = 0.025 ether;\n\n    Counters.Counter private _listedItems;\n    Counters.Counter private _tokenIds;\n\n    mapping(string => bool) private _usedTokenURIs;\n    mapping(uint => NftItem) private _idToNftItem;\n\n    mapping(address => mapping(uint => uint)) private _ownedTokens;\n    mapping(uint => uint) private _idToOwnedIndex;\n\n    uint256[] private _allNfts;\n    mapping(uint => uint) private _idToNftIndex;\n\n    event NftItemCreated(\n        uint tokenId,\n        uint price,\n        address creator,\n        bool isListed\n    );\n\n    constructor() ERC721(\"CreaturesNFT\", \"CNFT\") {}\n\n    function setListingPrice(uint newPrice) external onlyOwner {\n        require(newPrice > 0, \"Price must be at least 1 wei\");\n        listingPrice = newPrice;\n    }\n\n    function getNftItem(uint tokenId) public view returns (NftItem memory) {\n        return _idToNftItem[tokenId];\n    }\n\n    function listedItemsCount() public view returns (uint) {\n        return _listedItems.current();\n    }\n\n    function tokenURIExists(string memory tokenURI) public view returns (bool) {\n        return _usedTokenURIs[tokenURI] == true;\n    }\n\n    function totalSupply() public view returns (uint) {\n        return _allNfts.length;\n    }\n\n    function tokenByIndex(uint index) public view returns (uint) {\n        require(index < totalSupply(), \"Index out of bounds\");\n        return _allNfts[index];\n    }\n\n    function tokenOfOwnerByIndex(\n        address owner,\n        uint index\n    ) public view returns (uint) {\n        require(index < ERC721.balanceOf(owner), \"Index out of bounds\");\n        return _ownedTokens[owner][index];\n    }\n\n    function getAllNftsOnSale() public view returns (NftItem[] memory) {\n        uint allItemsCounts = totalSupply();\n        uint currentIndex = 0;\n        NftItem[] memory items = new NftItem[](_listedItems.current());\n\n        for (uint i = 0; i < allItemsCounts; i++) {\n            uint tokenId = tokenByIndex(i);\n            NftItem storage item = _idToNftItem[tokenId];\n\n            if (item.isListed == true) {\n                items[currentIndex] = item;\n                currentIndex += 1;\n            }\n        }\n\n        return items;\n    }\n\n    function getOwnedNfts() public view returns (NftItem[] memory) {\n        uint ownedItemsCount = ERC721.balanceOf(msg.sender);\n        NftItem[] memory items = new NftItem[](ownedItemsCount);\n\n        for (uint i = 0; i < ownedItemsCount; i++) {\n            uint tokenId = tokenOfOwnerByIndex(msg.sender, i);\n            NftItem storage item = _idToNftItem[tokenId];\n            items[i] = item;\n        }\n\n        return items;\n    }\n\n    function mintToken(\n        string memory tokenURI,\n        uint price\n    ) public payable returns (uint) {\n        require(!tokenURIExists(tokenURI), \"Token URI already exists\");\n        require(\n            msg.value == listingPrice,\n            \"Price must be equal to listing price\"\n        );\n\n        _tokenIds.increment();\n        _listedItems.increment();\n\n        uint newTokenId = _tokenIds.current();\n\n        _safeMint(msg.sender, newTokenId);\n        _setTokenURI(newTokenId, tokenURI);\n        _createNftItem(newTokenId, price);\n        _usedTokenURIs[tokenURI] = true;\n\n        return newTokenId;\n    }\n\n    function buyNft(uint tokenId) public payable {\n        uint price = _idToNftItem[tokenId].price;\n        address owner = ERC721.ownerOf(tokenId);\n\n        require(msg.sender != owner, \"You already own this NFT\");\n        require(msg.value == price, \"Please submit the asking price\");\n\n        _idToNftItem[tokenId].isListed = false;\n        _listedItems.decrement();\n\n        _transfer(owner, msg.sender, tokenId);\n        payable(owner).transfer(msg.value);\n    }\n\n    function placeNftOnSale(uint tokenId, uint newPrice) public payable {\n        require(\n            ERC721.ownerOf(tokenId) == msg.sender,\n            \"You are not owner of this nft\"\n        );\n        require(\n            _idToNftItem[tokenId].isListed == false,\n            \"Item is already on sale\"\n        );\n        require(\n            msg.value == listingPrice,\n            \"Price must be equal to listing price\"\n        );\n\n        _idToNftItem[tokenId].isListed = true;\n        _idToNftItem[tokenId].price = newPrice;\n        _listedItems.increment();\n    }\n\n    function _createNftItem(uint tokenId, uint price) private {\n        require(price > 0, \"Price must be at least 1 wei\");\n\n        _idToNftItem[tokenId] = NftItem(tokenId, price, msg.sender, true);\n\n        emit NftItemCreated(tokenId, price, msg.sender, true);\n    }\n\n    function _beforeTokenTransfer(\n        address from,\n        address to,\n        uint tokenId,\n        uint256 batchSize\n    ) internal virtual override {\n        super._beforeTokenTransfer(from, to, tokenId, batchSize);\n\n        if (from == address(0)) {\n            _addTokenToAllTokensEnumeration(tokenId);\n        } else if (from != to) {\n            _removeTokenFromOwnerEnumeration(from, tokenId);\n        }\n\n        if (to == address(0)) {\n            _removeTokenFromAllTokensEnumeration(tokenId);\n        } else if (to != from) {\n            _addTokenToOwnerEnumeration(to, tokenId);\n        }\n    }\n\n    function _addTokenToAllTokensEnumeration(uint tokenId) private {\n        _idToNftIndex[tokenId] = _allNfts.length;\n        _allNfts.push(tokenId);\n    }\n\n    function _addTokenToOwnerEnumeration(address to, uint tokenId) private {\n        uint length = ERC721.balanceOf(to);\n        _ownedTokens[to][length] = tokenId;\n        _idToOwnedIndex[tokenId] = length;\n    }\n\n    function _removeTokenFromOwnerEnumeration(\n        address from,\n        uint tokenId\n    ) private {\n        uint lastTokenIndex = ERC721.balanceOf(from) - 1;\n        uint tokenIndex = _idToOwnedIndex[tokenId];\n\n        if (tokenIndex != lastTokenIndex) {\n            uint lastTokenId = _ownedTokens[from][lastTokenIndex];\n\n            _ownedTokens[from][tokenIndex] = lastTokenId;\n            _idToOwnedIndex[lastTokenId] = tokenIndex;\n        }\n\n        delete _idToOwnedIndex[tokenId];\n        delete _ownedTokens[from][lastTokenIndex];\n    }\n\n    function _removeTokenFromAllTokensEnumeration(uint tokenId) private {\n        uint lastTokenIndex = _allNfts.length - 1;\n        uint tokenIndex = _idToNftIndex[tokenId];\n        uint lastTokenId = _allNfts[lastTokenIndex];\n\n        _allNfts[tokenIndex] = lastTokenId;\n        _idToNftIndex[lastTokenId] = tokenIndex;\n\n        delete _idToNftIndex[tokenId];\n        _allNfts.pop();\n    }\n}\n",
  "sourcePath": "/Users/lbd/Downloads/MXC LLC/work/token-airdrop-x2e/token-airdrop-x2e-2/contracts/contracts/NftMarket.sol",
  "compiler": {
    "name": "solc",
    "version": "0.8.21+commit.d9974bed.Emscripten.clang"
  },
  "schemaVersion": "3.4.16",
  "updatedAt": "2024-04-05T20:38:50.612Z",
  "devdoc": {
    "events": {
      "Approval(address,address,uint256)": {
        "details": "Emitted when `owner` enables `approved` to manage the `tokenId` token."
      },
      "ApprovalForAll(address,address,bool)": {
        "details": "Emitted when `owner` enables or disables (`approved`) `operator` to manage all of its assets."
      },
      "Transfer(address,address,uint256)": {
        "details": "Emitted when `tokenId` token is transferred from `from` to `to`."
      }
    },
    "kind": "dev",
    "methods": {
      "approve(address,uint256)": {
        "details": "See {IERC721-approve}."
      },
      "balanceOf(address)": {
        "details": "See {IERC721-balanceOf}."
      },
      "getApproved(uint256)": {
        "details": "See {IERC721-getApproved}."
      },
      "isApprovedForAll(address,address)": {
        "details": "See {IERC721-isApprovedForAll}."
      },
      "name()": {
        "details": "See {IERC721Metadata-name}."
      },
      "owner()": {
        "details": "Returns the address of the current owner."
      },
      "ownerOf(uint256)": {
        "details": "See {IERC721-ownerOf}."
      },
      "renounceOwnership()": {
        "details": "Leaves the contract without owner. It will not be possible to call `onlyOwner` functions anymore. Can only be called by the current owner. NOTE: Renouncing ownership will leave the contract without an owner, thereby removing any functionality that is only available to the owner."
      },
      "safeTransferFrom(address,address,uint256)": {
        "details": "See {IERC721-safeTransferFrom}."
      },
      "safeTransferFrom(address,address,uint256,bytes)": {
        "details": "See {IERC721-safeTransferFrom}."
      },
      "setApprovalForAll(address,bool)": {
        "details": "See {IERC721-setApprovalForAll}."
      },
      "supportsInterface(bytes4)": {
        "details": "See {IERC165-supportsInterface}."
      },
      "symbol()": {
        "details": "See {IERC721Metadata-symbol}."
      },
      "tokenURI(uint256)": {
        "details": "See {IERC721Metadata-tokenURI}."
      },
      "transferFrom(address,address,uint256)": {
        "details": "See {IERC721-transferFrom}."
      },
      "transferOwnership(address)": {
        "details": "Transfers ownership of the contract to a new account (`newOwner`). Can only be called by the current owner."
      }
    },
    "version": 1
  },
  "userdoc": {
    "kind": "user",
    "methods": {},
    "version": 1
  }
}