{
  "contractName": "Ownable",
  "abi": [
    {
      "inputs": [
        {
          "internalType": "address",
          "name": "owner_",
          "type": "address"
        }
      ],
      "stateMutability": "nonpayable",
      "type": "constructor"
    },
    {
      "anonymous": false,
      "inputs": [
        {
          "indexed": true,
          "internalType": "address",
          "name": "previousOwner",
          "type": "address"
        },
        {
          "indexed": true,
          "internalType": "address",
          "name": "newOwner",
          "type": "address"
        }
      ],
      "name": "OwnershipTransferred",
      "type": "event"
    },
    {
      "inputs": [],
      "name": "owner",
      "outputs": [
        {
          "internalType": "address",
          "name": "",
          "type": "address"
        }
      ],
      "stateMutability": "view",
      "type": "function"
    },
    {
      "inputs": [
        {
          "internalType": "address",
          "name": "nextOwner_",
          "type": "address"
        }
      ],
      "name": "transferOwnership",
      "outputs": [],
      "stateMutability": "nonpayable",
      "type": "function"
    },
    {
      "inputs": [],
      "name": "cancelOwnershipTransfer",
      "outputs": [],
      "stateMutability": "nonpayable",
      "type": "function"
    },
    {
      "inputs": [],
      "name": "acceptOwnership",
      "outputs": [],
      "stateMutability": "nonpayable",
      "type": "function"
    },
    {
      "inputs": [],
      "name": "renounceOwnership",
      "outputs": [],
      "stateMutability": "nonpayable",
      "type": "function"
    },
    {
      "inputs": [],
      "name": "isOwner",
      "outputs": [
        {
          "internalType": "bool",
          "name": "",
          "type": "bool"
        }
      ],
      "stateMutability": "view",
      "type": "function"
    },
    {
      "inputs": [],
      "name": "isNextOwner",
      "outputs": [
        {
          "internalType": "bool",
          "name": "",
          "type": "bool"
        }
      ],
      "stateMutability": "view",
      "type": "function"
    }
  ],
  "bytecode": "0x608060405234801561000f575f80fd5b506040516109833803806109838339818101604052810190610031919061014d565b805f806101000a81548173ffffffffffffffffffffffffffffffffffffffff021916908373ffffffffffffffffffffffffffffffffffffffff1602179055505f8054906101000a900473ffffffffffffffffffffffffffffffffffffffff1673ffffffffffffffffffffffffffffffffffffffff165f73ffffffffffffffffffffffffffffffffffffffff167f8be0079c531659141344cd1fd0a4f28419497f9722a3daafe3b4186f6b6457e060405160405180910390a350610178565b5f80fd5b5f73ffffffffffffffffffffffffffffffffffffffff82169050919050565b5f61011c826100f3565b9050919050565b61012c81610112565b8114610136575f80fd5b50565b5f8151905061014781610123565b92915050565b5f60208284031215610162576101616100ef565b5b5f61016f84828501610139565b91505092915050565b6107fe806101855f395ff3fe608060405234801561000f575f80fd5b506004361061007b575f3560e01c80638da5cb5b116100595780638da5cb5b1461009d5780638f32d59b146100bb578063ed459df2146100d9578063f2fde38b146100f75761007b565b806323452b9c1461007f578063715018a61461008957806379ba509714610093575b5f80fd5b610087610113565b005b610091610180565b005b61009b6101d1565b005b6100a56102f6565b6040516100b291906105b5565b60405180910390f35b6100c3610319565b6040516100d091906105e8565b60405180910390f35b6100e161036e565b6040516100ee91906105e8565b60405180910390f35b610111600480360381019061010c919061062f565b6103c4565b005b61011b610319565b61015a576040517f08c379a0000000000000000000000000000000000000000000000000000000008152600401610151906106b4565b60405180910390fd5b60015f6101000a81549073ffffffffffffffffffffffffffffffffffffffff0219169055565b610188610319565b6101c7576040517f08c379a00000000000000000000000000000000000000000000000000000000081526004016101be906106b4565b60405180910390fd5b6101cf6104bc565b565b6101d961036e565b610218576040517f08c379a000000000000000000000000000000000000000000000000000000000815260040161020f90610742565b60405180910390fd5b60015f6101000a81549073ffffffffffffffffffffffffffffffffffffffff0219169055335f806101000a81548173ffffffffffffffffffffffffffffffffffffffff021916908373ffffffffffffffffffffffffffffffffffffffff1602179055503373ffffffffffffffffffffffffffffffffffffffff165f8054906101000a900473ffffffffffffffffffffffffffffffffffffffff1673ffffffffffffffffffffffffffffffffffffffff167f8be0079c531659141344cd1fd0a4f28419497f9722a3daafe3b4186f6b6457e060405160405180910390a3565b5f8054906101000a900473ffffffffffffffffffffffffffffffffffffffff1681565b5f805f9054906101000a900473ffffffffffffffffffffffffffffffffffffffff1673ffffffffffffffffffffffffffffffffffffffff163373ffffffffffffffffffffffffffffffffffffffff1614905090565b5f60015f9054906101000a900473ffffffffffffffffffffffffffffffffffffffff1673ffffffffffffffffffffffffffffffffffffffff163373ffffffffffffffffffffffffffffffffffffffff1614905090565b6103cc610319565b61040b576040517f08c379a0000000000000000000000000000000000000000000000000000000008152600401610402906106b4565b60405180910390fd5b5f73ffffffffffffffffffffffffffffffffffffffff168173ffffffffffffffffffffffffffffffffffffffff1603610479576040517f08c379a0000000000000000000000000000000000000000000000000000000008152600401610470906107aa565b60405180910390fd5b8060015f6101000a81548173ffffffffffffffffffffffffffffffffffffffff021916908373ffffffffffffffffffffffffffffffffffffffff16021790555050565b5f73ffffffffffffffffffffffffffffffffffffffff165f8054906101000a900473ffffffffffffffffffffffffffffffffffffffff1673ffffffffffffffffffffffffffffffffffffffff167f8be0079c531659141344cd1fd0a4f28419497f9722a3daafe3b4186f6b6457e060405160405180910390a35f805f6101000a81548173ffffffffffffffffffffffffffffffffffffffff021916908373ffffffffffffffffffffffffffffffffffffffff160217905550565b5f73ffffffffffffffffffffffffffffffffffffffff82169050919050565b5f61059f82610576565b9050919050565b6105af81610595565b82525050565b5f6020820190506105c85f8301846105a6565b92915050565b5f8115159050919050565b6105e2816105ce565b82525050565b5f6020820190506105fb5f8301846105d9565b92915050565b5f80fd5b61060e81610595565b8114610618575f80fd5b50565b5f8135905061062981610605565b92915050565b5f6020828403121561064457610643610601565b5b5f6106518482850161061b565b91505092915050565b5f82825260208201905092915050565b7f63616c6c6572206973206e6f7420746865206f776e65722e00000000000000005f82015250565b5f61069e60188361065a565b91506106a98261066a565b602082019050919050565b5f6020820190508181035f8301526106cb81610692565b9050919050565b7f63757272656e74206f776e6572206d757374207365742063616c6c65722061735f8201527f206e657874206f776e65722e0000000000000000000000000000000000000000602082015250565b5f61072c602c8361065a565b9150610737826106d2565b604082019050919050565b5f6020820190508181035f83015261075981610720565b9050919050565b7f4e657874206f776e657220697320746865207a65726f20616464726573732e005f82015250565b5f610794601f8361065a565b915061079f82610760565b602082019050919050565b5f6020820190508181035f8301526107c181610788565b905091905056fea2646970667358221220a3b2b4375f513b79f63430ec75454e65192d2e0a0a755fb72f8eb3bc9fd3119d64736f6c63430008150033",
  "immutableReferences": {},
  "source": "// SPDX-License-Identifier: MIT\n// pragma solidity 0.8.17;\npragma solidity ^0.8.0;\n\ninterface IOwnableEvents {\n    event OwnershipTransferred(\n        address indexed previousOwner,\n        address indexed newOwner\n    );\n}\n\ncontract Ownable is IOwnableEvents {\n    address public owner;\n    address private nextOwner;\n\n    // modifiers\n\n    modifier onlyOwner() {\n        require(isOwner(), \"caller is not the owner.\");\n        _;\n    }\n\n    modifier onlyNextOwner() {\n        require(isNextOwner(), \"current owner must set caller as next owner.\");\n        _;\n    }\n\n    /**\n     * @dev Initialize contract by setting transaction submitter as initial owner.\n     */\n    constructor(address owner_) {\n        owner = owner_;\n        emit OwnershipTransferred(address(0), owner);\n    }\n\n    /**\n     * @dev Initiate ownership transfer by setting nextOwner.\n     */\n    function transferOwnership(address nextOwner_) external onlyOwner {\n        require(nextOwner_ != address(0), \"Next owner is the zero address.\");\n\n        nextOwner = nextOwner_;\n    }\n\n    /**\n     * @dev Cancel ownership transfer by deleting nextOwner.\n     */\n    function cancelOwnershipTransfer() external onlyOwner {\n        delete nextOwner;\n    }\n\n    /**\n     * @dev Accepts ownership transfer by setting owner.\n     */\n    function acceptOwnership() external onlyNextOwner {\n        delete nextOwner;\n\n        owner = msg.sender;\n\n        emit OwnershipTransferred(owner, msg.sender);\n    }\n\n    /**\n     * @dev Renounce ownership by setting owner to zero address.\n     */\n    function renounceOwnership() external onlyOwner {\n        _renounceOwnership();\n    }\n\n    /**\n     * @dev Returns true if the caller is the current owner.\n     */\n    function isOwner() public view returns (bool) {\n        return msg.sender == owner;\n    }\n\n    /**\n     * @dev Returns true if the caller is the next owner.\n     */\n    function isNextOwner() public view returns (bool) {\n        return msg.sender == nextOwner;\n    }\n\n    function _setOwner(address previousOwner, address newOwner) internal {\n        owner = newOwner;\n        emit OwnershipTransferred(previousOwner, owner);\n    }\n\n    function _renounceOwnership() internal {\n        emit OwnershipTransferred(owner, address(0));\n\n        owner = address(0);\n    }\n}\n",
  "sourcePath": "/Users/lbd/Downloads/MXC LLC/work/token-airdrop-x2e/token-airdrop-x2e-2/contracts/contracts/lib/Ownable.sol",
  "compiler": {
    "name": "solc",
    "version": "0.8.21+commit.d9974bed.Emscripten.clang"
  },
  "schemaVersion": "3.4.16",
  "updatedAt": "2024-04-05T20:38:50.427Z",
  "devdoc": {
    "kind": "dev",
    "methods": {
      "acceptOwnership()": {
        "details": "Accepts ownership transfer by setting owner."
      },
      "cancelOwnershipTransfer()": {
        "details": "Cancel ownership transfer by deleting nextOwner."
      },
      "constructor": {
        "details": "Initialize contract by setting transaction submitter as initial owner."
      },
      "isNextOwner()": {
        "details": "Returns true if the caller is the next owner."
      },
      "isOwner()": {
        "details": "Returns true if the caller is the current owner."
      },
      "renounceOwnership()": {
        "details": "Renounce ownership by setting owner to zero address."
      },
      "transferOwnership(address)": {
        "details": "Initiate ownership transfer by setting nextOwner."
      }
    },
    "version": 1
  },
  "userdoc": {
    "kind": "user",
    "methods": {},
    "version": 1
  }
}