{
  "contractName": "Airdrop",
  "abi": [
    {
      "inputs": [],
      "stateMutability": "nonpayable",
      "type": "constructor"
    },
    {
      "anonymous": false,
      "inputs": [
        {
          "indexed": true,
          "internalType": "address",
          "name": "previousOwner",
          "type": "address"
        },
        {
          "indexed": true,
          "internalType": "address",
          "name": "newOwner",
          "type": "address"
        }
      ],
      "name": "OwnershipTransferred",
      "type": "event"
    },
    {
      "inputs": [],
      "name": "acceptOwnership",
      "outputs": [],
      "stateMutability": "nonpayable",
      "type": "function"
    },
    {
      "inputs": [],
      "name": "cancelOwnershipTransfer",
      "outputs": [],
      "stateMutability": "nonpayable",
      "type": "function"
    },
    {
      "inputs": [],
      "name": "isNextOwner",
      "outputs": [
        {
          "internalType": "bool",
          "name": "",
          "type": "bool"
        }
      ],
      "stateMutability": "view",
      "type": "function",
      "constant": true
    },
    {
      "inputs": [],
      "name": "isOwner",
      "outputs": [
        {
          "internalType": "bool",
          "name": "",
          "type": "bool"
        }
      ],
      "stateMutability": "view",
      "type": "function",
      "constant": true
    },
    {
      "inputs": [],
      "name": "owner",
      "outputs": [
        {
          "internalType": "address",
          "name": "",
          "type": "address"
        }
      ],
      "stateMutability": "view",
      "type": "function",
      "constant": true
    },
    {
      "inputs": [],
      "name": "renounceOwnership",
      "outputs": [],
      "stateMutability": "nonpayable",
      "type": "function"
    },
    {
      "inputs": [
        {
          "internalType": "address",
          "name": "nextOwner_",
          "type": "address"
        }
      ],
      "name": "transferOwnership",
      "outputs": [],
      "stateMutability": "nonpayable",
      "type": "function"
    },
    {
      "inputs": [
        {
          "internalType": "address",
          "name": "token",
          "type": "address"
        },
        {
          "internalType": "address[]",
          "name": "_recipients",
          "type": "address[]"
        },
        {
          "internalType": "uint256[]",
          "name": "amount",
          "type": "uint256[]"
        }
      ],
      "name": "airdropTokens",
      "outputs": [],
      "stateMutability": "nonpayable",
      "type": "function"
    }
  ],
  "bytecode": "0x608060405234801561001057600080fd5b5033806000806101000a81548173ffffffffffffffffffffffffffffffffffffffff021916908373ffffffffffffffffffffffffffffffffffffffff16021790555060008054906101000a900473ffffffffffffffffffffffffffffffffffffffff1673ffffffffffffffffffffffffffffffffffffffff16600073ffffffffffffffffffffffffffffffffffffffff167f8be0079c531659141344cd1fd0a4f28419497f9722a3daafe3b4186f6b6457e060405160405180910390a350610fe1806100dd6000396000f3fe608060405234801561001057600080fd5b50600436106100885760003560e01c80638da5cb5b1161005b5780638da5cb5b146100c75780638f32d59b146100e5578063ed459df214610103578063f2fde38b1461012157610088565b806323452b9c1461008d5780634022b75e14610097578063715018a6146100b357806379ba5097146100bd575b600080fd5b61009561013d565b005b6100b160048036038101906100ac9190610a6d565b6101ab565b005b6100bb6103a5565b005b6100c56103f6565b005b6100cf61051e565b6040516100dc9190610b07565b60405180910390f35b6100ed610542565b6040516100fa9190610b3d565b60405180910390f35b61010b610599565b6040516101189190610b3d565b60405180910390f35b61013b60048036038101906101369190610b58565b6105f1565b005b610145610542565b610184576040517f08c379a000000000000000000000000000000000000000000000000000000000815260040161017b90610be2565b60405180910390fd5b600160006101000a81549073ffffffffffffffffffffffffffffffffffffffff0219169055565b80518251146101ef576040517f08c379a00000000000000000000000000000000000000000000000000000000081526004016101e690610c74565b60405180910390fd5b3373ffffffffffffffffffffffffffffffffffffffff168373ffffffffffffffffffffffffffffffffffffffff16638da5cb5b6040518163ffffffff1660e01b8152600401602060405180830381865afa158015610251573d6000803e3d6000fd5b505050506040513d601f19601f820116820180604052508101906102759190610ca9565b73ffffffffffffffffffffffffffffffffffffffff16146102cb576040517f08c379a00000000000000000000000000000000000000000000000000000000081526004016102c290610d48565b60405180910390fd5b60005b825181101561039f578373ffffffffffffffffffffffffffffffffffffffff166323b872dd3385848151811061030757610306610d68565b5b602002602001015185858151811061032257610321610d68565b5b60200260200101516040518463ffffffff1660e01b815260040161034893929190610da6565b6020604051808303816000875af1158015610367573d6000803e3d6000fd5b505050506040513d601f19601f8201168201806040525081019061038b9190610e09565b50808061039790610e65565b9150506102ce565b50505050565b6103ad610542565b6103ec576040517f08c379a00000000000000000000000000000000000000000000000000000000081526004016103e390610be2565b60405180910390fd5b6103f46106eb565b565b6103fe610599565b61043d576040517f08c379a000000000000000000000000000000000000000000000000000000000815260040161043490610f1f565b60405180910390fd5b600160006101000a81549073ffffffffffffffffffffffffffffffffffffffff0219169055336000806101000a81548173ffffffffffffffffffffffffffffffffffffffff021916908373ffffffffffffffffffffffffffffffffffffffff1602179055503373ffffffffffffffffffffffffffffffffffffffff1660008054906101000a900473ffffffffffffffffffffffffffffffffffffffff1673ffffffffffffffffffffffffffffffffffffffff167f8be0079c531659141344cd1fd0a4f28419497f9722a3daafe3b4186f6b6457e060405160405180910390a3565b60008054906101000a900473ffffffffffffffffffffffffffffffffffffffff1681565b60008060009054906101000a900473ffffffffffffffffffffffffffffffffffffffff1673ffffffffffffffffffffffffffffffffffffffff163373ffffffffffffffffffffffffffffffffffffffff1614905090565b6000600160009054906101000a900473ffffffffffffffffffffffffffffffffffffffff1673ffffffffffffffffffffffffffffffffffffffff163373ffffffffffffffffffffffffffffffffffffffff1614905090565b6105f9610542565b610638576040517f08c379a000000000000000000000000000000000000000000000000000000000815260040161062f90610be2565b60405180910390fd5b600073ffffffffffffffffffffffffffffffffffffffff168173ffffffffffffffffffffffffffffffffffffffff16036106a7576040517f08c379a000000000000000000000000000000000000000000000000000000000815260040161069e90610f8b565b60405180910390fd5b80600160006101000a81548173ffffffffffffffffffffffffffffffffffffffff021916908373ffffffffffffffffffffffffffffffffffffffff16021790555050565b600073ffffffffffffffffffffffffffffffffffffffff1660008054906101000a900473ffffffffffffffffffffffffffffffffffffffff1673ffffffffffffffffffffffffffffffffffffffff167f8be0079c531659141344cd1fd0a4f28419497f9722a3daafe3b4186f6b6457e060405160405180910390a360008060006101000a81548173ffffffffffffffffffffffffffffffffffffffff021916908373ffffffffffffffffffffffffffffffffffffffff160217905550565b6000604051905090565b600080fd5b600080fd5b600073ffffffffffffffffffffffffffffffffffffffff82169050919050565b60006107e8826107bd565b9050919050565b6107f8816107dd565b811461080357600080fd5b50565b600081359050610815816107ef565b92915050565b600080fd5b6000601f19601f8301169050919050565b7f4e487b7100000000000000000000000000000000000000000000000000000000600052604160045260246000fd5b61086982610820565b810181811067ffffffffffffffff8211171561088857610887610831565b5b80604052505050565b600061089b6107a9565b90506108a78282610860565b919050565b600067ffffffffffffffff8211156108c7576108c6610831565b5b602082029050602081019050919050565b600080fd5b60006108f06108eb846108ac565b610891565b90508083825260208201905060208402830185811115610913576109126108d8565b5b835b8181101561093c57806109288882610806565b845260208401935050602081019050610915565b5050509392505050565b600082601f83011261095b5761095a61081b565b5b813561096b8482602086016108dd565b91505092915050565b600067ffffffffffffffff82111561098f5761098e610831565b5b602082029050602081019050919050565b6000819050919050565b6109b3816109a0565b81146109be57600080fd5b50565b6000813590506109d0816109aa565b92915050565b60006109e96109e484610974565b610891565b90508083825260208201905060208402830185811115610a0c57610a0b6108d8565b5b835b81811015610a355780610a2188826109c1565b845260208401935050602081019050610a0e565b5050509392505050565b600082601f830112610a5457610a5361081b565b5b8135610a648482602086016109d6565b91505092915050565b600080600060608486031215610a8657610a856107b3565b5b6000610a9486828701610806565b935050602084013567ffffffffffffffff811115610ab557610ab46107b8565b5b610ac186828701610946565b925050604084013567ffffffffffffffff811115610ae257610ae16107b8565b5b610aee86828701610a3f565b9150509250925092565b610b01816107dd565b82525050565b6000602082019050610b1c6000830184610af8565b92915050565b60008115159050919050565b610b3781610b22565b82525050565b6000602082019050610b526000830184610b2e565b92915050565b600060208284031215610b6e57610b6d6107b3565b5b6000610b7c84828501610806565b91505092915050565b600082825260208201905092915050565b7f63616c6c6572206973206e6f7420746865206f776e65722e0000000000000000600082015250565b6000610bcc601883610b85565b9150610bd782610b96565b602082019050919050565b60006020820190508181036000830152610bfb81610bbf565b9050919050565b7f41697264726f703a20526563697069656e747320616e6420616d6f756e74206c60008201527f656e677468206d69736d61746368000000000000000000000000000000000000602082015250565b6000610c5e602e83610b85565b9150610c6982610c02565b604082019050919050565b60006020820190508181036000830152610c8d81610c51565b9050919050565b600081519050610ca3816107ef565b92915050565b600060208284031215610cbf57610cbe6107b3565b5b6000610ccd84828501610c94565b91505092915050565b7f41697264726f703a204f6e6c7920746f6b656e206f776e65722063616e20616960008201527f7264726f7020746f6b656e730000000000000000000000000000000000000000602082015250565b6000610d32602c83610b85565b9150610d3d82610cd6565b604082019050919050565b60006020820190508181036000830152610d6181610d25565b9050919050565b7f4e487b7100000000000000000000000000000000000000000000000000000000600052603260045260246000fd5b610da0816109a0565b82525050565b6000606082019050610dbb6000830186610af8565b610dc86020830185610af8565b610dd56040830184610d97565b949350505050565b610de681610b22565b8114610df157600080fd5b50565b600081519050610e0381610ddd565b92915050565b600060208284031215610e1f57610e1e6107b3565b5b6000610e2d84828501610df4565b91505092915050565b7f4e487b7100000000000000000000000000000000000000000000000000000000600052601160045260246000fd5b6000610e70826109a0565b91507fffffffffffffffffffffffffffffffffffffffffffffffffffffffffffffffff8203610ea257610ea1610e36565b5b600182019050919050565b7f63757272656e74206f776e6572206d757374207365742063616c6c657220617360008201527f206e657874206f776e65722e0000000000000000000000000000000000000000602082015250565b6000610f09602c83610b85565b9150610f1482610ead565b604082019050919050565b60006020820190508181036000830152610f3881610efc565b9050919050565b7f4e657874206f776e657220697320746865207a65726f20616464726573732e00600082015250565b6000610f75601f83610b85565b9150610f8082610f3f565b602082019050919050565b60006020820190508181036000830152610fa481610f68565b905091905056fea2646970667358221220d12ca5baccf0c62442eba9d6d4820fcd3c5dfbbf09fe18efebcc7565d7b6616364736f6c634300080d0033",
  "immutableReferences": {},
  "source": "// SPDX-License-Identifier: MIT\n// pragma solidity =0.8.17;\npragma solidity ^0.8.0;\n\nimport \"./interface/IERC20.sol\";\nimport \"./lib/Ownable.sol\";\n\n/// @notice Used to check if the airdrop administrator owns the token contract\ninterface IOwnable {\n    function isOwner() external view returns (bool);\n    function owner() external view returns (address);\n}\n\ncontract Airdrop is Ownable {\n    constructor() Ownable(msg.sender) {}\n\n    /// @notice Airdrop `token` to a list of `_recipients`\n    /// @param token Token you want to airdrop\n    /// @param _recipients List of recipients to airdrop\n    /// @param amount List of amounts per user\n    function airdropTokens(\n        address token,\n        address[] memory _recipients,\n        uint256[] memory amount\n    ) external {\n        require(\n            _recipients.length == amount.length,\n            \"Airdrop: Recipients and amount length mismatch\"\n        );\n        require(\n            IOwnable(token).owner() == msg.sender,\n            \"Airdrop: Only token owner can airdrop tokens\"\n        );\n        for (uint256 i = 0; i < _recipients.length; i++) {\n            IERC20(token).transferFrom(msg.sender, _recipients[i], amount[i]);\n        }\n    }\n}\n",
  "sourcePath": "/Users/lbd/Downloads/MXC LLC/work/token-airdrop-x2e/token-airdrop-x2e/contracts/contracts/Airdrop.sol",
  "compiler": {
    "name": "solc",
    "version": "0.8.13+commit.abaa5c0e.Emscripten.clang"
  },
  "schemaVersion": "3.4.16",
  "updatedAt": "2024-04-04T07:49:11.063Z",
  "networkType": "ethereum",
  "devdoc": {
    "kind": "dev",
    "methods": {
      "acceptOwnership()": {
        "details": "Accepts ownership transfer by setting owner."
      },
      "airdropTokens(address,address[],uint256[])": {
        "params": {
          "_recipients": "List of recipients to airdrop",
          "amount": "List of amounts per user",
          "token": "Token you want to airdrop"
        }
      },
      "cancelOwnershipTransfer()": {
        "details": "Cancel ownership transfer by deleting nextOwner."
      },
      "isNextOwner()": {
        "details": "Returns true if the caller is the next owner."
      },
      "isOwner()": {
        "details": "Returns true if the caller is the current owner."
      },
      "renounceOwnership()": {
        "details": "Renounce ownership by setting owner to zero address."
      },
      "transferOwnership(address)": {
        "details": "Initiate ownership transfer by setting nextOwner."
      }
    },
    "version": 1
  },
  "userdoc": {
    "kind": "user",
    "methods": {
      "airdropTokens(address,address[],uint256[])": {
        "notice": "Airdrop `token` to a list of `_recipients`"
      }
    },
    "version": 1
  }
}