{
  "contractName": "ERC20Factory",
  "abi": [
    {
      "inputs": [],
      "stateMutability": "nonpayable",
      "type": "constructor"
    },
    {
      "anonymous": false,
      "inputs": [
        {
          "indexed": true,
          "internalType": "address",
          "name": "_owner",
          "type": "address"
        },
        {
          "indexed": true,
          "internalType": "address",
          "name": "_spender",
          "type": "address"
        },
        {
          "indexed": false,
          "internalType": "uint256",
          "name": "_value",
          "type": "uint256"
        }
      ],
      "name": "Approval",
      "type": "event"
    },
    {
      "anonymous": false,
      "inputs": [
        {
          "indexed": false,
          "internalType": "address",
          "name": "clone",
          "type": "address"
        },
        {
          "indexed": false,
          "internalType": "string",
          "name": "name",
          "type": "string"
        },
        {
          "indexed": false,
          "internalType": "string",
          "name": "symbol",
          "type": "string"
        },
        {
          "indexed": false,
          "internalType": "address",
          "name": "operator",
          "type": "address"
        }
      ],
      "name": "ERC20Deployed",
      "type": "event"
    },
    {
      "anonymous": false,
      "inputs": [
        {
          "indexed": true,
          "internalType": "address",
          "name": "previousOwner",
          "type": "address"
        },
        {
          "indexed": true,
          "internalType": "address",
          "name": "newOwner",
          "type": "address"
        }
      ],
      "name": "OwnershipTransferred",
      "type": "event"
    },
    {
      "anonymous": false,
      "inputs": [
        {
          "indexed": true,
          "internalType": "address",
          "name": "_from",
          "type": "address"
        },
        {
          "indexed": true,
          "internalType": "address",
          "name": "_to",
          "type": "address"
        },
        {
          "indexed": false,
          "internalType": "uint256",
          "name": "_value",
          "type": "uint256"
        }
      ],
      "name": "Transfer",
      "type": "event"
    },
    {
      "inputs": [
        {
          "internalType": "address",
          "name": "",
          "type": "address"
        },
        {
          "internalType": "uint256",
          "name": "",
          "type": "uint256"
        }
      ],
      "name": "erc20s",
      "outputs": [
        {
          "internalType": "address",
          "name": "",
          "type": "address"
        }
      ],
      "stateMutability": "view",
      "type": "function",
      "constant": true
    },
    {
      "inputs": [],
      "name": "implementation",
      "outputs": [
        {
          "internalType": "address",
          "name": "",
          "type": "address"
        }
      ],
      "stateMutability": "view",
      "type": "function",
      "constant": true
    },
    {
      "inputs": [
        {
          "internalType": "address",
          "name": "owner",
          "type": "address"
        },
        {
          "internalType": "string",
          "name": "name_",
          "type": "string"
        },
        {
          "internalType": "string",
          "name": "symbol_",
          "type": "string"
        },
        {
          "internalType": "uint256",
          "name": "totalSupply_",
          "type": "uint256"
        },
        {
          "internalType": "uint8",
          "name": "decimals_",
          "type": "uint8"
        }
      ],
      "name": "create",
      "outputs": [
        {
          "internalType": "address",
          "name": "erc20Clone",
          "type": "address"
        }
      ],
      "stateMutability": "nonpayable",
      "type": "function"
    },
    {
      "inputs": [
        {
          "internalType": "address",
          "name": "owner",
          "type": "address"
        }
      ],
      "name": "getERC20s",
      "outputs": [
        {
          "internalType": "address[]",
          "name": "",
          "type": "address[]"
        }
      ],
      "stateMutability": "view",
      "type": "function",
      "constant": true
    },
    {
      "inputs": [
        {
          "internalType": "address",
          "name": "implementation_",
          "type": "address"
        },
        {
          "internalType": "bytes32",
          "name": "salt",
          "type": "bytes32"
        }
      ],
      "name": "predictDeterministicAddress",
      "outputs": [
        {
          "internalType": "address",
          "name": "",
          "type": "address"
        }
      ],
      "stateMutability": "view",
      "type": "function",
      "constant": true
    }
  ],
  "bytecode": "0x60a060405234801561001057600080fd5b503060405161001e9061007d565b61002891906100cb565b604051809103906000f080158015610044573d6000803e3d6000fd5b5073ffffffffffffffffffffffffffffffffffffffff1660808173ffffffffffffffffffffffffffffffffffffffff16815250506100e6565b611cb180610d8083390190565b600073ffffffffffffffffffffffffffffffffffffffff82169050919050565b60006100b58261008a565b9050919050565b6100c5816100aa565b82525050565b60006020820190506100e060008301846100bc565b92915050565b608051610c7861010860003960008181610223015261029a0152610c786000f3fe608060405234801561001057600080fd5b50600436106100575760003560e01c806315c40a361461005c578063360d0fad1461008c5780635c60da1b146100bc5780636366aa6d146100da578063696f33e11461010a575b600080fd5b610076600480360381019061007191906105d4565b61013a565b60405161008391906106bf565b60405180910390f35b6100a660048036038101906100a19190610717565b61020c565b6040516100b39190610766565b60405180910390f35b6100c4610221565b6040516100d19190610766565b60405180910390f35b6100f460048036038101906100ef91906107b7565b610245565b6040516101019190610766565b60405180910390f35b610124600480360381019061011f9190610976565b610293565b6040516101319190610766565b60405180910390f35b606060008060008473ffffffffffffffffffffffffffffffffffffffff1673ffffffffffffffffffffffffffffffffffffffff1681526020019081526020016000208054806020026020016040519081016040528092919081815260200182805480156101fc57602002820191906000526020600020905b8160009054906101000a900473ffffffffffffffffffffffffffffffffffffffff1673ffffffffffffffffffffffffffffffffffffffff16815260200190600101908083116101b2575b5050505050905080915050919050565b6000610219838330610445565b905092915050565b7f000000000000000000000000000000000000000000000000000000000000000081565b6000602052816000526040600020818154811061026157600080fd5b906000526020600020016000915091509054906101000a900473ffffffffffffffffffffffffffffffffffffffff1681565b60006102eb7f0000000000000000000000000000000000000000000000000000000000000000878787876040516020016102d09493929190610ac0565b604051602081830303815290604052805190602001206104a6565b90508073ffffffffffffffffffffffffffffffffffffffff16634fd35acb87878787876040518663ffffffff1660e01b815260040161032e959493929190610b22565b600060405180830381600087803b15801561034857600080fd5b505af115801561035c573d6000803e3d6000fd5b505050506000808773ffffffffffffffffffffffffffffffffffffffff1673ffffffffffffffffffffffffffffffffffffffff168152602001908152602001600020819080600181540180825580915050600190039060005260206000200160009091909190916101000a81548173ffffffffffffffffffffffffffffffffffffffff021916908373ffffffffffffffffffffffffffffffffffffffff1602179055507f7513f51c4585e1b3b02ac38c4ad53c34e2fc86e1727e8c83fad1bbae772911a4818686896040516104349493929190610b83565b60405180910390a195945050505050565b60006040518260388201526f5af43d82803e903d91602b57fd5bf3ff6024820152846014820152733d602d80600a3d3981f3363d3d373d3d3d363d7381528360588201526037600c8201206078820152605560438201209150509392505050565b6000763d602d80600a3d3981f3363d3d373d3d3d363d730000008360601b60e81c176000526e5af43d82803e903d91602b57fd5bf38360781b1760205281603760096000f59050600073ffffffffffffffffffffffffffffffffffffffff168173ffffffffffffffffffffffffffffffffffffffff160361055c576040517f08c379a000000000000000000000000000000000000000000000000000000000815260040161055390610c22565b60405180910390fd5b92915050565b6000604051905090565b600080fd5b600080fd5b600073ffffffffffffffffffffffffffffffffffffffff82169050919050565b60006105a182610576565b9050919050565b6105b181610596565b81146105bc57600080fd5b50565b6000813590506105ce816105a8565b92915050565b6000602082840312156105ea576105e961056c565b5b60006105f8848285016105bf565b91505092915050565b600081519050919050565b600082825260208201905092915050565b6000819050602082019050919050565b61063681610596565b82525050565b6000610648838361062d565b60208301905092915050565b6000602082019050919050565b600061066c82610601565b610676818561060c565b93506106818361061d565b8060005b838110156106b2578151610699888261063c565b97506106a483610654565b925050600181019050610685565b5085935050505092915050565b600060208201905081810360008301526106d98184610661565b905092915050565b6000819050919050565b6106f4816106e1565b81146106ff57600080fd5b50565b600081359050610711816106eb565b92915050565b6000806040838503121561072e5761072d61056c565b5b600061073c858286016105bf565b925050602061074d85828601610702565b9150509250929050565b61076081610596565b82525050565b600060208201905061077b6000830184610757565b92915050565b6000819050919050565b61079481610781565b811461079f57600080fd5b50565b6000813590506107b18161078b565b92915050565b600080604083850312156107ce576107cd61056c565b5b60006107dc858286016105bf565b92505060206107ed858286016107a2565b9150509250929050565b600080fd5b600080fd5b6000601f19601f8301169050919050565b7f4e487b7100000000000000000000000000000000000000000000000000000000600052604160045260246000fd5b61084a82610801565b810181811067ffffffffffffffff8211171561086957610868610812565b5b80604052505050565b600061087c610562565b90506108888282610841565b919050565b600067ffffffffffffffff8211156108a8576108a7610812565b5b6108b182610801565b9050602081019050919050565b82818337600083830152505050565b60006108e06108db8461088d565b610872565b9050828152602081018484840111156108fc576108fb6107fc565b5b6109078482856108be565b509392505050565b600082601f830112610924576109236107f7565b5b81356109348482602086016108cd565b91505092915050565b600060ff82169050919050565b6109538161093d565b811461095e57600080fd5b50565b6000813590506109708161094a565b92915050565b600080600080600060a086880312156109925761099161056c565b5b60006109a0888289016105bf565b955050602086013567ffffffffffffffff8111156109c1576109c0610571565b5b6109cd8882890161090f565b945050604086013567ffffffffffffffff8111156109ee576109ed610571565b5b6109fa8882890161090f565b9350506060610a0b888289016107a2565b9250506080610a1c88828901610961565b9150509295509295909350565b600081519050919050565b600082825260208201905092915050565b60005b83811015610a63578082015181840152602081019050610a48565b83811115610a72576000848401525b50505050565b6000610a8382610a29565b610a8d8185610a34565b9350610a9d818560208601610a45565b610aa681610801565b840191505092915050565b610aba81610781565b82525050565b6000608082019050610ad56000830187610757565b8181036020830152610ae78186610a78565b90508181036040830152610afb8185610a78565b9050610b0a6060830184610ab1565b95945050505050565b610b1c8161093d565b82525050565b600060a082019050610b376000830188610757565b8181036020830152610b498187610a78565b90508181036040830152610b5d8186610a78565b9050610b6c6060830185610ab1565b610b796080830184610b13565b9695505050505050565b6000608082019050610b986000830187610757565b8181036020830152610baa8186610a78565b90508181036040830152610bbe8185610a78565b9050610bcd6060830184610757565b95945050505050565b7f455243313136373a2063726561746532206661696c6564000000000000000000600082015250565b6000610c0c601783610a34565b9150610c1782610bd6565b602082019050919050565b60006020820190508181036000830152610c3b81610bff565b905091905056fea2646970667358221220cda812a9392819a89d7c762f89a980ca6c93dab3de9cc664f24808a2a278102564736f6c634300080d003360a06040523480156200001157600080fd5b5060405162001cb138038062001cb183398181016040528101906200003791906200019a565b6000806000806101000a81548173ffffffffffffffffffffffffffffffffffffffff021916908373ffffffffffffffffffffffffffffffffffffffff16021790555060008054906101000a900473ffffffffffffffffffffffffffffffffffffffff1673ffffffffffffffffffffffffffffffffffffffff16600073ffffffffffffffffffffffffffffffffffffffff167f8be0079c531659141344cd1fd0a4f28419497f9722a3daafe3b4186f6b6457e060405160405180910390a3508073ffffffffffffffffffffffffffffffffffffffff1660808173ffffffffffffffffffffffffffffffffffffffff168152505050620001cc565b600080fd5b600073ffffffffffffffffffffffffffffffffffffffff82169050919050565b6000620001628262000135565b9050919050565b620001748162000155565b81146200018057600080fd5b50565b600081519050620001948162000169565b92915050565b600060208284031215620001b357620001b262000130565b5b6000620001c38482850162000183565b91505092915050565b608051611ac2620001ef600039600081816106600152610a090152611ac26000f3fe608060405234801561001057600080fd5b50600436106101215760003560e01c8063715018a6116100ad578063a9059cbb11610071578063a9059cbb146102d4578063c45a015514610304578063dd62ed3e14610322578063ed459df214610352578063f2fde38b1461037057610121565b8063715018a61461026657806379ba5097146102705780638da5cb5b1461027a5780638f32d59b1461029857806395d89b41146102b657610121565b806323b872dd116100f457806323b872dd1461019c578063313ce567146101cc57806340c10f19146101ea5780634fd35acb1461020657806370a082311461023657610121565b806306fdde0314610126578063095ea7b31461014457806318160ddd1461017457806323452b9c14610192575b600080fd5b61012e61038c565b60405161013b9190611200565b60405180910390f35b61015e600480360381019061015991906112ca565b61041a565b60405161016b9190611325565b60405180910390f35b61017c610431565b604051610189919061134f565b60405180910390f35b61019a610437565b005b6101b660048036038101906101b1919061136a565b6104a5565b6040516101c39190611325565b60405180910390f35b6101d46105f4565b6040516101e191906113d9565b60405180910390f35b61020460048036038101906101ff91906112ca565b610607565b005b610220600480360381019061021b9190611555565b61065c565b60405161022d9190611617565b60405180910390f35b610250600480360381019061024b9190611632565b610756565b60405161025d919061134f565b60405180910390f35b61026e61076e565b005b6102786107bf565b005b6102826108e7565b60405161028f9190611617565b60405180910390f35b6102a061090b565b6040516102ad9190611325565b60405180910390f35b6102be610962565b6040516102cb9190611200565b60405180910390f35b6102ee60048036038101906102e991906112ca565b6109f0565b6040516102fb9190611325565b60405180910390f35b61030c610a07565b6040516103199190611617565b60405180910390f35b61033c6004803603810190610337919061165f565b610a2b565b604051610349919061134f565b60405180910390f35b61035a610a50565b6040516103679190611325565b60405180910390f35b61038a60048036038101906103859190611632565b610aa8565b005b60038054610399906116ce565b80601f01602080910402602001604051908101604052809291908181526020018280546103c5906116ce565b80156104125780601f106103e757610100808354040283529160200191610412565b820191906000526020600020905b8154815290600101906020018083116103f557829003601f168201915b505050505081565b6000610427338484610ba2565b6001905092915050565b60025481565b61043f61090b565b61047e576040517f08c379a00000000000000000000000000000000000000000000000000000000081526004016104759061174b565b60405180910390fd5b600160006101000a81549073ffffffffffffffffffffffffffffffffffffffff0219169055565b60007fffffffffffffffffffffffffffffffffffffffffffffffffffffffffffffffff600760008673ffffffffffffffffffffffffffffffffffffffff1673ffffffffffffffffffffffffffffffffffffffff16815260200190815260200160002060003373ffffffffffffffffffffffffffffffffffffffff1673ffffffffffffffffffffffffffffffffffffffff16815260200190815260200160002054146105de5781600760008673ffffffffffffffffffffffffffffffffffffffff1673ffffffffffffffffffffffffffffffffffffffff16815260200190815260200160002060003373ffffffffffffffffffffffffffffffffffffffff1673ffffffffffffffffffffffffffffffffffffffff16815260200190815260200160002060008282546105d6919061179a565b925050819055505b6105e9848484610c8d565b600190509392505050565b600560009054906101000a900460ff1681565b61060f61090b565b61064e576040517f08c379a00000000000000000000000000000000000000000000000000000000081526004016106459061174b565b60405180910390fd5b6106588282610e09565b5050565b60007f000000000000000000000000000000000000000000000000000000000000000073ffffffffffffffffffffffffffffffffffffffff163373ffffffffffffffffffffffffffffffffffffffff16146106ec576040517f08c379a00000000000000000000000000000000000000000000000000000000081526004016106e39061181a565b60405180910390fd5b6106f7600087610f48565b846003908051906020019061070d9291906110c4565b5083600490805190602001906107249291906110c4565b5081600560006101000a81548160ff021916908360ff16021790555061074a8684610e09565b30905095945050505050565b60066020528060005260406000206000915090505481565b61077661090b565b6107b5576040517f08c379a00000000000000000000000000000000000000000000000000000000081526004016107ac9061174b565b60405180910390fd5b6107bd611006565b565b6107c7610a50565b610806576040517f08c379a00000000000000000000000000000000000000000000000000000000081526004016107fd906118ac565b60405180910390fd5b600160006101000a81549073ffffffffffffffffffffffffffffffffffffffff0219169055336000806101000a81548173ffffffffffffffffffffffffffffffffffffffff021916908373ffffffffffffffffffffffffffffffffffffffff1602179055503373ffffffffffffffffffffffffffffffffffffffff1660008054906101000a900473ffffffffffffffffffffffffffffffffffffffff1673ffffffffffffffffffffffffffffffffffffffff167f8be0079c531659141344cd1fd0a4f28419497f9722a3daafe3b4186f6b6457e060405160405180910390a3565b60008054906101000a900473ffffffffffffffffffffffffffffffffffffffff1681565b60008060009054906101000a900473ffffffffffffffffffffffffffffffffffffffff1673ffffffffffffffffffffffffffffffffffffffff163373ffffffffffffffffffffffffffffffffffffffff1614905090565b6004805461096f906116ce565b80601f016020809104026020016040519081016040528092919081815260200182805461099b906116ce565b80156109e85780601f106109bd576101008083540402835291602001916109e8565b820191906000526020600020905b8154815290600101906020018083116109cb57829003601f168201915b505050505081565b60006109fd338484610c8d565b6001905092915050565b7f000000000000000000000000000000000000000000000000000000000000000081565b6007602052816000526040600020602052806000526040600020600091509150505481565b6000600160009054906101000a900473ffffffffffffffffffffffffffffffffffffffff1673ffffffffffffffffffffffffffffffffffffffff163373ffffffffffffffffffffffffffffffffffffffff1614905090565b610ab061090b565b610aef576040517f08c379a0000000000000000000000000000000000000000000000000000000008152600401610ae69061174b565b60405180910390fd5b600073ffffffffffffffffffffffffffffffffffffffff168173ffffffffffffffffffffffffffffffffffffffff1603610b5e576040517f08c379a0000000000000000000000000000000000000000000000000000000008152600401610b5590611918565b60405180910390fd5b80600160006101000a81548173ffffffffffffffffffffffffffffffffffffffff021916908373ffffffffffffffffffffffffffffffffffffffff16021790555050565b80600760008573ffffffffffffffffffffffffffffffffffffffff1673ffffffffffffffffffffffffffffffffffffffff16815260200190815260200160002060008473ffffffffffffffffffffffffffffffffffffffff1673ffffffffffffffffffffffffffffffffffffffff168152602001908152602001600020819055508173ffffffffffffffffffffffffffffffffffffffff168373ffffffffffffffffffffffffffffffffffffffff167f8c5be1e5ebec7d5bd14f71427d1e84f3dd0314c0f7b2291e5b200ac8c7c3b92583604051610c80919061134f565b60405180910390a3505050565b600073ffffffffffffffffffffffffffffffffffffffff168273ffffffffffffffffffffffffffffffffffffffff1603610cfc576040517f08c379a0000000000000000000000000000000000000000000000000000000008152600401610cf3906119aa565b60405180910390fd5b80600660008573ffffffffffffffffffffffffffffffffffffffff1673ffffffffffffffffffffffffffffffffffffffff1681526020019081526020016000206000828254610d4b919061179a565b9250508190555080600660008473ffffffffffffffffffffffffffffffffffffffff1673ffffffffffffffffffffffffffffffffffffffff168152602001908152602001600020600082825401925050819055508173ffffffffffffffffffffffffffffffffffffffff168373ffffffffffffffffffffffffffffffffffffffff167fddf252ad1be2c89b69c2b068fc378daa952ba7f163c4a11628f55a4df523b3ef83604051610dfc919061134f565b60405180910390a3505050565b600073ffffffffffffffffffffffffffffffffffffffff168273ffffffffffffffffffffffffffffffffffffffff1603610e78576040517f08c379a0000000000000000000000000000000000000000000000000000000008152600401610e6f90611a16565b60405180910390fd5b8060026000828254610e8a9190611a36565b9250508190555080600660008473ffffffffffffffffffffffffffffffffffffffff1673ffffffffffffffffffffffffffffffffffffffff168152602001908152602001600020600082825401925050819055508173ffffffffffffffffffffffffffffffffffffffff16600073ffffffffffffffffffffffffffffffffffffffff167fddf252ad1be2c89b69c2b068fc378daa952ba7f163c4a11628f55a4df523b3ef83604051610f3c919061134f565b60405180910390a35050565b806000806101000a81548173ffffffffffffffffffffffffffffffffffffffff021916908373ffffffffffffffffffffffffffffffffffffffff16021790555060008054906101000a900473ffffffffffffffffffffffffffffffffffffffff1673ffffffffffffffffffffffffffffffffffffffff168273ffffffffffffffffffffffffffffffffffffffff167f8be0079c531659141344cd1fd0a4f28419497f9722a3daafe3b4186f6b6457e060405160405180910390a35050565b600073ffffffffffffffffffffffffffffffffffffffff1660008054906101000a900473ffffffffffffffffffffffffffffffffffffffff1673ffffffffffffffffffffffffffffffffffffffff167f8be0079c531659141344cd1fd0a4f28419497f9722a3daafe3b4186f6b6457e060405160405180910390a360008060006101000a81548173ffffffffffffffffffffffffffffffffffffffff021916908373ffffffffffffffffffffffffffffffffffffffff160217905550565b8280546110d0906116ce565b90600052602060002090601f0160209004810192826110f25760008555611139565b82601f1061110b57805160ff1916838001178555611139565b82800160010185558215611139579182015b8281111561113857825182559160200191906001019061111d565b5b509050611146919061114a565b5090565b5b8082111561116357600081600090555060010161114b565b5090565b600081519050919050565b600082825260208201905092915050565b60005b838110156111a1578082015181840152602081019050611186565b838111156111b0576000848401525b50505050565b6000601f19601f8301169050919050565b60006111d282611167565b6111dc8185611172565b93506111ec818560208601611183565b6111f5816111b6565b840191505092915050565b6000602082019050818103600083015261121a81846111c7565b905092915050565b6000604051905090565b600080fd5b600080fd5b600073ffffffffffffffffffffffffffffffffffffffff82169050919050565b600061126182611236565b9050919050565b61127181611256565b811461127c57600080fd5b50565b60008135905061128e81611268565b92915050565b6000819050919050565b6112a781611294565b81146112b257600080fd5b50565b6000813590506112c48161129e565b92915050565b600080604083850312156112e1576112e061122c565b5b60006112ef8582860161127f565b9250506020611300858286016112b5565b9150509250929050565b60008115159050919050565b61131f8161130a565b82525050565b600060208201905061133a6000830184611316565b92915050565b61134981611294565b82525050565b60006020820190506113646000830184611340565b92915050565b6000806000606084860312156113835761138261122c565b5b60006113918682870161127f565b93505060206113a28682870161127f565b92505060406113b3868287016112b5565b9150509250925092565b600060ff82169050919050565b6113d3816113bd565b82525050565b60006020820190506113ee60008301846113ca565b92915050565b600080fd5b600080fd5b7f4e487b7100000000000000000000000000000000000000000000000000000000600052604160045260246000fd5b611436826111b6565b810181811067ffffffffffffffff82111715611455576114546113fe565b5b80604052505050565b6000611468611222565b9050611474828261142d565b919050565b600067ffffffffffffffff821115611494576114936113fe565b5b61149d826111b6565b9050602081019050919050565b82818337600083830152505050565b60006114cc6114c784611479565b61145e565b9050828152602081018484840111156114e8576114e76113f9565b5b6114f38482856114aa565b509392505050565b600082601f8301126115105761150f6113f4565b5b81356115208482602086016114b9565b91505092915050565b611532816113bd565b811461153d57600080fd5b50565b60008135905061154f81611529565b92915050565b600080600080600060a086880312156115715761157061122c565b5b600061157f8882890161127f565b955050602086013567ffffffffffffffff8111156115a05761159f611231565b5b6115ac888289016114fb565b945050604086013567ffffffffffffffff8111156115cd576115cc611231565b5b6115d9888289016114fb565b93505060606115ea888289016112b5565b92505060806115fb88828901611540565b9150509295509295909350565b61161181611256565b82525050565b600060208201905061162c6000830184611608565b92915050565b6000602082840312156116485761164761122c565b5b60006116568482850161127f565b91505092915050565b600080604083850312156116765761167561122c565b5b60006116848582860161127f565b92505060206116958582860161127f565b9150509250929050565b7f4e487b7100000000000000000000000000000000000000000000000000000000600052602260045260246000fd5b600060028204905060018216806116e657607f821691505b6020821081036116f9576116f861169f565b5b50919050565b7f63616c6c6572206973206e6f7420746865206f776e65722e0000000000000000600082015250565b6000611735601883611172565b9150611740826116ff565b602082019050919050565b6000602082019050818103600083015261176481611728565b9050919050565b7f4e487b7100000000000000000000000000000000000000000000000000000000600052601160045260246000fd5b60006117a582611294565b91506117b083611294565b9250828210156117c3576117c261176b565b5b828203905092915050565b7f756e617574686f72697a65642063616c6c657200000000000000000000000000600082015250565b6000611804601383611172565b915061180f826117ce565b602082019050919050565b60006020820190508181036000830152611833816117f7565b9050919050565b7f63757272656e74206f776e6572206d757374207365742063616c6c657220617360008201527f206e657874206f776e65722e0000000000000000000000000000000000000000602082015250565b6000611896602c83611172565b91506118a18261183a565b604082019050919050565b600060208201905081810360008301526118c581611889565b9050919050565b7f4e657874206f776e657220697320746865207a65726f20616464726573732e00600082015250565b6000611902601f83611172565b915061190d826118cc565b602082019050919050565b60006020820190508181036000830152611931816118f5565b9050919050565b7f45524332303a207472616e7366657220746f20746865207a65726f206164647260008201527f6573730000000000000000000000000000000000000000000000000000000000602082015250565b6000611994602383611172565b915061199f82611938565b604082019050919050565b600060208201905081810360008301526119c381611987565b9050919050565b7f45524332303a206d696e7420746f20746865207a65726f206164647265737300600082015250565b6000611a00601f83611172565b9150611a0b826119ca565b602082019050919050565b60006020820190508181036000830152611a2f816119f3565b9050919050565b6000611a4182611294565b9150611a4c83611294565b9250827fffffffffffffffffffffffffffffffffffffffffffffffffffffffffffffffff03821115611a8157611a8061176b565b5b82820190509291505056fea2646970667358221220fa065f5baebe0ed149a1328c311c33c8dc87c91293da3c7412ff4ee2fdd3fb3564736f6c634300080d0033",
  "immutableReferences": {
    "126": [
      {
        "length": 32,
        "start": 547
      },
      {
        "length": 32,
        "start": 666
      }
    ]
  },
  "source": "// SPDX-License-Identifier: MIT\n// pragma solidity 0.8.17;\npragma solidity ^0.8.0;\n\nimport {ERC20Impl} from \"./ERC20Impl.sol\";\nimport {IERC20Factory, IERC20FactoryEvents} from \"./interface/IERC20Factory.sol\";\nimport {IOwnableEvents} from \"./lib/Ownable.sol\";\nimport {IERC20Events} from \"./interface/IERC20.sol\";\nimport {Clones} from \"./lib/Clones.sol\";\n\ninterface IERC20 {\n    function initialize(\n        address owner_,\n        string memory name_,\n        string memory symbol_,\n        uint256 totalSupply_,\n        uint8 decimals_\n    ) external;\n}\n\n/**\n * @title ERC20Factory\n * @notice The `ERC20Factory` contract deploys ERC20 clones. After deployment, the\n * factory calls `initialize` to set up the ERC20 metadata and mint the initial total\n * supply to the owner's wallet.\n */\ncontract ERC20Factory is\n    IERC20Factory,\n    IERC20FactoryEvents,\n    IERC20Events,\n    IOwnableEvents\n{\n    /// @notice Address that holds the clone implementation\n    address public immutable implementation;\n\n    /// @notice Registry of user -> deployed erc20 contracts\n    /// @dev Used on the frontend to retrieve a list of deployed ERC20's\n    mapping(address => address[]) public erc20s;\n\n    constructor() {\n        implementation = address(new ERC20Impl(address(this)));\n    }\n\n    //======== Deploy function =========\n\n    /// @notice Deploy an ERC20 clone.\n    /// @param owner the owner of the ERC20 token\n    /// @param name_ the ERC20 metadata name parameter\n    /// @param symbol_ the ERC20 metadata symbol parameter\n    /// @param totalSupply_ the ERC20 token initial supply, minted to `owner`\n    /// @param decimals_ the ERC20 token decimals\n    function create(\n        address owner,\n        string memory name_,\n        string memory symbol_,\n        uint256 totalSupply_,\n        uint8 decimals_\n    ) external override returns (address erc20Clone) {\n        erc20Clone = Clones.cloneDeterministic(\n            implementation,\n            keccak256(abi.encode(owner, name_, symbol_, totalSupply_))\n        );\n\n        IERC20(erc20Clone).initialize(\n            owner,\n            name_,\n            symbol_,\n            totalSupply_,\n            decimals_\n        );\n\n        /// @dev Add the clone to the list of clones for the owner\n        erc20s[owner].push(erc20Clone);\n\n        /// @dev Emit ERC20Deployed event\n        emit ERC20Deployed(erc20Clone, name_, symbol_, owner);\n    }\n\n    function getERC20s(address owner) external view returns (address[] memory) {\n        address[] memory tokens = erc20s[owner];\n        return tokens;\n    }\n\n    /// @notice predict the deterministic address of the ERC20 clone\n    /// @param implementation_ the address of the erc20 implementation\n    /// @param salt the salt used to generate the deterministic address\n    function predictDeterministicAddress(\n        address implementation_,\n        bytes32 salt\n    ) external view override returns (address) {\n        return\n            Clones.predictDeterministicAddress(\n                implementation_,\n                salt,\n                address(this)\n            );\n    }\n}\n",
  "sourcePath": "/Users/lbd/Downloads/MXC LLC/work/token-airdrop-x2e/token-airdrop-x2e/contracts/contracts/ERC20Factory.sol",
  "compiler": {
    "name": "solc",
    "version": "0.8.13+commit.abaa5c0e.Emscripten.clang"
  },
  "schemaVersion": "3.4.16",
  "updatedAt": "2024-04-04T07:49:11.266Z",
  "networkType": "ethereum",
  "devdoc": {
    "kind": "dev",
    "methods": {
      "create(address,string,string,uint256,uint8)": {
        "params": {
          "decimals_": "the ERC20 token decimals",
          "name_": "the ERC20 metadata name parameter",
          "owner": "the owner of the ERC20 token",
          "symbol_": "the ERC20 metadata symbol parameter",
          "totalSupply_": "the ERC20 token initial supply, minted to `owner`"
        }
      },
      "predictDeterministicAddress(address,bytes32)": {
        "params": {
          "implementation_": "the address of the erc20 implementation",
          "salt": "the salt used to generate the deterministic address"
        }
      }
    },
    "stateVariables": {
      "erc20s": {
        "details": "Used on the frontend to retrieve a list of deployed ERC20's"
      }
    },
    "title": "ERC20Factory",
    "version": 1
  },
  "userdoc": {
    "events": {
      "Approval(address,address,uint256)": {
        "notice": "approval event"
      },
      "ERC20Deployed(address,string,string,address)": {
        "notice": "New ERC20 clone deployed"
      },
      "Transfer(address,address,uint256)": {
        "notice": "transfer event"
      }
    },
    "kind": "user",
    "methods": {
      "create(address,string,string,uint256,uint8)": {
        "notice": "Deploy an ERC20 clone."
      },
      "erc20s(address,uint256)": {
        "notice": "Registry of user -> deployed erc20 contracts"
      },
      "implementation()": {
        "notice": "Address that holds the clone implementation"
      },
      "predictDeterministicAddress(address,bytes32)": {
        "notice": "predict the deterministic address of the ERC20 clone"
      }
    },
    "notice": "The `ERC20Factory` contract deploys ERC20 clones. After deployment, the factory calls `initialize` to set up the ERC20 metadata and mint the initial total supply to the owner's wallet.",
    "version": 1
  }
}