{
  "contractName": "ERC20Impl",
  "abi": [
    {
      "inputs": [
        {
          "internalType": "address",
          "name": "factory_",
          "type": "address"
        }
      ],
      "stateMutability": "nonpayable",
      "type": "constructor"
    },
    {
      "anonymous": false,
      "inputs": [
        {
          "indexed": true,
          "internalType": "address",
          "name": "_owner",
          "type": "address"
        },
        {
          "indexed": true,
          "internalType": "address",
          "name": "_spender",
          "type": "address"
        },
        {
          "indexed": false,
          "internalType": "uint256",
          "name": "_value",
          "type": "uint256"
        }
      ],
      "name": "Approval",
      "type": "event"
    },
    {
      "anonymous": false,
      "inputs": [
        {
          "indexed": true,
          "internalType": "address",
          "name": "previousOwner",
          "type": "address"
        },
        {
          "indexed": true,
          "internalType": "address",
          "name": "newOwner",
          "type": "address"
        }
      ],
      "name": "OwnershipTransferred",
      "type": "event"
    },
    {
      "anonymous": false,
      "inputs": [
        {
          "indexed": true,
          "internalType": "address",
          "name": "_from",
          "type": "address"
        },
        {
          "indexed": true,
          "internalType": "address",
          "name": "_to",
          "type": "address"
        },
        {
          "indexed": false,
          "internalType": "uint256",
          "name": "_value",
          "type": "uint256"
        }
      ],
      "name": "Transfer",
      "type": "event"
    },
    {
      "inputs": [],
      "name": "acceptOwnership",
      "outputs": [],
      "stateMutability": "nonpayable",
      "type": "function"
    },
    {
      "inputs": [
        {
          "internalType": "address",
          "name": "",
          "type": "address"
        },
        {
          "internalType": "address",
          "name": "",
          "type": "address"
        }
      ],
      "name": "allowance",
      "outputs": [
        {
          "internalType": "uint256",
          "name": "",
          "type": "uint256"
        }
      ],
      "stateMutability": "view",
      "type": "function"
    },
    {
      "inputs": [
        {
          "internalType": "address",
          "name": "",
          "type": "address"
        }
      ],
      "name": "balanceOf",
      "outputs": [
        {
          "internalType": "uint256",
          "name": "",
          "type": "uint256"
        }
      ],
      "stateMutability": "view",
      "type": "function"
    },
    {
      "inputs": [],
      "name": "cancelOwnershipTransfer",
      "outputs": [],
      "stateMutability": "nonpayable",
      "type": "function"
    },
    {
      "inputs": [],
      "name": "decimals",
      "outputs": [
        {
          "internalType": "uint8",
          "name": "",
          "type": "uint8"
        }
      ],
      "stateMutability": "view",
      "type": "function"
    },
    {
      "inputs": [],
      "name": "factory",
      "outputs": [
        {
          "internalType": "address",
          "name": "",
          "type": "address"
        }
      ],
      "stateMutability": "view",
      "type": "function"
    },
    {
      "inputs": [],
      "name": "isNextOwner",
      "outputs": [
        {
          "internalType": "bool",
          "name": "",
          "type": "bool"
        }
      ],
      "stateMutability": "view",
      "type": "function"
    },
    {
      "inputs": [],
      "name": "isOwner",
      "outputs": [
        {
          "internalType": "bool",
          "name": "",
          "type": "bool"
        }
      ],
      "stateMutability": "view",
      "type": "function"
    },
    {
      "inputs": [],
      "name": "name",
      "outputs": [
        {
          "internalType": "string",
          "name": "",
          "type": "string"
        }
      ],
      "stateMutability": "view",
      "type": "function"
    },
    {
      "inputs": [],
      "name": "owner",
      "outputs": [
        {
          "internalType": "address",
          "name": "",
          "type": "address"
        }
      ],
      "stateMutability": "view",
      "type": "function"
    },
    {
      "inputs": [],
      "name": "renounceOwnership",
      "outputs": [],
      "stateMutability": "nonpayable",
      "type": "function"
    },
    {
      "inputs": [],
      "name": "symbol",
      "outputs": [
        {
          "internalType": "string",
          "name": "",
          "type": "string"
        }
      ],
      "stateMutability": "view",
      "type": "function"
    },
    {
      "inputs": [],
      "name": "totalSupply",
      "outputs": [
        {
          "internalType": "uint256",
          "name": "",
          "type": "uint256"
        }
      ],
      "stateMutability": "view",
      "type": "function"
    },
    {
      "inputs": [
        {
          "internalType": "address",
          "name": "nextOwner_",
          "type": "address"
        }
      ],
      "name": "transferOwnership",
      "outputs": [],
      "stateMutability": "nonpayable",
      "type": "function"
    },
    {
      "inputs": [
        {
          "internalType": "address",
          "name": "owner_",
          "type": "address"
        },
        {
          "internalType": "string",
          "name": "name_",
          "type": "string"
        },
        {
          "internalType": "string",
          "name": "symbol_",
          "type": "string"
        },
        {
          "internalType": "uint256",
          "name": "totalSupply_",
          "type": "uint256"
        },
        {
          "internalType": "uint8",
          "name": "decimals_",
          "type": "uint8"
        }
      ],
      "name": "initialize",
      "outputs": [
        {
          "internalType": "address",
          "name": "",
          "type": "address"
        }
      ],
      "stateMutability": "nonpayable",
      "type": "function"
    },
    {
      "inputs": [
        {
          "internalType": "address",
          "name": "spender",
          "type": "address"
        },
        {
          "internalType": "uint256",
          "name": "value",
          "type": "uint256"
        }
      ],
      "name": "approve",
      "outputs": [
        {
          "internalType": "bool",
          "name": "",
          "type": "bool"
        }
      ],
      "stateMutability": "nonpayable",
      "type": "function"
    },
    {
      "inputs": [
        {
          "internalType": "address",
          "name": "to",
          "type": "address"
        },
        {
          "internalType": "uint256",
          "name": "value",
          "type": "uint256"
        }
      ],
      "name": "transfer",
      "outputs": [
        {
          "internalType": "bool",
          "name": "",
          "type": "bool"
        }
      ],
      "stateMutability": "nonpayable",
      "type": "function"
    },
    {
      "inputs": [
        {
          "internalType": "address",
          "name": "from",
          "type": "address"
        },
        {
          "internalType": "address",
          "name": "to",
          "type": "address"
        },
        {
          "internalType": "uint256",
          "name": "value",
          "type": "uint256"
        }
      ],
      "name": "transferFrom",
      "outputs": [
        {
          "internalType": "bool",
          "name": "",
          "type": "bool"
        }
      ],
      "stateMutability": "nonpayable",
      "type": "function"
    },
    {
      "inputs": [
        {
          "internalType": "address",
          "name": "to",
          "type": "address"
        },
        {
          "internalType": "uint256",
          "name": "value",
          "type": "uint256"
        }
      ],
      "name": "mint",
      "outputs": [],
      "stateMutability": "nonpayable",
      "type": "function"
    }
  ],
  "bytecode": "0x60a06040523480156200001157600080fd5b5060405162001cb138038062001cb183398181016040528101906200003791906200019a565b6000806000806101000a81548173ffffffffffffffffffffffffffffffffffffffff021916908373ffffffffffffffffffffffffffffffffffffffff16021790555060008054906101000a900473ffffffffffffffffffffffffffffffffffffffff1673ffffffffffffffffffffffffffffffffffffffff16600073ffffffffffffffffffffffffffffffffffffffff167f8be0079c531659141344cd1fd0a4f28419497f9722a3daafe3b4186f6b6457e060405160405180910390a3508073ffffffffffffffffffffffffffffffffffffffff1660808173ffffffffffffffffffffffffffffffffffffffff168152505050620001cc565b600080fd5b600073ffffffffffffffffffffffffffffffffffffffff82169050919050565b6000620001628262000135565b9050919050565b620001748162000155565b81146200018057600080fd5b50565b600081519050620001948162000169565b92915050565b600060208284031215620001b357620001b262000130565b5b6000620001c38482850162000183565b91505092915050565b608051611ac2620001ef600039600081816106600152610a090152611ac26000f3fe608060405234801561001057600080fd5b50600436106101215760003560e01c8063715018a6116100ad578063a9059cbb11610071578063a9059cbb146102d4578063c45a015514610304578063dd62ed3e14610322578063ed459df214610352578063f2fde38b1461037057610121565b8063715018a61461026657806379ba5097146102705780638da5cb5b1461027a5780638f32d59b1461029857806395d89b41146102b657610121565b806323b872dd116100f457806323b872dd1461019c578063313ce567146101cc57806340c10f19146101ea5780634fd35acb1461020657806370a082311461023657610121565b806306fdde0314610126578063095ea7b31461014457806318160ddd1461017457806323452b9c14610192575b600080fd5b61012e61038c565b60405161013b9190611200565b60405180910390f35b61015e600480360381019061015991906112ca565b61041a565b60405161016b9190611325565b60405180910390f35b61017c610431565b604051610189919061134f565b60405180910390f35b61019a610437565b005b6101b660048036038101906101b1919061136a565b6104a5565b6040516101c39190611325565b60405180910390f35b6101d46105f4565b6040516101e191906113d9565b60405180910390f35b61020460048036038101906101ff91906112ca565b610607565b005b610220600480360381019061021b9190611555565b61065c565b60405161022d9190611617565b60405180910390f35b610250600480360381019061024b9190611632565b610756565b60405161025d919061134f565b60405180910390f35b61026e61076e565b005b6102786107bf565b005b6102826108e7565b60405161028f9190611617565b60405180910390f35b6102a061090b565b6040516102ad9190611325565b60405180910390f35b6102be610962565b6040516102cb9190611200565b60405180910390f35b6102ee60048036038101906102e991906112ca565b6109f0565b6040516102fb9190611325565b60405180910390f35b61030c610a07565b6040516103199190611617565b60405180910390f35b61033c6004803603810190610337919061165f565b610a2b565b604051610349919061134f565b60405180910390f35b61035a610a50565b6040516103679190611325565b60405180910390f35b61038a60048036038101906103859190611632565b610aa8565b005b60038054610399906116ce565b80601f01602080910402602001604051908101604052809291908181526020018280546103c5906116ce565b80156104125780601f106103e757610100808354040283529160200191610412565b820191906000526020600020905b8154815290600101906020018083116103f557829003601f168201915b505050505081565b6000610427338484610ba2565b6001905092915050565b60025481565b61043f61090b565b61047e576040517f08c379a00000000000000000000000000000000000000000000000000000000081526004016104759061174b565b60405180910390fd5b600160006101000a81549073ffffffffffffffffffffffffffffffffffffffff0219169055565b60007fffffffffffffffffffffffffffffffffffffffffffffffffffffffffffffffff600760008673ffffffffffffffffffffffffffffffffffffffff1673ffffffffffffffffffffffffffffffffffffffff16815260200190815260200160002060003373ffffffffffffffffffffffffffffffffffffffff1673ffffffffffffffffffffffffffffffffffffffff16815260200190815260200160002054146105de5781600760008673ffffffffffffffffffffffffffffffffffffffff1673ffffffffffffffffffffffffffffffffffffffff16815260200190815260200160002060003373ffffffffffffffffffffffffffffffffffffffff1673ffffffffffffffffffffffffffffffffffffffff16815260200190815260200160002060008282546105d6919061179a565b925050819055505b6105e9848484610c8d565b600190509392505050565b600560009054906101000a900460ff1681565b61060f61090b565b61064e576040517f08c379a00000000000000000000000000000000000000000000000000000000081526004016106459061174b565b60405180910390fd5b6106588282610e09565b5050565b60007f000000000000000000000000000000000000000000000000000000000000000073ffffffffffffffffffffffffffffffffffffffff163373ffffffffffffffffffffffffffffffffffffffff16146106ec576040517f08c379a00000000000000000000000000000000000000000000000000000000081526004016106e39061181a565b60405180910390fd5b6106f7600087610f48565b846003908051906020019061070d9291906110c4565b5083600490805190602001906107249291906110c4565b5081600560006101000a81548160ff021916908360ff16021790555061074a8684610e09565b30905095945050505050565b60066020528060005260406000206000915090505481565b61077661090b565b6107b5576040517f08c379a00000000000000000000000000000000000000000000000000000000081526004016107ac9061174b565b60405180910390fd5b6107bd611006565b565b6107c7610a50565b610806576040517f08c379a00000000000000000000000000000000000000000000000000000000081526004016107fd906118ac565b60405180910390fd5b600160006101000a81549073ffffffffffffffffffffffffffffffffffffffff0219169055336000806101000a81548173ffffffffffffffffffffffffffffffffffffffff021916908373ffffffffffffffffffffffffffffffffffffffff1602179055503373ffffffffffffffffffffffffffffffffffffffff1660008054906101000a900473ffffffffffffffffffffffffffffffffffffffff1673ffffffffffffffffffffffffffffffffffffffff167f8be0079c531659141344cd1fd0a4f28419497f9722a3daafe3b4186f6b6457e060405160405180910390a3565b60008054906101000a900473ffffffffffffffffffffffffffffffffffffffff1681565b60008060009054906101000a900473ffffffffffffffffffffffffffffffffffffffff1673ffffffffffffffffffffffffffffffffffffffff163373ffffffffffffffffffffffffffffffffffffffff1614905090565b6004805461096f906116ce565b80601f016020809104026020016040519081016040528092919081815260200182805461099b906116ce565b80156109e85780601f106109bd576101008083540402835291602001916109e8565b820191906000526020600020905b8154815290600101906020018083116109cb57829003601f168201915b505050505081565b60006109fd338484610c8d565b6001905092915050565b7f000000000000000000000000000000000000000000000000000000000000000081565b6007602052816000526040600020602052806000526040600020600091509150505481565b6000600160009054906101000a900473ffffffffffffffffffffffffffffffffffffffff1673ffffffffffffffffffffffffffffffffffffffff163373ffffffffffffffffffffffffffffffffffffffff1614905090565b610ab061090b565b610aef576040517f08c379a0000000000000000000000000000000000000000000000000000000008152600401610ae69061174b565b60405180910390fd5b600073ffffffffffffffffffffffffffffffffffffffff168173ffffffffffffffffffffffffffffffffffffffff1603610b5e576040517f08c379a0000000000000000000000000000000000000000000000000000000008152600401610b5590611918565b60405180910390fd5b80600160006101000a81548173ffffffffffffffffffffffffffffffffffffffff021916908373ffffffffffffffffffffffffffffffffffffffff16021790555050565b80600760008573ffffffffffffffffffffffffffffffffffffffff1673ffffffffffffffffffffffffffffffffffffffff16815260200190815260200160002060008473ffffffffffffffffffffffffffffffffffffffff1673ffffffffffffffffffffffffffffffffffffffff168152602001908152602001600020819055508173ffffffffffffffffffffffffffffffffffffffff168373ffffffffffffffffffffffffffffffffffffffff167f8c5be1e5ebec7d5bd14f71427d1e84f3dd0314c0f7b2291e5b200ac8c7c3b92583604051610c80919061134f565b60405180910390a3505050565b600073ffffffffffffffffffffffffffffffffffffffff168273ffffffffffffffffffffffffffffffffffffffff1603610cfc576040517f08c379a0000000000000000000000000000000000000000000000000000000008152600401610cf3906119aa565b60405180910390fd5b80600660008573ffffffffffffffffffffffffffffffffffffffff1673ffffffffffffffffffffffffffffffffffffffff1681526020019081526020016000206000828254610d4b919061179a565b9250508190555080600660008473ffffffffffffffffffffffffffffffffffffffff1673ffffffffffffffffffffffffffffffffffffffff168152602001908152602001600020600082825401925050819055508173ffffffffffffffffffffffffffffffffffffffff168373ffffffffffffffffffffffffffffffffffffffff167fddf252ad1be2c89b69c2b068fc378daa952ba7f163c4a11628f55a4df523b3ef83604051610dfc919061134f565b60405180910390a3505050565b600073ffffffffffffffffffffffffffffffffffffffff168273ffffffffffffffffffffffffffffffffffffffff1603610e78576040517f08c379a0000000000000000000000000000000000000000000000000000000008152600401610e6f90611a16565b60405180910390fd5b8060026000828254610e8a9190611a36565b9250508190555080600660008473ffffffffffffffffffffffffffffffffffffffff1673ffffffffffffffffffffffffffffffffffffffff168152602001908152602001600020600082825401925050819055508173ffffffffffffffffffffffffffffffffffffffff16600073ffffffffffffffffffffffffffffffffffffffff167fddf252ad1be2c89b69c2b068fc378daa952ba7f163c4a11628f55a4df523b3ef83604051610f3c919061134f565b60405180910390a35050565b806000806101000a81548173ffffffffffffffffffffffffffffffffffffffff021916908373ffffffffffffffffffffffffffffffffffffffff16021790555060008054906101000a900473ffffffffffffffffffffffffffffffffffffffff1673ffffffffffffffffffffffffffffffffffffffff168273ffffffffffffffffffffffffffffffffffffffff167f8be0079c531659141344cd1fd0a4f28419497f9722a3daafe3b4186f6b6457e060405160405180910390a35050565b600073ffffffffffffffffffffffffffffffffffffffff1660008054906101000a900473ffffffffffffffffffffffffffffffffffffffff1673ffffffffffffffffffffffffffffffffffffffff167f8be0079c531659141344cd1fd0a4f28419497f9722a3daafe3b4186f6b6457e060405160405180910390a360008060006101000a81548173ffffffffffffffffffffffffffffffffffffffff021916908373ffffffffffffffffffffffffffffffffffffffff160217905550565b8280546110d0906116ce565b90600052602060002090601f0160209004810192826110f25760008555611139565b82601f1061110b57805160ff1916838001178555611139565b82800160010185558215611139579182015b8281111561113857825182559160200191906001019061111d565b5b509050611146919061114a565b5090565b5b8082111561116357600081600090555060010161114b565b5090565b600081519050919050565b600082825260208201905092915050565b60005b838110156111a1578082015181840152602081019050611186565b838111156111b0576000848401525b50505050565b6000601f19601f8301169050919050565b60006111d282611167565b6111dc8185611172565b93506111ec818560208601611183565b6111f5816111b6565b840191505092915050565b6000602082019050818103600083015261121a81846111c7565b905092915050565b6000604051905090565b600080fd5b600080fd5b600073ffffffffffffffffffffffffffffffffffffffff82169050919050565b600061126182611236565b9050919050565b61127181611256565b811461127c57600080fd5b50565b60008135905061128e81611268565b92915050565b6000819050919050565b6112a781611294565b81146112b257600080fd5b50565b6000813590506112c48161129e565b92915050565b600080604083850312156112e1576112e061122c565b5b60006112ef8582860161127f565b9250506020611300858286016112b5565b9150509250929050565b60008115159050919050565b61131f8161130a565b82525050565b600060208201905061133a6000830184611316565b92915050565b61134981611294565b82525050565b60006020820190506113646000830184611340565b92915050565b6000806000606084860312156113835761138261122c565b5b60006113918682870161127f565b93505060206113a28682870161127f565b92505060406113b3868287016112b5565b9150509250925092565b600060ff82169050919050565b6113d3816113bd565b82525050565b60006020820190506113ee60008301846113ca565b92915050565b600080fd5b600080fd5b7f4e487b7100000000000000000000000000000000000000000000000000000000600052604160045260246000fd5b611436826111b6565b810181811067ffffffffffffffff82111715611455576114546113fe565b5b80604052505050565b6000611468611222565b9050611474828261142d565b919050565b600067ffffffffffffffff821115611494576114936113fe565b5b61149d826111b6565b9050602081019050919050565b82818337600083830152505050565b60006114cc6114c784611479565b61145e565b9050828152602081018484840111156114e8576114e76113f9565b5b6114f38482856114aa565b509392505050565b600082601f8301126115105761150f6113f4565b5b81356115208482602086016114b9565b91505092915050565b611532816113bd565b811461153d57600080fd5b50565b60008135905061154f81611529565b92915050565b600080600080600060a086880312156115715761157061122c565b5b600061157f8882890161127f565b955050602086013567ffffffffffffffff8111156115a05761159f611231565b5b6115ac888289016114fb565b945050604086013567ffffffffffffffff8111156115cd576115cc611231565b5b6115d9888289016114fb565b93505060606115ea888289016112b5565b92505060806115fb88828901611540565b9150509295509295909350565b61161181611256565b82525050565b600060208201905061162c6000830184611608565b92915050565b6000602082840312156116485761164761122c565b5b60006116568482850161127f565b91505092915050565b600080604083850312156116765761167561122c565b5b60006116848582860161127f565b92505060206116958582860161127f565b9150509250929050565b7f4e487b7100000000000000000000000000000000000000000000000000000000600052602260045260246000fd5b600060028204905060018216806116e657607f821691505b6020821081036116f9576116f861169f565b5b50919050565b7f63616c6c6572206973206e6f7420746865206f776e65722e0000000000000000600082015250565b6000611735601883611172565b9150611740826116ff565b602082019050919050565b6000602082019050818103600083015261176481611728565b9050919050565b7f4e487b7100000000000000000000000000000000000000000000000000000000600052601160045260246000fd5b60006117a582611294565b91506117b083611294565b9250828210156117c3576117c261176b565b5b828203905092915050565b7f756e617574686f72697a65642063616c6c657200000000000000000000000000600082015250565b6000611804601383611172565b915061180f826117ce565b602082019050919050565b60006020820190508181036000830152611833816117f7565b9050919050565b7f63757272656e74206f776e6572206d757374207365742063616c6c657220617360008201527f206e657874206f776e65722e0000000000000000000000000000000000000000602082015250565b6000611896602c83611172565b91506118a18261183a565b604082019050919050565b600060208201905081810360008301526118c581611889565b9050919050565b7f4e657874206f776e657220697320746865207a65726f20616464726573732e00600082015250565b6000611902601f83611172565b915061190d826118cc565b602082019050919050565b60006020820190508181036000830152611931816118f5565b9050919050565b7f45524332303a207472616e7366657220746f20746865207a65726f206164647260008201527f6573730000000000000000000000000000000000000000000000000000000000602082015250565b6000611994602383611172565b915061199f82611938565b604082019050919050565b600060208201905081810360008301526119c381611987565b9050919050565b7f45524332303a206d696e7420746f20746865207a65726f206164647265737300600082015250565b6000611a00601f83611172565b9150611a0b826119ca565b602082019050919050565b60006020820190508181036000830152611a2f816119f3565b9050919050565b6000611a4182611294565b9150611a4c83611294565b9250827fffffffffffffffffffffffffffffffffffffffffffffffffffffffffffffffff03821115611a8157611a8061176b565b5b82820190509291505056fea2646970667358221220fa065f5baebe0ed149a1328c311c33c8dc87c91293da3c7412ff4ee2fdd3fb3564736f6c634300080d0033",
  "immutableReferences": {
    "299": [
      {
        "length": 32,
        "start": 1632
      },
      {
        "length": 32,
        "start": 2569
      }
    ]
  },
  "source": "// SPDX-License-Identifier: MIT\n// pragma solidity =0.8.17;\npragma solidity ^0.8.0;\n\nimport {Ownable} from \"./lib/Ownable.sol\";\nimport {IERC20Events, IERC20} from \"./interface/IERC20.sol\";\n\n/**\n * @title ERC20\n * @dev ERC20 Implementation\n */\ncontract ERC20Impl is Ownable, IERC20, IERC20Events {\n    /// @notice Token total supply\n    uint256 public override totalSupply;\n\n    /// @notice Token name\n    string public override name;\n\n    /// @notice Token symbol\n    string public override symbol;\n\n    /// @notice Token decimals\n    uint8 public override decimals;\n\n    /// @notice Token balance\n    mapping(address => uint256) public override balanceOf;\n\n    /// @notice Token allowance\n    mapping(address => mapping(address => uint256)) public override allowance;\n\n    /// @notice Factory that deploys clones (we use one erc20 implementation for all clones)\n    address public immutable factory;\n\n    /// @dev Ownable parameter is irrelevant since this is a logic contract and deployed once.\n    constructor(address factory_) Ownable(address(0)) {\n        factory = factory_;\n    }\n\n    /// @notice Set initial parameters, mint initial supply to owner and set the owner.\n    /// @dev Only callable by the factory\n    /// @param owner_ The owner of the token contract\n    /// @param name_ The name of the token\n    /// @param symbol_ The symbol of the token\n    /// @param totalSupply_ The totalSupply of the token\n    /// @param decimals_ The decimals of the token\n    function initialize(\n        address owner_,\n        string memory name_,\n        string memory symbol_,\n        uint256 totalSupply_,\n        uint8 decimals_\n    ) external override returns (address) {\n        // ensure that this function is only callable by the factory\n        require(msg.sender == factory, \"unauthorized caller\");\n\n        // set owner\n        _setOwner(address(0), owner_);\n\n        // set metadata\n        name = name_;\n        symbol = symbol_;\n        decimals = decimals_;\n\n        // mint initial supply\n        _mint(owner_, totalSupply_);\n\n        return address(this);\n    }\n\n    // ============ ERC-20 Methods ============\n\n    /// @notice Approve `spender` to transfer up to `value` from `msg.sender`\n    /// @dev This will overwrite the approval value for `spender`\n    ///  and is subject to issues noted [here](https://eips.ethereum.org/EIPS/eip-20#approve)\n    /// @param spender The address of the account which may transfer tokens\n    /// @param value The number of tokens that are approved\n    /// @return Whether or not the approval succeeded\n    function approve(\n        address spender,\n        uint256 value\n    ) external override returns (bool) {\n        _approve(msg.sender, spender, value);\n\n        return true;\n    }\n\n    /// @notice Transfer `value` tokens from `msg.sender` to `to`\n    /// @param to The address of the destination account\n    /// @param value The number of tokens to transfer\n    /// @return Whether or not the transfer succeeded\n    function transfer(\n        address to,\n        uint256 value\n    ) external override returns (bool) {\n        _transfer(msg.sender, to, value);\n\n        return true;\n    }\n\n    /// @notice Transfer `value` tokens from `from` to `to`\n    /// @param from The address of the source account\n    /// @param to The address of the destination account\n    /// @param value The number of tokens to transfer\n    /// @return Whether or not the transfer succeeded\n    function transferFrom(\n        address from,\n        address to,\n        uint256 value\n    ) external override returns (bool) {\n        if (allowance[from][msg.sender] != type(uint256).max) {\n            allowance[from][msg.sender] -= value;\n        }\n\n        _transfer(from, to, value);\n\n        return true;\n    }\n\n    /// @notice Mint `value` tokens to `to`\n    /// @dev Only callable by the owner, throws otherwise\n    /// @param to The account to mint tokens to\n    /// @param value The number of tokens to mint\n    function mint(address to, uint256 value) external override onlyOwner {\n        _mint(to, value);\n    }\n\n    // ============ Internal Methods ============\n\n    function _transfer(address from, address to, uint256 value) internal {\n        require(to != address(0), \"ERC20: transfer to the zero address\");\n\n        balanceOf[from] -= value;\n\n        // Cannot overflow because the sum of all user\n        // balances can't exceed the max uint256 value.\n        unchecked {\n            balanceOf[to] += value;\n        }\n\n        emit Transfer(from, to, value);\n    }\n\n    function _mint(address to, uint256 value) internal {\n        require(to != address(0), \"ERC20: mint to the zero address\");\n\n        totalSupply += value;\n\n        // Cannot overflow because the sum of all user\n        // balances can't exceed the max uint256 value.\n        unchecked {\n            balanceOf[to] += value;\n        }\n\n        emit Transfer(address(0), to, value);\n    }\n\n    function _approve(address _owner, address spender, uint256 value) internal {\n        allowance[_owner][spender] = value;\n\n        emit Approval(_owner, spender, value);\n    }\n}\n",
  "sourcePath": "/Users/lbd/Downloads/MXC LLC/work/token-airdrop-x2e/token-airdrop-x2e/contracts/contracts/ERC20Impl.sol",
  "compiler": {
    "name": "solc",
    "version": "0.8.13+commit.abaa5c0e.Emscripten.clang"
  },
  "schemaVersion": "3.4.16",
  "updatedAt": "2024-04-03T08:09:26.375Z",
  "devdoc": {
    "details": "ERC20 Implementation",
    "kind": "dev",
    "methods": {
      "acceptOwnership()": {
        "details": "Accepts ownership transfer by setting owner."
      },
      "approve(address,uint256)": {
        "details": "This will overwrite the approval value for `spender`  and is subject to issues noted [here](https://eips.ethereum.org/EIPS/eip-20#approve)",
        "params": {
          "spender": "The address of the account which may transfer tokens",
          "value": "The number of tokens that are approved"
        },
        "returns": {
          "_0": "Whether or not the approval succeeded"
        }
      },
      "cancelOwnershipTransfer()": {
        "details": "Cancel ownership transfer by deleting nextOwner."
      },
      "constructor": {
        "details": "Ownable parameter is irrelevant since this is a logic contract and deployed once."
      },
      "initialize(address,string,string,uint256,uint8)": {
        "details": "Only callable by the factory",
        "params": {
          "decimals_": "The decimals of the token",
          "name_": "The name of the token",
          "owner_": "The owner of the token contract",
          "symbol_": "The symbol of the token",
          "totalSupply_": "The totalSupply of the token"
        }
      },
      "isNextOwner()": {
        "details": "Returns true if the caller is the next owner."
      },
      "isOwner()": {
        "details": "Returns true if the caller is the current owner."
      },
      "mint(address,uint256)": {
        "details": "Only callable by the owner, throws otherwise",
        "params": {
          "to": "The account to mint tokens to",
          "value": "The number of tokens to mint"
        }
      },
      "renounceOwnership()": {
        "details": "Renounce ownership by setting owner to zero address."
      },
      "transfer(address,uint256)": {
        "params": {
          "to": "The address of the destination account",
          "value": "The number of tokens to transfer"
        },
        "returns": {
          "_0": "Whether or not the transfer succeeded"
        }
      },
      "transferFrom(address,address,uint256)": {
        "params": {
          "from": "The address of the source account",
          "to": "The address of the destination account",
          "value": "The number of tokens to transfer"
        },
        "returns": {
          "_0": "Whether or not the transfer succeeded"
        }
      },
      "transferOwnership(address)": {
        "details": "Initiate ownership transfer by setting nextOwner."
      }
    },
    "title": "ERC20",
    "version": 1
  },
  "userdoc": {
    "events": {
      "Approval(address,address,uint256)": {
        "notice": "approval event"
      },
      "Transfer(address,address,uint256)": {
        "notice": "transfer event"
      }
    },
    "kind": "user",
    "methods": {
      "allowance(address,address)": {
        "notice": "Token allowance"
      },
      "approve(address,uint256)": {
        "notice": "Approve `spender` to transfer up to `value` from `msg.sender`"
      },
      "balanceOf(address)": {
        "notice": "Token balance"
      },
      "decimals()": {
        "notice": "Token decimals"
      },
      "factory()": {
        "notice": "Factory that deploys clones (we use one erc20 implementation for all clones)"
      },
      "initialize(address,string,string,uint256,uint8)": {
        "notice": "Set initial parameters, mint initial supply to owner and set the owner."
      },
      "mint(address,uint256)": {
        "notice": "Mint `value` tokens to `to`"
      },
      "name()": {
        "notice": "Token name"
      },
      "symbol()": {
        "notice": "Token symbol"
      },
      "totalSupply()": {
        "notice": "Token total supply"
      },
      "transfer(address,uint256)": {
        "notice": "Transfer `value` tokens from `msg.sender` to `to`"
      },
      "transferFrom(address,address,uint256)": {
        "notice": "Transfer `value` tokens from `from` to `to`"
      }
    },
    "version": 1
  }
}