{
  "contractName": "Ownable",
  "abi": [
    {
      "inputs": [
        {
          "internalType": "address",
          "name": "owner_",
          "type": "address"
        }
      ],
      "stateMutability": "nonpayable",
      "type": "constructor"
    },
    {
      "anonymous": false,
      "inputs": [
        {
          "indexed": true,
          "internalType": "address",
          "name": "previousOwner",
          "type": "address"
        },
        {
          "indexed": true,
          "internalType": "address",
          "name": "newOwner",
          "type": "address"
        }
      ],
      "name": "OwnershipTransferred",
      "type": "event"
    },
    {
      "inputs": [],
      "name": "owner",
      "outputs": [
        {
          "internalType": "address",
          "name": "",
          "type": "address"
        }
      ],
      "stateMutability": "view",
      "type": "function"
    },
    {
      "inputs": [
        {
          "internalType": "address",
          "name": "nextOwner_",
          "type": "address"
        }
      ],
      "name": "transferOwnership",
      "outputs": [],
      "stateMutability": "nonpayable",
      "type": "function"
    },
    {
      "inputs": [],
      "name": "cancelOwnershipTransfer",
      "outputs": [],
      "stateMutability": "nonpayable",
      "type": "function"
    },
    {
      "inputs": [],
      "name": "acceptOwnership",
      "outputs": [],
      "stateMutability": "nonpayable",
      "type": "function"
    },
    {
      "inputs": [],
      "name": "renounceOwnership",
      "outputs": [],
      "stateMutability": "nonpayable",
      "type": "function"
    },
    {
      "inputs": [],
      "name": "isOwner",
      "outputs": [
        {
          "internalType": "bool",
          "name": "",
          "type": "bool"
        }
      ],
      "stateMutability": "view",
      "type": "function"
    },
    {
      "inputs": [],
      "name": "isNextOwner",
      "outputs": [
        {
          "internalType": "bool",
          "name": "",
          "type": "bool"
        }
      ],
      "stateMutability": "view",
      "type": "function"
    }
  ],
  "bytecode": "0x608060405234801561001057600080fd5b506040516109bb3803806109bb83398181016040528101906100329190610156565b806000806101000a81548173ffffffffffffffffffffffffffffffffffffffff021916908373ffffffffffffffffffffffffffffffffffffffff16021790555060008054906101000a900473ffffffffffffffffffffffffffffffffffffffff1673ffffffffffffffffffffffffffffffffffffffff16600073ffffffffffffffffffffffffffffffffffffffff167f8be0079c531659141344cd1fd0a4f28419497f9722a3daafe3b4186f6b6457e060405160405180910390a350610183565b600080fd5b600073ffffffffffffffffffffffffffffffffffffffff82169050919050565b6000610123826100f8565b9050919050565b61013381610118565b811461013e57600080fd5b50565b6000815190506101508161012a565b92915050565b60006020828403121561016c5761016b6100f3565b5b600061017a84828501610141565b91505092915050565b610829806101926000396000f3fe608060405234801561001057600080fd5b506004361061007d5760003560e01c80638da5cb5b1161005b5780638da5cb5b146100a05780638f32d59b146100be578063ed459df2146100dc578063f2fde38b146100fa5761007d565b806323452b9c14610082578063715018a61461008c57806379ba509714610096575b600080fd5b61008a610116565b005b610094610184565b005b61009e6101d5565b005b6100a86102fd565b6040516100b591906105c9565b60405180910390f35b6100c6610321565b6040516100d391906105ff565b60405180910390f35b6100e4610378565b6040516100f191906105ff565b60405180910390f35b610114600480360381019061010f919061064b565b6103d0565b005b61011e610321565b61015d576040517f08c379a0000000000000000000000000000000000000000000000000000000008152600401610154906106d5565b60405180910390fd5b600160006101000a81549073ffffffffffffffffffffffffffffffffffffffff0219169055565b61018c610321565b6101cb576040517f08c379a00000000000000000000000000000000000000000000000000000000081526004016101c2906106d5565b60405180910390fd5b6101d36104ca565b565b6101dd610378565b61021c576040517f08c379a000000000000000000000000000000000000000000000000000000000815260040161021390610767565b60405180910390fd5b600160006101000a81549073ffffffffffffffffffffffffffffffffffffffff0219169055336000806101000a81548173ffffffffffffffffffffffffffffffffffffffff021916908373ffffffffffffffffffffffffffffffffffffffff1602179055503373ffffffffffffffffffffffffffffffffffffffff1660008054906101000a900473ffffffffffffffffffffffffffffffffffffffff1673ffffffffffffffffffffffffffffffffffffffff167f8be0079c531659141344cd1fd0a4f28419497f9722a3daafe3b4186f6b6457e060405160405180910390a3565b60008054906101000a900473ffffffffffffffffffffffffffffffffffffffff1681565b60008060009054906101000a900473ffffffffffffffffffffffffffffffffffffffff1673ffffffffffffffffffffffffffffffffffffffff163373ffffffffffffffffffffffffffffffffffffffff1614905090565b6000600160009054906101000a900473ffffffffffffffffffffffffffffffffffffffff1673ffffffffffffffffffffffffffffffffffffffff163373ffffffffffffffffffffffffffffffffffffffff1614905090565b6103d8610321565b610417576040517f08c379a000000000000000000000000000000000000000000000000000000000815260040161040e906106d5565b60405180910390fd5b600073ffffffffffffffffffffffffffffffffffffffff168173ffffffffffffffffffffffffffffffffffffffff1603610486576040517f08c379a000000000000000000000000000000000000000000000000000000000815260040161047d906107d3565b60405180910390fd5b80600160006101000a81548173ffffffffffffffffffffffffffffffffffffffff021916908373ffffffffffffffffffffffffffffffffffffffff16021790555050565b600073ffffffffffffffffffffffffffffffffffffffff1660008054906101000a900473ffffffffffffffffffffffffffffffffffffffff1673ffffffffffffffffffffffffffffffffffffffff167f8be0079c531659141344cd1fd0a4f28419497f9722a3daafe3b4186f6b6457e060405160405180910390a360008060006101000a81548173ffffffffffffffffffffffffffffffffffffffff021916908373ffffffffffffffffffffffffffffffffffffffff160217905550565b600073ffffffffffffffffffffffffffffffffffffffff82169050919050565b60006105b382610588565b9050919050565b6105c3816105a8565b82525050565b60006020820190506105de60008301846105ba565b92915050565b60008115159050919050565b6105f9816105e4565b82525050565b600060208201905061061460008301846105f0565b92915050565b600080fd5b610628816105a8565b811461063357600080fd5b50565b6000813590506106458161061f565b92915050565b6000602082840312156106615761066061061a565b5b600061066f84828501610636565b91505092915050565b600082825260208201905092915050565b7f63616c6c6572206973206e6f7420746865206f776e65722e0000000000000000600082015250565b60006106bf601883610678565b91506106ca82610689565b602082019050919050565b600060208201905081810360008301526106ee816106b2565b9050919050565b7f63757272656e74206f776e6572206d757374207365742063616c6c657220617360008201527f206e657874206f776e65722e0000000000000000000000000000000000000000602082015250565b6000610751602c83610678565b915061075c826106f5565b604082019050919050565b6000602082019050818103600083015261078081610744565b9050919050565b7f4e657874206f776e657220697320746865207a65726f20616464726573732e00600082015250565b60006107bd601f83610678565b91506107c882610787565b602082019050919050565b600060208201905081810360008301526107ec816107b0565b905091905056fea2646970667358221220ab435672d4ff94d9899dd4200f3c8ef9aec6f839dd41555633c1ee5f561ed32164736f6c634300080d0033",
  "immutableReferences": {},
  "source": "// SPDX-License-Identifier: MIT\n// pragma solidity 0.8.17;\npragma solidity ^0.8.0;\n\ninterface IOwnableEvents {\n    event OwnershipTransferred(\n        address indexed previousOwner,\n        address indexed newOwner\n    );\n}\n\ncontract Ownable is IOwnableEvents {\n    address public owner;\n    address private nextOwner;\n\n    // modifiers\n\n    modifier onlyOwner() {\n        require(isOwner(), \"caller is not the owner.\");\n        _;\n    }\n\n    modifier onlyNextOwner() {\n        require(isNextOwner(), \"current owner must set caller as next owner.\");\n        _;\n    }\n\n    /**\n     * @dev Initialize contract by setting transaction submitter as initial owner.\n     */\n    constructor(address owner_) {\n        owner = owner_;\n        emit OwnershipTransferred(address(0), owner);\n    }\n\n    /**\n     * @dev Initiate ownership transfer by setting nextOwner.\n     */\n    function transferOwnership(address nextOwner_) external onlyOwner {\n        require(nextOwner_ != address(0), \"Next owner is the zero address.\");\n\n        nextOwner = nextOwner_;\n    }\n\n    /**\n     * @dev Cancel ownership transfer by deleting nextOwner.\n     */\n    function cancelOwnershipTransfer() external onlyOwner {\n        delete nextOwner;\n    }\n\n    /**\n     * @dev Accepts ownership transfer by setting owner.\n     */\n    function acceptOwnership() external onlyNextOwner {\n        delete nextOwner;\n\n        owner = msg.sender;\n\n        emit OwnershipTransferred(owner, msg.sender);\n    }\n\n    /**\n     * @dev Renounce ownership by setting owner to zero address.\n     */\n    function renounceOwnership() external onlyOwner {\n        _renounceOwnership();\n    }\n\n    /**\n     * @dev Returns true if the caller is the current owner.\n     */\n    function isOwner() public view returns (bool) {\n        return msg.sender == owner;\n    }\n\n    /**\n     * @dev Returns true if the caller is the next owner.\n     */\n    function isNextOwner() public view returns (bool) {\n        return msg.sender == nextOwner;\n    }\n\n    function _setOwner(address previousOwner, address newOwner) internal {\n        owner = newOwner;\n        emit OwnershipTransferred(previousOwner, owner);\n    }\n\n    function _renounceOwnership() internal {\n        emit OwnershipTransferred(owner, address(0));\n\n        owner = address(0);\n    }\n}\n",
  "sourcePath": "/Users/lbd/Downloads/MXC LLC/work/token-airdrop-x2e/token-airdrop-x2e/contracts/contracts/lib/Ownable.sol",
  "compiler": {
    "name": "solc",
    "version": "0.8.13+commit.abaa5c0e.Emscripten.clang"
  },
  "schemaVersion": "3.4.16",
  "updatedAt": "2024-04-03T08:09:26.385Z",
  "devdoc": {
    "kind": "dev",
    "methods": {
      "acceptOwnership()": {
        "details": "Accepts ownership transfer by setting owner."
      },
      "cancelOwnershipTransfer()": {
        "details": "Cancel ownership transfer by deleting nextOwner."
      },
      "constructor": {
        "details": "Initialize contract by setting transaction submitter as initial owner."
      },
      "isNextOwner()": {
        "details": "Returns true if the caller is the next owner."
      },
      "isOwner()": {
        "details": "Returns true if the caller is the current owner."
      },
      "renounceOwnership()": {
        "details": "Renounce ownership by setting owner to zero address."
      },
      "transferOwnership(address)": {
        "details": "Initiate ownership transfer by setting nextOwner."
      }
    },
    "version": 1
  },
  "userdoc": {
    "kind": "user",
    "methods": {},
    "version": 1
  }
}